{
  "_format": "hh-sol-artifact-1",
  "contractName": "Contract",
  "sourceName": "contracts/Contract.sol",
  "abi": [
    {
      "inputs": [],
      "stateMutability": "nonpayable",
      "type": "constructor"
    },
    {
      "anonymous": false,
      "inputs": [
        {
          "indexed": true,
          "internalType": "bytes32",
          "name": "id",
          "type": "bytes32"
        },
        {
          "indexed": false,
          "internalType": "address",
          "name": "from",
          "type": "address"
        }
      ],
      "name": "FundsClaimed",
      "type": "event"
    },
    {
      "anonymous": false,
      "inputs": [
        {
          "indexed": true,
          "internalType": "bytes32",
          "name": "id",
          "type": "bytes32"
        },
        {
          "indexed": false,
          "internalType": "address",
          "name": "from",
          "type": "address"
        }
      ],
      "name": "FundsDonated",
      "type": "event"
    },
    {
      "anonymous": false,
      "inputs": [
        {
          "indexed": false,
          "internalType": "bytes32",
          "name": "id",
          "type": "bytes32"
        },
        {
          "indexed": true,
          "internalType": "address",
          "name": "from",
          "type": "address"
        }
      ],
      "name": "ProjectCreated",
      "type": "event"
    },
    {
      "inputs": [
        {
          "internalType": "bytes32",
          "name": "id",
          "type": "bytes32"
        }
      ],
      "name": "claimProjectFunds",
      "outputs": [],
      "stateMutability": "nonpayable",
      "type": "function"
    },
    {
      "inputs": [
        {
          "internalType": "string",
          "name": "title",
          "type": "string"
        },
        {
          "internalType": "string",
          "name": "description",
          "type": "string"
        },
        {
          "internalType": "uint256",
          "name": "requestedAmount",
          "type": "uint256"
        },
        {
          "internalType": "string",
          "name": "image",
          "type": "string"
        }
      ],
      "name": "createProject",
      "outputs": [],
      "stateMutability": "nonpayable",
      "type": "function"
    },
    {
      "inputs": [
        {
          "internalType": "bytes32",
          "name": "id",
          "type": "bytes32"
        },
        {
          "internalType": "uint256",
          "name": "amount",
          "type": "uint256"
        }
      ],
      "name": "donateToProject",
      "outputs": [],
      "stateMutability": "nonpayable",
      "type": "function"
    },
    {
      "inputs": [
        {
          "internalType": "bytes32",
          "name": "id",
          "type": "bytes32"
        }
      ],
      "name": "getProject",
      "outputs": [
        {
          "components": [
            {
              "internalType": "bytes32",
              "name": "id",
              "type": "bytes32"
            },
            {
              "internalType": "address",
              "name": "creator",
              "type": "address"
            },
            {
              "internalType": "string",
              "name": "title",
              "type": "string"
            },
            {
              "internalType": "uint256",
              "name": "requestedAmount",
              "type": "uint256"
            },
            {
              "internalType": "string",
              "name": "description",
              "type": "string"
            },
            {
              "internalType": "string",
              "name": "image",
              "type": "string"
            },
            {
              "internalType": "uint256",
              "name": "fundedAmount",
              "type": "uint256"
            },
            {
              "internalType": "uint256",
              "name": "claimedAmount",
              "type": "uint256"
            },
            {
              "internalType": "address[]",
              "name": "donators",
              "type": "address[]"
            },
            {
              "internalType": "uint256",
              "name": "createdAt",
              "type": "uint256"
            },
            {
              "internalType": "contract Qavah",
              "name": "qavah",
              "type": "address"
            }
          ],
          "internalType": "struct Contract.Project",
          "name": "",
          "type": "tuple"
        }
      ],
      "stateMutability": "view",
      "type": "function"
    },
    {
      "inputs": [],
      "name": "getProjects",
      "outputs": [
        {
          "components": [
            {
              "internalType": "bytes32",
              "name": "id",
              "type": "bytes32"
            },
            {
              "internalType": "address",
              "name": "creator",
              "type": "address"
            },
            {
              "internalType": "string",
              "name": "title",
              "type": "string"
            },
            {
              "internalType": "uint256",
              "name": "requestedAmount",
              "type": "uint256"
            },
            {
              "internalType": "string",
              "name": "description",
              "type": "string"
            },
            {
              "internalType": "string",
              "name": "image",
              "type": "string"
            },
            {
              "internalType": "uint256",
              "name": "fundedAmount",
              "type": "uint256"
            },
            {
              "internalType": "uint256",
              "name": "claimedAmount",
              "type": "uint256"
            },
            {
              "internalType": "address[]",
              "name": "donators",
              "type": "address[]"
            },
            {
              "internalType": "uint256",
              "name": "createdAt",
              "type": "uint256"
            },
            {
              "internalType": "contract Qavah",
              "name": "qavah",
              "type": "address"
            }
          ],
          "internalType": "struct Contract.Project[]",
          "name": "",
          "type": "tuple[]"
        }
      ],
      "stateMutability": "view",
      "type": "function"
    },
    {
      "inputs": [],
      "name": "getQavahsCount",
      "outputs": [
        {
          "internalType": "uint256",
          "name": "",
          "type": "uint256"
        }
      ],
      "stateMutability": "view",
      "type": "function"
    },
    {
      "inputs": [
        {
          "internalType": "address",
          "name": "tokenAddress",
          "type": "address"
        },
        {
          "internalType": "string",
          "name": "url",
          "type": "string"
        }
      ],
      "name": "initialize",
      "outputs": [],
      "stateMutability": "nonpayable",
      "type": "function"
    },
    {
      "inputs": [],
      "name": "siteUrl",
      "outputs": [
        {
          "internalType": "string",
          "name": "",
          "type": "string"
        }
      ],
      "stateMutability": "view",
      "type": "function"
    },
    {
      "inputs": [],
      "name": "usdTokenAddress",
      "outputs": [
        {
          "internalType": "address",
          "name": "",
          "type": "address"
        }
      ],
      "stateMutability": "view",
      "type": "function"
    }
  ],
  "bytecode": "0x60806040523480156200001157600080fd5b50600054610100900460ff166200002f5760005460ff161562000039565b620000396200009e565b620000615760405162461bcd60e51b81526004016200005890620000cb565b60405180910390fd5b600054610100900460ff1615801562000084576000805461ffff19166101011790555b801562000097576000805461ff00191690555b5062000124565b6000620000b630620000bc60201b620011ef1760201c565b15905090565b6001600160a01b03163b151590565b602080825281016200011e81602e81527f496e697469616c697a61626c653a20636f6e747261637420697320616c72656160208201526d191e481a5b9a5d1a585b1a5e995960921b604082015260600190565b92915050565b61478880620001346000396000f3fe60806040523480156200001157600080fd5b50600436106200008e5760003560e01c80631825f39114620000935780633eac8dac14620000ac5780634657571414620000de5780634b5f748a14620000f55780636993297a146200011b5780637cc7e5ec1462000134578063dcc60128146200014b578063f399e22e1462000164578063f5330bb4146200017b575b600080fd5b620000aa620000a436600462001cec565b62000194565b005b600054620000c6906201000090046001600160a01b031681565b604051620000d59190620026b8565b60405180910390f35b620000aa620000ef36600462001d4c565b62000321565b6200010c6200010636600462001cec565b6200065d565b604051620000d5919062002835565b6200012562000912565b604051620000d591906200274c565b620000aa6200014536600462001d0d565b62000992565b6200015562000d0d565b604051620000d5919062002739565b620000aa6200017536600462001c70565b620010a6565b6200018562001159565b604051620000d591906200275c565b600081815260026020526040902060018101546001600160a01b03163314620001da5760405162461bcd60e51b8152600401620001d19062002793565b60405180910390fd5b600081600701548260060154620001f291906200289c565b905060008111620002175760405162461bcd60e51b8152600401620001d190620027a5565b60005460405163a9059cbb60e01b8152620100009091046001600160a01b03169063a9059cbb906200025090339085906004016200271a565b602060405180830381600087803b1580156200026b57600080fd5b505af115801562000280573d6000803e3d6000fd5b505050506040513d601f19601f82011682018060405250810190620002a6919062001ccb565b620002c55760405162461bcd60e51b8152600401620001d190620027ff565b80826007016000828254620002db919062002848565b92505081905550827feff38a64c4ca4e4df09019118ef2dfa3e4d59b5c982b35299dac2f42f308a1f733604051620003149190620026b8565b60405180910390a2505050565b85620003415760405162461bcd60e51b8152600401620001d190620027c9565b60008311620003645760405162461bcd60e51b8152600401620001d19062002811565b6003546040516000916200037e914291906020016200268e565b604051602081830303815290604052805190602001209050600260008281526020019081526020016000206002018054620003b9906200291e565b159050620003db5760405162461bcd60e51b8152600401620001d190620027b7565b620003e562001a06565b8181523360208083019190915260408051601f8b01839004830281018301909152898152908a908a908190840183828082843760009201919091525050505060408083019190915280516020601f8901819004810282018101909252878152908890889081908401838280828437600092019190915250505050608082015260608101859052604080516020601f860181900481028201810190925284815290859085908190840183828082843760009201919091525050505060a082015242610120820152604051620004b99062001a75565b604051809103906000f080158015620004d6573d6000803e3d6000fd5b506001600160a01b0390811661014083015260008381526002602081815260409283902085518155818601516001820180546001600160a01b03191691909616179094559184015180518594936200053393850192019062001a83565b5060608201516003820155608082015180516200055b91600484019160209091019062001a83565b5060a082015180516200057991600584019160209091019062001a83565b5060c0820151600682015560e082015160078201556101008201518051620005ac91600884019160209091019062001b12565b50610120820151600982015561014090910151600a90910180546001600160a01b0319166001600160a01b03909216919091179055600380546001810182556000919091527fc2575a0e9e593c00f959f8c92f12db2869c3395a3b0502d05e2516446f71f85b0182905560405133907f72d3574e35dc5b7a620c3cbcb395fec0497a0427c47762bfe8deba4688f6ff18906200064a9085906200274c565b60405180910390a2505050505050505050565b6200066762001a06565b6000828152600260208181526040928390208351610160810185528154815260018201546001600160a01b03169281019290925291820180549193840191620006b0906200291e565b80601f0160208091040260200160405190810160405280929190818152602001828054620006de906200291e565b80156200072f5780601f1062000703576101008083540402835291602001916200072f565b820191906000526020600020905b8154815290600101906020018083116200071157829003601f168201915b505050505081526020016003820154815260200160048201805462000754906200291e565b80601f016020809104026020016040519081016040528092919081815260200182805462000782906200291e565b8015620007d35780601f10620007a757610100808354040283529160200191620007d3565b820191906000526020600020905b815481529060010190602001808311620007b557829003601f168201915b50505050508152602001600582018054620007ee906200291e565b80601f01602080910402602001604051908101604052809291908181526020018280546200081c906200291e565b80156200086d5780601f1062000841576101008083540402835291602001916200086d565b820191906000526020600020905b8154815290600101906020018083116200084f57829003601f168201915b50505050508152602001600682015481526020016007820154815260200160088201805480602002602001604051908101604052809291908181526020018280548015620008e557602002820191906000526020600020905b81546001600160a01b03168152600190910190602001808311620008c6575b505050918352505060098201546020820152600a909101546001600160a01b031660409091015292915050565b600080805b6003548110156200098c5760026000600383815481106200094857634e487b7160e01b600052603260045260246000fd5b90600052602060002001548152602001908152602001600020600801805490508262000975919062002848565b915080620009838162002949565b91505062000917565b50919050565b60008281526002602052604090206003810154600682015410620009ca5760405162461bcd60e51b8152600401620001d1906200276f565b60018101546001600160a01b0316331415620009fa5760405162461bcd60e51b8152600401620001d190620027ed565b6000546040516323b872dd60e01b8152620100009091046001600160a01b0316906323b872dd9062000a3590339030908790600401620026c8565b602060405180830381600087803b15801562000a5057600080fd5b505af115801562000a65573d6000803e3d6000fd5b505050506040513d601f19601f8201168201806040525081019062000a8b919062001ccb565b62000aaa5760405162461bcd60e51b8152600401620001d190620027ff565b600381015460009062000abf8460646200287a565b62000acb919062002863565b90506000811162000af05760405162461bcd60e51b8152600401620001d19062002823565b6000606483600301548362000b0691906200287a565b62000b12919062002863565b90508083600601600082825462000b2a919062002848565b909155505060088301805460018101825560008281526020812090910180546001600160a01b03191633179055905462000b6490620011fe565b62000b7785600501866000015462001333565b60405160200162000b8a929190620025ab565b6040516020818303038152906040529050600062000bb162000bab62000912565b620011fe565b600162000bbe896200154d565b60405160200162000bd1929190620023ab565b60405160208183030381529060405262000beb84620015a8565b62000c0362000bab670de0b6b3a76400008862002863565b62000c0e42620011fe565b60405160200162000c2495949392919062002492565b60408051601f19818403018152919052600a8601549091506001600160a01b031663d204c45e3362000c5684620015a8565b60405160200162000c68919062002577565b6040516020818303038152906040526040518363ffffffff1660e01b815260040162000c96929190620026f6565b600060405180830381600087803b15801562000cb157600080fd5b505af115801562000cc6573d6000803e3d6000fd5b50505050867f7abfb7da4a842d91a4fadb66a2ef0e5e3ad8f0b93855ec7955fce7ae928dec4f3360405162000cfc9190620026b8565b60405180910390a250505050505050565b6003546060906000906001600160401b0381111562000d3c57634e487b7160e01b600052604160045260246000fd5b60405190808252806020026020018201604052801562000d7957816020015b62000d6562001a06565b81526020019060019003908162000d5b5790505b50905060005b6003548110156200098c57600260006003838154811062000db057634e487b7160e01b600052603260045260246000fd5b6000918252602080832090910154835282810193909352604091820190208151610160810183528154815260018201546001600160a01b031693810193909352600281018054919284019162000e06906200291e565b80601f016020809104026020016040519081016040528092919081815260200182805462000e34906200291e565b801562000e855780601f1062000e595761010080835404028352916020019162000e85565b820191906000526020600020905b81548152906001019060200180831162000e6757829003601f168201915b505050505081526020016003820154815260200160048201805462000eaa906200291e565b80601f016020809104026020016040519081016040528092919081815260200182805462000ed8906200291e565b801562000f295780601f1062000efd5761010080835404028352916020019162000f29565b820191906000526020600020905b81548152906001019060200180831162000f0b57829003601f168201915b5050505050815260200160058201805462000f44906200291e565b80601f016020809104026020016040519081016040528092919081815260200182805462000f72906200291e565b801562000fc35780601f1062000f975761010080835404028352916020019162000fc3565b820191906000526020600020905b81548152906001019060200180831162000fa557829003601f168201915b505050505081526020016006820154815260200160078201548152602001600882018054806020026020016040519081016040528092919081815260200182805480156200103b57602002820191906000526020600020905b81546001600160a01b031681526001909101906020018083116200101c575b505050918352505060098201546020820152600a909101546001600160a01b031660409091015282518390839081106200108557634e487b7160e01b600052603260045260246000fd5b602002602001018190525080806200109d9062002949565b91505062000d7f565b600054610100900460ff16620010c35760005460ff1615620010cd565b620010cd62001719565b620010ec5760405162461bcd60e51b8152600401620001d190620027db565b600054610100900460ff161580156200110f576000805461ffff19166101011790555b6000805462010000600160b01b031916620100006001600160a01b038716021790556200113f6001848462001b6a565b50801562001153576000805461ff00191690555b50505050565b6001805462001168906200291e565b80601f016020809104026020016040519081016040528092919081815260200182805462001196906200291e565b8015620011e75780601f10620011bb57610100808354040283529160200191620011e7565b820191906000526020600020905b815481529060010190602001808311620011c957829003601f168201915b505050505081565b6001600160a01b03163b151590565b606081620012235750506040805180820190915260018152600360fc1b602082015290565b8160005b81156200125357806200123a8162002949565b91506200124b9050600a8362002863565b915062001227565b6000816001600160401b038111156200127c57634e487b7160e01b600052604160045260246000fd5b6040519080825280601f01601f191660200182016040528015620012a7576020820181803683370190505b5090505b84156200132b57620012bf6001836200289c565b9150620012ce600a8662002967565b620012db90603062002848565b60f81b818381518110620012ff57634e487b7160e01b600052603260045260246000fd5b60200101906001600160f81b031916908160001a90535062001323600a8662002863565b9450620012ab565b949350505050565b6060600260006200134582806200287a565b6001600160401b038111156200136b57634e487b7160e01b600052604160045260246000fd5b604051908082528060200260200182016040528015620013a057816020015b60608152602001906001900390816200138a5790505b50905060005b82811015620014c15760005b83811015620014ab5786620013da85620013ce8560016200287a565b62000bab919062002863565b62001406866001620013ed86836200289c565b620013f991906200289c565b620013ce9060016200287a565b62001419876001620013ed88836200289c565b6200142b88620013ce8760016200287a565b60405160200162001441959493929190620023b9565b60408051601f1981840301815291905283826200145f87866200287a565b6200146b919062002848565b815181106200148a57634e487b7160e01b600052603260045260246000fd5b60200260200101819052508080620014a29062002949565b915050620013b2565b5080620014b88162002949565b915050620013a6565b50620014ce81856200172c565b606060005b8251811015620015415781838281518110620014ff57634e487b7160e01b600052603260045260246000fd5b60200260200101516040516020016200151a9291906200238f565b60405160208183030381529060405291508080620015389062002949565b915050620014d3565b50925050505b92915050565b606081620015755750506040805180820190915260048152630307830360e41b602082015290565b8160005b81156200159c57806200158c8162002949565b915050600882901c915062001579565b6200132b848262001839565b6060815160001415620015c957505060408051602081019091526000815290565b6000604051806060016040528060408152602001620047136040913990506000600384516002620015fb919062002848565b62001607919062002863565b620016149060046200287a565b6001600160401b038111156200163a57634e487b7160e01b600052604160045260246000fd5b6040519080825280601f01601f19166020018201604052801562001665576020820181803683370190505b509050600182016020820185865187015b80821015620016d3576003820191508151603f8160121c168501518453600184019350603f81600c1c168501518453600184019350603f8160061c168501518453600184019350603f811685015184536001840193505062001676565b5050600386510660018114620016f2576002811462001706576200170e565b603d6001830353603d60028303536200170e565b603d60018303535b509195945050505050565b60006200172630620011ef565b15905090565b6000600183516200173e91906200289c565b90505b8015620018345760008184516200175991906200289c565b62001765908462002967565b905060008483815181106200178a57634e487b7160e01b600052603260045260246000fd5b602002602001015190506000858381518110620017b757634e487b7160e01b600052603260045260246000fd5b6020026020010151905080868581518110620017e357634e487b7160e01b600052603260045260246000fd5b6020026020010181905250818684815181106200181057634e487b7160e01b600052603260045260246000fd5b602002602001018190525050505080806200182b9062002904565b91505062001741565b505050565b606060006200184a8360026200287a565b6200185790600262002848565b6001600160401b038111156200187d57634e487b7160e01b600052604160045260246000fd5b6040519080825280601f01601f191660200182016040528015620018a8576020820181803683370190505b509050600360fc1b81600081518110620018d257634e487b7160e01b600052603260045260246000fd5b60200101906001600160f81b031916908160001a905350600f60fb1b816001815181106200191057634e487b7160e01b600052603260045260246000fd5b60200101906001600160f81b031916908160001a9053506000620019368460026200287a565b6200194390600162002848565b90505b6001811115620019dd576f181899199a1a9b1b9c1cb0b131b232b360811b85600f16601081106200198757634e487b7160e01b600052603260045260246000fd5b1a60f81b828281518110620019ac57634e487b7160e01b600052603260045260246000fd5b60200101906001600160f81b031916908160001a90535060049490941c93620019d58162002904565b905062001946565b508315620019ff5760405162461bcd60e51b8152600401620001d19062002781565b9392505050565b6040518061016001604052806000801916815260200160006001600160a01b03168152602001606081526020016000815260200160608152602001606081526020016000815260200160008152602001606081526020016000815260200160006001600160a01b031681525090565b611d2880620029eb83390190565b82805462001a91906200291e565b90600052602060002090601f01602090048101928262001ab5576000855562001b00565b82601f1062001ad057805160ff191683800117855562001b00565b8280016001018555821562001b00579182015b8281111562001b0057825182559160200191906001019062001ae3565b5062001b0e92915062001be7565b5090565b82805482825590600052602060002090810192821562001b00579160200282015b8281111562001b0057825182546001600160a01b0319166001600160a01b0390911617825560209092019160019091019062001b33565b82805462001b78906200291e565b90600052602060002090601f01602090048101928262001b9c576000855562001b00565b82601f1062001bb75782800160ff1982351617855562001b00565b8280016001018555821562001b00579182015b8281111562001b0057823582559160200191906001019062001bca565b5b8082111562001b0e576000815560010162001be8565b80356200154781620029c0565b80516200154781620029da565b80356200154781620029e3565b60008083601f84011262001c3857600080fd5b5081356001600160401b0381111562001c5057600080fd5b60208301915083600182028301111562001c6957600080fd5b9250929050565b60008060006040848603121562001c8657600080fd5b600062001c94868662001bfe565b93505060208401356001600160401b0381111562001cb157600080fd5b62001cbf8682870162001c25565b92509250509250925092565b60006020828403121562001cde57600080fd5b60006200132b848462001c0b565b60006020828403121562001cff57600080fd5b60006200132b848462001c18565b6000806040838503121562001d2157600080fd5b600062001d2f858562001c18565b925050602062001d428582860162001c18565b9150509250929050565b60008060008060008060006080888a03121562001d6857600080fd5b87356001600160401b0381111562001d7f57600080fd5b62001d8d8a828b0162001c25565b975097505060208801356001600160401b0381111562001dac57600080fd5b62001dba8a828b0162001c25565b9550955050604062001dcf8a828b0162001c18565b93505060608801356001600160401b0381111562001dec57600080fd5b62001dfa8a828b0162001c25565b925092505092959891949750929550565b600062001e19838362001e2f565b505060200190565b6000620019ff83836200227c565b62001e3a81620028b6565b82525050565b600062001e4b825190565b80845260209384019383018060005b8381101562001e8357815162001e71888262001e0b565b97506020830192505060010162001e5a565b509495945050505050565b600062001e99825190565b8084526020840193508360208202850162001eb48560200190565b8060005b8581101562001eed578484038952815162001ed4858262001e21565b94506020830160209a909a019992505060010162001eb8565b5091979650505050505050565b8062001e3a565b600062001f0c825190565b62001f1c818560208601620028d5565b9290920192915050565b62001e3a81620028c8565b600062001f3c825190565b80845260208401935062001f55818560208601620028d5565b601f01601f19169290920192915050565b6000815462001f75816200291e565b60018216801562001f8f576001811462001fa15762001fd3565b60ff1983168652818601935062001fd3565b60008581526020902060005b8381101562001fcb5781548882015260019091019060200162001fad565b838801955050505b50505092915050565b601381526000602082017221b0b6b830b4b3b71034b99031b637b9b2b21760691b815291505b5060200190565b60208082527f537472696e67733a20686578206c656e67746820696e73756666696369656e749101908152600062002002565b602981526000602082017f4f6e6c792070726f6a6563742063726561746f722063616e20636c61696d2074815268343290333ab732399760b91b602082015291505b5060400190565b601a8152600060208201792a3432b9329034b9903737ba3434b733903a379031b630b4b69760311b8152915062002002565b600f81526000602082016e24b73a32b93730b61032b93937b91760891b8152915062002002565b60208082527f50726f6a656374207469746c65206d757374206e6f7420626520656d7074792e9101908152600062002002565b602e81526000602082017f496e697469616c697a61626c653a20636f6e747261637420697320616c72656181526d191e481a5b9a5d1a585b1a5e995960921b602082015291506200207e565b6c1e34b6b0b3b290343932b31e9160991b815260005b50600d0190565b6c01116101130b6b7bab73a111d1609d1b8152600062002173565b61207d60f01b815260005b5060020190565b601e81526000602082017f596f752063616e6e6f7420646f6e61746520746f20796f757273656c662e00008152915062002002565b601081526000602082016f2a3930b739b332b9103330b4b632b21760811b8152915062002002565b602381526000602082017f52657175657374656420616d6f756e742062652067726561746572207468616e81526210181760e91b602082015291506200207e565b600f81526000602082016e20b6b7bab73a103a37b7903637bb9760891b8152915062002002565b61012960f51b81526000620021a0565b805160009061016084019062002293858262001efa565b506020830151620022a8602086018262001e2f565b5060408301518482036040860152620022c2828262001f31565b9150506060830151620022d9606086018262001efa565b5060808301518482036080860152620022f3828262001f31565b91505060a083015184820360a08601526200230f828262001f31565b91505060c08301516200232660c086018262001efa565b5060e08301516200233b60e086018262001efa565b5061010083015184820361010086015262002357828262001e40565b9150506101208301516200237061012086018262001efa565b506101408301516200238761014086018262001f26565b509392505050565b60006200239d828562001f01565b91506200132b828462001f01565b60006200239d828562001f66565b6000620023c6826200215d565b9150620023d4828862001f66565b7f222077696474683d2236343022206865696768743d223336302220636c69702d81526b0e0c2e8d07a44d2dce6cae8560a31b6020820152602c0191506200241d828762001f01565b91506200242a826200226c565b915062002438828662001f01565b915062002445826200226c565b915062002453828562001f01565b915062002460826200226c565b91506200246e828462001f01565b6b1294911f1e17b4b6b0b3b29f60a11b81529150600c82015b979650505050505050565b717b20226e616d65223a20225161766168202360701b81526012016000620024bb828862001f01565b72111610113232b9b1b934b83a34b7b7111d101160691b81526013019150620024e5828762001f01565b7f222c2022696d616765223a2022646174613a696d6167652f7376672b786d6c3b81526618985cd94d8d0b60ca1b6020820152602701915062002529828662001f01565b915062002536826200217a565b915062002544828562001f01565b6e01610113a34b6b2b9ba30b6b8111d1608d1b8152600f0191506200256a828462001f01565b9150620024878262002195565b7f646174613a6170706c69636174696f6e2f6a736f6e3b6261736536342c0000008152601d016000620019ff828462001f01565b7f3c7376672076696577426f783d2230203020363430203336302220786d6c6e7381527f3d22687474703a2f2f7777772e77332e6f72672f323030302f737667223e3c7360208201527f74796c653e696d616765207b206f7061636974793a20302e323b207d20696d6160408201527167653a6e74682d6f662d74797065282d6e2b60701b6060820152607201600062002646828562001f01565b7814903d9037b830b1b4ba3c9d10189d903e9e17b9ba3cb6329f60391b8152601901915062002676828462001f01565b651e17b9bb339f60d11b81529150600682016200132b565b60006200269c828562001efa565b602082019150620026ae828462001efa565b5060200192915050565b6020810162001547828462001e2f565b60608101620026d8828662001e2f565b620026e7602083018562001e2f565b6200132b604083018462001efa565b6040810162002706828562001e2f565b81810360208301526200132b818462001f31565b604081016200272a828562001e2f565b620019ff602083018462001efa565b60208082528101620019ff818462001e8e565b6020810162001547828462001efa565b60208082528101620019ff818462001f31565b60208082528101620015478162001fdc565b60208082528101620015478162002009565b6020808252810162001547816200203c565b60208082528101620015478162002085565b602080825281016200154781620020b7565b602080825281016200154781620020de565b60208082528101620015478162002111565b602080825281016200154781620021a7565b602080825281016200154781620021dc565b60208082528101620015478162002204565b60208082528101620015478162002245565b60208082528101620019ff81846200227c565b600082198211156200285e576200285e6200297e565b500190565b60008262002875576200287562002994565b500490565b60008160001904831182151516156200289757620028976200297e565b500290565b600082821015620028b157620028b16200297e565b500390565b60006001600160a01b03821662001547565b60006200154782620028b6565b60005b83811015620028f2578181015183820152602001620028d8565b83811115620011535750506000910152565b6000816200291657620029166200297e565b506000190190565b6002810460018216806200293357607f821691505b602082108114156200098c576200098c620029aa565b60006000198214156200296057620029606200297e565b5060010190565b60008262002979576200297962002994565b500690565b634e487b7160e01b600052601160045260246000fd5b634e487b7160e01b600052601260045260246000fd5b634e487b7160e01b600052602260045260246000fd5b620029cb81620028b6565b8114620029d757600080fd5b50565b801515620029cb565b80620029cb56fe60806040523480156200001157600080fd5b5060408051808201825260058152640a2c2ecc2d60db1b60208083019182528351808501909452600384526228a0ab60e91b9084015281519192916200005a91600091620000e9565b50805162000070906001906020840190620000e9565b5050506200008d620000876200009360201b60201c565b62000097565b620001d6565b3390565b600780546001600160a01b038381166001600160a01b0319831681179093556040519116919082907f8be0079c531659141344cd1fd0a4f28419497f9722a3daafe3b4186f6b6457e090600090a35050565b828054620000f7906200018f565b90600052602060002090601f0160209004810192826200011b576000855562000166565b82601f106200013657805160ff191683800117855562000166565b8280016001018555821562000166579182015b828111156200016657825182559160200191906001019062000149565b506200017492915062000178565b5090565b5b8082111562000174576000815560010162000179565b600281046001821680620001a457607f821691505b60208210811415620001ba57620001ba620001c0565b50919050565b634e487b7160e01b600052602260045260246000fd5b611b4280620001e66000396000f3fe608060405234801561001057600080fd5b50600436106100db5760003560e01c806301ffc9a7146100e057806306fdde0314610109578063081812fc1461011e578063095ea7b31461013e57806323b872dd1461015357806342842e0e146101665780636352211e1461017957806370a082311461018c578063715018a6146101ac5780638da5cb5b146101b457806395d89b41146101bc578063a22cb465146101c4578063b88d4fde146101d7578063c87b56dd146101ea578063d204c45e146101fd578063e985e9c514610210578063f2fde38b14610223575b600080fd5b6100f36100ee3660046111b1565b610236565b60405161010091906117af565b60405180910390f35b610111610288565b60405161010091906117bd565b61013161012c3660046111ed565b61031a565b604051610100919061175d565b61015161014c366004611181565b610366565b005b610151610161366004611045565b6103ec565b610151610174366004611045565b61041d565b6101316101873660046111ed565b610438565b61019f61019a366004610fed565b61046d565b60405161010091906118ee565b6101516104b1565b6101316104ec565b6101116104fb565b6101516101d236600461110a565b61050a565b6101516101e5366004611092565b610519565b6101116101f83660046111ed565b610551565b61015161020b36600461113a565b61055c565b6100f361021e36600461100b565b6105ba565b610151610231366004610fed565b6105e8565b60006001600160e01b031982166380ac58cd60e01b148061026757506001600160e01b03198216635b5e139f60e01b145b8061028257506301ffc9a760e01b6001600160e01b03198316145b92915050565b606060008054610297906119cf565b80601f01602080910402602001604051908101604052809291908181526020018280546102c3906119cf565b80156103105780601f106102e557610100808354040283529160200191610310565b820191906000526020600020905b8154815290600101906020018083116102f357829003601f168201915b5050505050905090565b600061032582610649565b61034a5760405162461bcd60e51b81526004016103419061189e565b60405180910390fd5b506000908152600460205260409020546001600160a01b031690565b600061037182610438565b9050806001600160a01b0316836001600160a01b031614156103a55760405162461bcd60e51b8152600401610341906118ce565b336001600160a01b03821614806103c157506103c181336105ba565b6103dd5760405162461bcd60e51b81526004016103419061183e565b6103e78383610666565b505050565b6103f633826106d4565b6104125760405162461bcd60e51b8152600401610341906118de565b6103e7838383610759565b6103e783838360405180602001604052806000815250610519565b6000818152600260205260408120546001600160a01b0316806102825760405162461bcd60e51b81526004016103419061185e565b60006001600160a01b0382166104955760405162461bcd60e51b81526004016103419061184e565b506001600160a01b031660009081526003602052604090205490565b336104ba6104ec565b6001600160a01b0316146104e05760405162461bcd60e51b8152600401610341906118ae565b6104ea6000610869565b565b6007546001600160a01b031690565b606060018054610297906119cf565b6105153383836108bb565b5050565b61052333836106d4565b61053f5760405162461bcd60e51b8152600401610341906118de565b61054b8484848461095e565b50505050565b606061028282610991565b336105656104ec565b6001600160a01b03161461058b5760405162461bcd60e51b8152600401610341906118ae565b600061059660085490565b90506105a6600880546001019055565b6105b08382610ab6565b6103e78183610ad0565b6001600160a01b03918216600090815260056020908152604080832093909416825291909152205460ff1690565b336105f16104ec565b6001600160a01b0316146106175760405162461bcd60e51b8152600401610341906118ae565b6001600160a01b03811661063d5760405162461bcd60e51b8152600401610341906117de565b61064681610869565b50565b6000908152600260205260409020546001600160a01b0316151590565b600081815260046020526040902080546001600160a01b0319166001600160a01b038416908117909155819061069b82610438565b6001600160a01b03167f8c5be1e5ebec7d5bd14f71427d1e84f3dd0314c0f7b2291e5b200ac8c7c3b92560405160405180910390a45050565b60006106df82610649565b6106fb5760405162461bcd60e51b81526004016103419061182e565b600061070683610438565b9050806001600160a01b0316846001600160a01b031614806107415750836001600160a01b03166107368461031a565b6001600160a01b0316145b80610751575061075181856105ba565b949350505050565b826001600160a01b031661076c82610438565b6001600160a01b0316146107925760405162461bcd60e51b8152600401610341906117ee565b6001600160a01b0382166107b85760405162461bcd60e51b81526004016103419061180e565b6107c3600082610666565b6001600160a01b03831660009081526003602052604081208054600192906107ec90849061196f565b90915550506001600160a01b038216600090815260036020526040812080546001929061081a908490611943565b909155505060008181526002602052604080822080546001600160a01b0319166001600160a01b038681169182179092559151849391871691600080516020611aed83398151915291a4505050565b600780546001600160a01b038381166001600160a01b0319831681179093556040519116919082907f8be0079c531659141344cd1fd0a4f28419497f9722a3daafe3b4186f6b6457e090600090a35050565b816001600160a01b0316836001600160a01b031614156108ed5760405162461bcd60e51b81526004016103419061181e565b6001600160a01b0383811660008181526005602090815260408083209487168084529490915290819020805460ff1916851515179055517f17307eab39ab6107e8899845ad3d59bd9653f200f220920489ca2b5937696c31906109519085906117af565b60405180910390a3505050565b610969848484610759565b61097584848484610b14565b61054b5760405162461bcd60e51b8152600401610341906117ce565b606061099c82610649565b6109b85760405162461bcd60e51b81526004016103419061188e565b600082815260066020526040812080546109d1906119cf565b80601f01602080910402602001604051908101604052809291908181526020018280546109fd906119cf565b8015610a4a5780601f10610a1f57610100808354040283529160200191610a4a565b820191906000526020600020905b815481529060010190602001808311610a2d57829003601f168201915b505050505090506000610a6860408051602081019091526000815290565b9050805160001415610a7b575092915050565b815115610aad578082604051602001610a95929190611745565b60405160208183030381529060405292505050919050565b61075184610c21565b610515828260405180602001604052806000815250610cb1565b610ad982610649565b610af55760405162461bcd60e51b81526004016103419061186e565b600082815260066020908152604090912082516103e792840190610ebe565b60006001600160a01b0384163b15610c1657604051630a85bd0160e11b81526001600160a01b0385169063150b7a0290610b5890339089908890889060040161176b565b602060405180830381600087803b158015610b7257600080fd5b505af1925050508015610ba2575060408051601f3d908101601f19168201909252610b9f918101906111cf565b60015b610bfc573d808015610bd0576040519150601f19603f3d011682016040523d82523d6000602084013e610bd5565b606091505b508051610bf45760405162461bcd60e51b8152600401610341906117ce565b805181602001fd5b6001600160e01b031916630a85bd0160e11b149050610751565b506001949350505050565b6060610c2c82610649565b610c485760405162461bcd60e51b8152600401610341906118be565b6000610c5f60408051602081019091526000815290565b90506000815111610c7f5760405180602001604052806000815250610caa565b80610c8984610ce4565b604051602001610c9a929190611745565b6040516020818303038152906040525b9392505050565b610cbb8383610dfd565b610cc86000848484610b14565b6103e75760405162461bcd60e51b8152600401610341906117ce565b606081610d085750506040805180820190915260018152600360fc1b602082015290565b8160005b8115610d325780610d1c81611a29565b9150610d2b9050600a8361195b565b9150610d0c565b6000816001600160401b03811115610d5a57634e487b7160e01b600052604160045260246000fd5b6040519080825280601f01601f191660200182016040528015610d84576020820181803683370190505b5090505b841561075157610d9960018361196f565b9150610da6600a86611a44565b610db1906030611943565b60f81b818381518110610dd457634e487b7160e01b600052603260045260246000fd5b60200101906001600160f81b031916908160001a905350610df6600a8661195b565b9450610d88565b6001600160a01b038216610e235760405162461bcd60e51b81526004016103419061187e565b610e2c81610649565b15610e495760405162461bcd60e51b8152600401610341906117fe565b6001600160a01b0382166000908152600360205260408120805460019290610e72908490611943565b909155505060008181526002602052604080822080546001600160a01b0319166001600160a01b0386169081179091559051839290600080516020611aed833981519152908290a45050565b828054610eca906119cf565b90600052602060002090601f016020900481019282610eec5760008555610f32565b82601f10610f0557805160ff1916838001178555610f32565b82800160010185558215610f32579182015b82811115610f32578251825591602001919060010190610f17565b50610f3e929150610f42565b5090565b5b80821115610f3e5760008155600101610f43565b6000610f6a610f6584611918565b6118fc565b905082815260208101848484011115610f8257600080fd5b610f8d848285611997565b509392505050565b803561028281611aba565b803561028281611ace565b803561028281611ad6565b805161028281611ad6565b600082601f830112610fd257600080fd5b8135610751848260208601610f57565b803561028281611ae6565b600060208284031215610fff57600080fd5b60006107518484610f95565b6000806040838503121561101e57600080fd5b600061102a8585610f95565b925050602061103b85828601610f95565b9150509250929050565b60008060006060848603121561105a57600080fd5b60006110668686610f95565b935050602061107786828701610f95565b925050604061108886828701610fe2565b9150509250925092565b600080600080608085870312156110a857600080fd5b60006110b48787610f95565b94505060206110c587828801610f95565b93505060406110d687828801610fe2565b92505060608501356001600160401b038111156110f257600080fd5b6110fe87828801610fc1565b91505092959194509250565b6000806040838503121561111d57600080fd5b60006111298585610f95565b925050602061103b85828601610fa0565b6000806040838503121561114d57600080fd5b60006111598585610f95565b92505060208301356001600160401b0381111561117557600080fd5b61103b85828601610fc1565b6000806040838503121561119457600080fd5b60006111a08585610f95565b925050602061103b85828601610fe2565b6000602082840312156111c357600080fd5b60006107518484610fab565b6000602082840312156111e157600080fd5b60006107518484610fb6565b6000602082840312156111ff57600080fd5b60006107518484610fe2565b61121481611986565b82525050565b801515611214565b600061122c825190565b8084526020840193506112438185602086016119a3565b61124c81611ab0565b9093019392505050565b6000611260825190565b61126e8185602086016119a3565b9290920192915050565b603281526000602082017f4552433732313a207472616e7366657220746f206e6f6e20455243373231526581527131b2b4bb32b91034b6b83632b6b2b73a32b960711b602082015291505b5060400190565b602681526000602082017f4f776e61626c653a206e6577206f776e657220697320746865207a65726f206181526564647265737360d01b602082015291506112c3565b602581526000602082017f4552433732313a207472616e736665722066726f6d20696e636f72726563742081526437bbb732b960d91b602082015291506112c3565b601c81526000602082017b115490cdcc8c4e881d1bdad95b88185b1c9958591e481b5a5b9d195960221b815291505b5060200190565b602481526000602082017f4552433732313a207472616e7366657220746f20746865207a65726f206164648152637265737360e01b602082015291506112c3565b601981526000602082017822a9219b99189d1030b8383937bb32903a379031b0b63632b960391b8152915061137e565b602c81526000602082017f4552433732313a206f70657261746f7220717565727920666f72206e6f6e657881526b34b9ba32b73a103a37b5b2b760a11b602082015291506112c3565b603881526000602082017f4552433732313a20617070726f76652063616c6c6572206973206e6f74206f778152771b995c881b9bdc88185c1c1c9bdd995908199bdc88185b1b60421b602082015291506112c3565b602a81526000602082017f4552433732313a2062616c616e636520717565727920666f7220746865207a65815269726f206164647265737360b01b602082015291506112c3565b602981526000602082017f4552433732313a206f776e657220717565727920666f72206e6f6e657869737481526832b73a103a37b5b2b760b91b602082015291506112c3565b602e81526000602082017f45524337323155524953746f726167653a2055524920736574206f66206e6f6e81526d32bc34b9ba32b73a103a37b5b2b760911b602082015291506112c3565b60208082527f4552433732313a206d696e7420746f20746865207a65726f20616464726573739101908152600061137e565b603181526000602082017f45524337323155524953746f726167653a2055524920717565727920666f72208152703737b732bc34b9ba32b73a103a37b5b2b760791b602082015291506112c3565b602c81526000602082017f4552433732313a20617070726f76656420717565727920666f72206e6f6e657881526b34b9ba32b73a103a37b5b2b760a11b602082015291506112c3565b60208082527f4f776e61626c653a2063616c6c6572206973206e6f7420746865206f776e65729101908152600061137e565b602f81526000602082017f4552433732314d657461646174613a2055524920717565727920666f72206e6f81526e3732bc34b9ba32b73a103a37b5b2b760891b602082015291506112c3565b602181526000602082017f4552433732313a20617070726f76616c20746f2063757272656e74206f776e658152603960f91b602082015291506112c3565b603181526000602082017f4552433732313a207472616e736665722063616c6c6572206973206e6f74206f8152701ddb995c881b9bdc88185c1c1c9bdd9959607a1b602082015291506112c3565b80611214565b60006117518285611256565b91506107518284611256565b60208101610282828461120b565b60808101611779828761120b565b611786602083018661120b565b611793604083018561173f565b81810360608301526117a58184611222565b9695505050505050565b60208101610282828461121a565b60208082528101610caa8184611222565b6020808252810161028281611278565b60208082528101610282816112ca565b602080825281016102828161130d565b602080825281016102828161134f565b6020808252810161028281611385565b60208082528101610282816113c6565b60208082528101610282816113f6565b602080825281016102828161143f565b6020808252810161028281611494565b60208082528101610282816114db565b6020808252810161028281611521565b602080825281016102828161156c565b602080825281016102828161159e565b60208082528101610282816115ec565b6020808252810161028281611635565b6020808252810161028281611667565b60208082528101610282816116b3565b60208082528101610282816116f1565b60208101610282828461173f565b600061190760405190565b905061191382826119fc565b919050565b60006001600160401b0382111561193157611931611a9a565b61193a82611ab0565b60200192915050565b6000821982111561195657611956611a58565b500190565b60008261196a5761196a611a6e565b500490565b60008282101561198157611981611a58565b500390565b60006001600160a01b038216610282565b82818337506000910152565b60005b838110156119be5781810151838201526020016119a6565b8381111561054b5750506000910152565b6002810460018216806119e357607f821691505b602082108114156119f6576119f6611a84565b50919050565b611a0582611ab0565b81018181106001600160401b0382111715611a2257611a22611a9a565b6040525050565b6000600019821415611a3d57611a3d611a58565b5060010190565b600082611a5357611a53611a6e565b500690565b634e487b7160e01b600052601160045260246000fd5b634e487b7160e01b600052601260045260246000fd5b634e487b7160e01b600052602260045260246000fd5b634e487b7160e01b600052604160045260246000fd5b601f01601f191690565b611ac381611986565b811461064657600080fd5b801515611ac3565b6001600160e01b03198116611ac3565b80611ac356feddf252ad1be2c89b69c2b068fc378daa952ba7f163c4a11628f55a4df523b3efa2646970667358221220c888211cf1e552c6e84802d1ba53e5e6347713f8ba8d1c9b9112cb14925def6964736f6c634300080400334142434445464748494a4b4c4d4e4f505152535455565758595a6162636465666768696a6b6c6d6e6f707172737475767778797a303132333435363738392b2fa2646970667358221220c4db83a72928a71ba56eee52ff825dc854a16efb80c20bc5a2f8516e5eb9eb7264736f6c63430008040033",
  "linkReferences": {},
  "deployedLinkReferences": {}
}