{
  "_format": "hh-sol-artifact-1",
  "contractName": "Contract",
  "sourceName": "contracts/Contract.sol",
  "abi": [
    {
      "anonymous": false,
      "inputs": [
        {
          "indexed": false,
          "internalType": "bytes32",
          "name": "id",
          "type": "bytes32"
        },
        {
          "indexed": false,
          "internalType": "address",
          "name": "from",
          "type": "address"
        }
      ],
      "name": "FundsClaimed",
      "type": "event"
    },
    {
      "anonymous": false,
      "inputs": [
        {
          "indexed": false,
          "internalType": "bytes32",
          "name": "id",
          "type": "bytes32"
        },
        {
          "indexed": false,
          "internalType": "address",
          "name": "from",
          "type": "address"
        }
      ],
      "name": "FundsDonated",
      "type": "event"
    },
    {
      "anonymous": false,
      "inputs": [
        {
          "indexed": false,
          "internalType": "bytes32",
          "name": "id",
          "type": "bytes32"
        },
        {
          "indexed": false,
          "internalType": "address",
          "name": "from",
          "type": "address"
        }
      ],
      "name": "ProjectCreated",
      "type": "event"
    },
    {
      "inputs": [
        {
          "internalType": "bytes32",
          "name": "id",
          "type": "bytes32"
        }
      ],
      "name": "claimProjectFunds",
      "outputs": [],
      "stateMutability": "nonpayable",
      "type": "function"
    },
    {
      "inputs": [
        {
          "internalType": "string",
          "name": "title",
          "type": "string"
        },
        {
          "internalType": "string",
          "name": "description",
          "type": "string"
        },
        {
          "internalType": "uint256",
          "name": "requestedAmount",
          "type": "uint256"
        },
        {
          "internalType": "string",
          "name": "encodedImage",
          "type": "string"
        },
        {
          "internalType": "string",
          "name": "imageMeta",
          "type": "string"
        }
      ],
      "name": "createProject",
      "outputs": [],
      "stateMutability": "nonpayable",
      "type": "function"
    },
    {
      "inputs": [
        {
          "internalType": "bytes32",
          "name": "id",
          "type": "bytes32"
        }
      ],
      "name": "donateToProject",
      "outputs": [],
      "stateMutability": "payable",
      "type": "function"
    },
    {
      "inputs": [
        {
          "internalType": "bytes32",
          "name": "id",
          "type": "bytes32"
        }
      ],
      "name": "getProject",
      "outputs": [
        {
          "components": [
            {
              "internalType": "bytes32",
              "name": "id",
              "type": "bytes32"
            },
            {
              "internalType": "address",
              "name": "creator",
              "type": "address"
            },
            {
              "internalType": "string",
              "name": "title",
              "type": "string"
            },
            {
              "internalType": "uint256",
              "name": "requestedAmount",
              "type": "uint256"
            },
            {
              "internalType": "string",
              "name": "description",
              "type": "string"
            },
            {
              "internalType": "string",
              "name": "encodedImage",
              "type": "string"
            },
            {
              "internalType": "string",
              "name": "imageMeta",
              "type": "string"
            },
            {
              "internalType": "uint256",
              "name": "fundedAmount",
              "type": "uint256"
            },
            {
              "internalType": "uint256",
              "name": "claimedAmount",
              "type": "uint256"
            },
            {
              "internalType": "address[]",
              "name": "donators",
              "type": "address[]"
            },
            {
              "internalType": "uint256[]",
              "name": "donatedAmounts",
              "type": "uint256[]"
            }
          ],
          "internalType": "struct Contract.Project",
          "name": "",
          "type": "tuple"
        }
      ],
      "stateMutability": "view",
      "type": "function"
    },
    {
      "inputs": [],
      "name": "getProjects",
      "outputs": [
        {
          "components": [
            {
              "internalType": "bytes32",
              "name": "id",
              "type": "bytes32"
            },
            {
              "internalType": "address",
              "name": "creator",
              "type": "address"
            },
            {
              "internalType": "string",
              "name": "title",
              "type": "string"
            },
            {
              "internalType": "uint256",
              "name": "requestedAmount",
              "type": "uint256"
            },
            {
              "internalType": "string",
              "name": "description",
              "type": "string"
            },
            {
              "internalType": "string",
              "name": "encodedImage",
              "type": "string"
            },
            {
              "internalType": "string",
              "name": "imageMeta",
              "type": "string"
            },
            {
              "internalType": "uint256",
              "name": "fundedAmount",
              "type": "uint256"
            },
            {
              "internalType": "uint256",
              "name": "claimedAmount",
              "type": "uint256"
            },
            {
              "internalType": "address[]",
              "name": "donators",
              "type": "address[]"
            },
            {
              "internalType": "uint256[]",
              "name": "donatedAmounts",
              "type": "uint256[]"
            }
          ],
          "internalType": "struct Contract.Project[]",
          "name": "",
          "type": "tuple[]"
        }
      ],
      "stateMutability": "view",
      "type": "function"
    }
  ],
  "bytecode": "0x608060405234801561001057600080fd5b5061214d806100206000396000f3fe60806040526004361061004a5760003560e01c80631825f3911461004f5780632ff701111461007857806338bbef15146100a15780634b5f748a146100bd578063dcc60128146100fa575b600080fd5b34801561005b57600080fd5b506100766004803603810190610071919061146a565b610125565b005b34801561008457600080fd5b5061009f600480360381019061009a9190611493565b61032e565b005b6100bb60048036038101906100b6919061146a565b61072a565b005b3480156100c957600080fd5b506100e460048036038101906100df919061146a565b6108fe565b6040516100f19190611c33565b60405180910390f35b34801561010657600080fd5b5061010f610cd7565b60405161011c9190611b08565b60405180910390f35b600080600083815260200190815260200160002090508060010160009054906101000a900473ffffffffffffffffffffffffffffffffffffffff1673ffffffffffffffffffffffffffffffffffffffff163373ffffffffffffffffffffffffffffffffffffffff16146101cd576040517f08c379a00000000000000000000000000000000000000000000000000000000081526004016101c490611b53565b60405180910390fd5b6000816008015482600701546101e39190611d8e565b905060008111610228576040517f08c379a000000000000000000000000000000000000000000000000000000000815260040161021f90611b93565b60405180910390fd5b60003373ffffffffffffffffffffffffffffffffffffffff168260405161024e90611ac7565b60006040518083038185875af1925050503d806000811461028b576040519150601f19603f3d011682016040523d82523d6000602084013e610290565b606091505b50509050806102d4576040517f08c379a00000000000000000000000000000000000000000000000000000000081526004016102cb90611b73565b60405180910390fd5b818360080160008282546102e89190611d38565b925050819055507feff38a64c4ca4e4df09019118ef2dfa3e4d59b5c982b35299dac2f42f308a1f78433604051610320929190611b2a565b60405180910390a150505050565b60008989905011610374576040517f08c379a000000000000000000000000000000000000000000000000000000000815260040161036b90611bb3565b60405180910390fd5b600085116103b7576040517f08c379a00000000000000000000000000000000000000000000000000000000081526004016103ae90611bf3565b60405180910390fd5b60006103c16111d9565b90505b600080600083815260200190815260200160002060020180546103e690611e3b565b905011156103fd576103f66111d9565b90506103c4565b610405611209565b8181600001818152505033816020019073ffffffffffffffffffffffffffffffffffffffff16908173ffffffffffffffffffffffffffffffffffffffff16815250508a8a8080601f016020809104026020016040519081016040528093929190818152602001838380828437600081840152601f19601f82011690508083019250505050505050816040018190525088888080601f016020809104026020016040519081016040528093929190818152602001838380828437600081840152601f19601f8201169050808301925050505050505081608001819052508681606001818152505085858080601f016020809104026020016040519081016040528093929190818152602001838380828437600081840152601f19601f820116905080830192505050505050508160a0018190525083838080601f016020809104026020016040519081016040528093929190818152602001838380828437600081840152601f19601f820116905080830192505050505050508160c00181905250806000808481526020019081526020016000206000820151816000015560208201518160010160006101000a81548173ffffffffffffffffffffffffffffffffffffffff021916908373ffffffffffffffffffffffffffffffffffffffff160217905550604082015181600201908051906020019061060592919061127c565b5060608201518160030155608082015181600401908051906020019061062c92919061127c565b5060a082015181600501908051906020019061064992919061127c565b5060c082015181600601908051906020019061066692919061127c565b5060e082015181600701556101008201518160080155610120820151816009019080519060200190610699929190611302565b5061014082015181600a0190805190602001906106b792919061138c565b5090505060018290806001815401808255809150506001900390600052602060002001600090919091909150557f72d3574e35dc5b7a620c3cbcb395fec0497a0427c47762bfe8deba4688f6ff188233604051610715929190611b2a565b60405180910390a15050505050505050505050565b6000341161076d576040517f08c379a000000000000000000000000000000000000000000000000000000000815260040161076490611c13565b60405180910390fd5b600080600083815260200190815260200160002090508060010160009054906101000a900473ffffffffffffffffffffffffffffffffffffffff1673ffffffffffffffffffffffffffffffffffffffff163373ffffffffffffffffffffffffffffffffffffffff161415610816576040517f08c379a000000000000000000000000000000000000000000000000000000000815260040161080d90611bd3565b60405180910390fd5b3481600701600082825461082a9190611d38565b9250508190555080600901339080600181540180825580915050600190039060005260206000200160009091909190916101000a81548173ffffffffffffffffffffffffffffffffffffffff021916908373ffffffffffffffffffffffffffffffffffffffff16021790555080600a013490806001815401808255809150506001900390600052602060002001600090919091909150557f7abfb7da4a842d91a4fadb66a2ef0e5e3ad8f0b93855ec7955fce7ae928dec4f82336040516108f2929190611b2a565b60405180910390a15050565b610906611209565b60008083815260200190815260200160002060405180610160016040529081600082015481526020016001820160009054906101000a900473ffffffffffffffffffffffffffffffffffffffff1673ffffffffffffffffffffffffffffffffffffffff1673ffffffffffffffffffffffffffffffffffffffff16815260200160028201805461099490611e3b565b80601f01602080910402602001604051908101604052809291908181526020018280546109c090611e3b565b8015610a0d5780601f106109e257610100808354040283529160200191610a0d565b820191906000526020600020905b8154815290600101906020018083116109f057829003601f168201915b5050505050815260200160038201548152602001600482018054610a3090611e3b565b80601f0160208091040260200160405190810160405280929190818152602001828054610a5c90611e3b565b8015610aa95780601f10610a7e57610100808354040283529160200191610aa9565b820191906000526020600020905b815481529060010190602001808311610a8c57829003601f168201915b50505050508152602001600582018054610ac290611e3b565b80601f0160208091040260200160405190810160405280929190818152602001828054610aee90611e3b565b8015610b3b5780601f10610b1057610100808354040283529160200191610b3b565b820191906000526020600020905b815481529060010190602001808311610b1e57829003601f168201915b50505050508152602001600682018054610b5490611e3b565b80601f0160208091040260200160405190810160405280929190818152602001828054610b8090611e3b565b8015610bcd5780601f10610ba257610100808354040283529160200191610bcd565b820191906000526020600020905b815481529060010190602001808311610bb057829003601f168201915b50505050508152602001600782015481526020016008820154815260200160098201805480602002602001604051908101604052809291908181526020018280548015610c6f57602002820191906000526020600020905b8160009054906101000a900473ffffffffffffffffffffffffffffffffffffffff1673ffffffffffffffffffffffffffffffffffffffff1681526020019060010190808311610c25575b50505050508152602001600a8201805480602002602001604051908101604052809291908181526020018280548015610cc757602002820191906000526020600020905b815481526020019060010190808311610cb3575b5050505050815250509050919050565b6060600060018054905067ffffffffffffffff811115610d20577f4e487b7100000000000000000000000000000000000000000000000000000000600052604160045260246000fd5b604051908082528060200260200182016040528015610d5957816020015b610d46611209565b815260200190600190039081610d3e5790505b50905060005b6001805490508110156111d15760008060018381548110610da9577f4e487b7100000000000000000000000000000000000000000000000000000000600052603260045260246000fd5b9060005260206000200154815260200190815260200160002060405180610160016040529081600082015481526020016001820160009054906101000a900473ffffffffffffffffffffffffffffffffffffffff1673ffffffffffffffffffffffffffffffffffffffff1673ffffffffffffffffffffffffffffffffffffffff168152602001600282018054610e3e90611e3b565b80601f0160208091040260200160405190810160405280929190818152602001828054610e6a90611e3b565b8015610eb75780601f10610e8c57610100808354040283529160200191610eb7565b820191906000526020600020905b815481529060010190602001808311610e9a57829003601f168201915b5050505050815260200160038201548152602001600482018054610eda90611e3b565b80601f0160208091040260200160405190810160405280929190818152602001828054610f0690611e3b565b8015610f535780601f10610f2857610100808354040283529160200191610f53565b820191906000526020600020905b815481529060010190602001808311610f3657829003601f168201915b50505050508152602001600582018054610f6c90611e3b565b80601f0160208091040260200160405190810160405280929190818152602001828054610f9890611e3b565b8015610fe55780601f10610fba57610100808354040283529160200191610fe5565b820191906000526020600020905b815481529060010190602001808311610fc857829003601f168201915b50505050508152602001600682018054610ffe90611e3b565b80601f016020809104026020016040519081016040528092919081815260200182805461102a90611e3b565b80156110775780601f1061104c57610100808354040283529160200191611077565b820191906000526020600020905b81548152906001019060200180831161105a57829003601f168201915b5050505050815260200160078201548152602001600882015481526020016009820180548060200260200160405190810160405280929190818152602001828054801561111957602002820191906000526020600020905b8160009054906101000a900473ffffffffffffffffffffffffffffffffffffffff1673ffffffffffffffffffffffffffffffffffffffff16815260200190600101908083116110cf575b50505050508152602001600a820180548060200260200160405190810160405280929190818152602001828054801561117157602002820191906000526020600020905b81548152602001906001019080831161115d575b5050505050815250508282815181106111b3577f4e487b7100000000000000000000000000000000000000000000000000000000600052603260045260246000fd5b602002602001018190525080806111c990611e6d565b915050610d5f565b508091505090565b600044426040516020016111ee929190611adc565b60405160208183030381529060405280519060200120905090565b60405180610160016040528060008019168152602001600073ffffffffffffffffffffffffffffffffffffffff1681526020016060815260200160008152602001606081526020016060815260200160608152602001600081526020016000815260200160608152602001606081525090565b82805461128890611e3b565b90600052602060002090601f0160209004810192826112aa57600085556112f1565b82601f106112c357805160ff19168380011785556112f1565b828001600101855582156112f1579182015b828111156112f05782518255916020019190600101906112d5565b5b5090506112fe91906113d9565b5090565b82805482825590600052602060002090810192821561137b579160200282015b8281111561137a5782518260006101000a81548173ffffffffffffffffffffffffffffffffffffffff021916908373ffffffffffffffffffffffffffffffffffffffff16021790555091602001919060010190611322565b5b50905061138891906113d9565b5090565b8280548282559060005260206000209081019282156113c8579160200282015b828111156113c75782518255916020019190600101906113ac565b5b5090506113d591906113d9565b5090565b5b808211156113f25760008160009055506001016113da565b5090565b600081359050611405816120e9565b92915050565b60008083601f84011261141d57600080fd5b8235905067ffffffffffffffff81111561143657600080fd5b60208301915083600182028301111561144e57600080fd5b9250929050565b60008135905061146481612100565b92915050565b60006020828403121561147c57600080fd5b600061148a848285016113f6565b91505092915050565b600080600080600080600080600060a08a8c0312156114b157600080fd5b60008a013567ffffffffffffffff8111156114cb57600080fd5b6114d78c828d0161140b565b995099505060208a013567ffffffffffffffff8111156114f657600080fd5b6115028c828d0161140b565b975097505060406115158c828d01611455565b95505060608a013567ffffffffffffffff81111561153257600080fd5b61153e8c828d0161140b565b945094505060808a013567ffffffffffffffff81111561155d57600080fd5b6115698c828d0161140b565b92509250509295985092959850929598565b600061158783836115bf565b60208301905092915050565b600061159f838361187d565b905092915050565b60006115b38383611aa1565b60208301905092915050565b6115c881611dc2565b82525050565b6115d781611dc2565b82525050565b60006115e882611c85565b6115f28185611cd8565b93506115fd83611c55565b8060005b8381101561162e578151611615888261157b565b975061162083611cb1565b925050600181019050611601565b5085935050505092915050565b600061164682611c90565b6116508185611ce9565b93508360208202850161166285611c65565b8060005b8581101561169e578484038952815161167f8582611593565b945061168a83611cbe565b925060208a01995050600181019050611666565b50829750879550505050505092915050565b60006116bb82611c9b565b6116c58185611cfa565b93506116d083611c75565b8060005b838110156117015781516116e888826115a7565b97506116f383611ccb565b9250506001810190506116d4565b5085935050505092915050565b61171781611dd4565b82525050565b61172681611dd4565b82525050565b600061173782611ca6565b6117418185611d16565b9350611751818560208601611e08565b61175a81611f1e565b840191505092915050565b6000611772602983611d27565b915061177d82611f2f565b604082019050919050565b6000611795602883611d27565b91506117a082611f7e565b604082019050919050565b60006117b8601a83611d27565b91506117c382611fcd565b602082019050919050565b60006117db602083611d27565b91506117e682611ff6565b602082019050919050565b60006117fe601e83611d27565b91506118098261201f565b602082019050919050565b6000611821600083611d0b565b915061182c82612048565b600082019050919050565b6000611844602383611d27565b915061184f8261204b565b604082019050919050565b6000611867602683611d27565b91506118728261209a565b604082019050919050565b600061016083016000830151611896600086018261170e565b5060208301516118a960208601826115bf565b50604083015184820360408601526118c1828261172c565b91505060608301516118d66060860182611aa1565b50608083015184820360808601526118ee828261172c565b91505060a083015184820360a0860152611908828261172c565b91505060c083015184820360c0860152611922828261172c565b91505060e083015161193760e0860182611aa1565b5061010083015161194c610100860182611aa1565b5061012083015184820361012086015261196682826115dd565b91505061014083015184820361014086015261198282826116b0565b9150508091505092915050565b6000610160830160008301516119a8600086018261170e565b5060208301516119bb60208601826115bf565b50604083015184820360408601526119d3828261172c565b91505060608301516119e86060860182611aa1565b5060808301518482036080860152611a00828261172c565b91505060a083015184820360a0860152611a1a828261172c565b91505060c083015184820360c0860152611a34828261172c565b91505060e0830151611a4960e0860182611aa1565b50610100830151611a5e610100860182611aa1565b50610120830151848203610120860152611a7882826115dd565b915050610140830151848203610140860152611a9482826116b0565b9150508091505092915050565b611aaa81611dfe565b82525050565b611ac1611abc82611dfe565b611eb6565b82525050565b6000611ad282611814565b9150819050919050565b6000611ae88285611ab0565b602082019150611af88284611ab0565b6020820191508190509392505050565b60006020820190508181036000830152611b22818461163b565b905092915050565b6000604082019050611b3f600083018561171d565b611b4c60208301846115ce565b9392505050565b60006020820190508181036000830152611b6c81611765565b9050919050565b60006020820190508181036000830152611b8c81611788565b9050919050565b60006020820190508181036000830152611bac816117ab565b9050919050565b60006020820190508181036000830152611bcc816117ce565b9050919050565b60006020820190508181036000830152611bec816117f1565b9050919050565b60006020820190508181036000830152611c0c81611837565b9050919050565b60006020820190508181036000830152611c2c8161185a565b9050919050565b60006020820190508181036000830152611c4d818461198f565b905092915050565b6000819050602082019050919050565b6000819050602082019050919050565b6000819050602082019050919050565b600081519050919050565b600081519050919050565b600081519050919050565b600081519050919050565b6000602082019050919050565b6000602082019050919050565b6000602082019050919050565b600082825260208201905092915050565b600082825260208201905092915050565b600082825260208201905092915050565b600081905092915050565b600082825260208201905092915050565b600082825260208201905092915050565b6000611d4382611dfe565b9150611d4e83611dfe565b9250827fffffffffffffffffffffffffffffffffffffffffffffffffffffffffffffffff03821115611d8357611d82611ec0565b5b828201905092915050565b6000611d9982611dfe565b9150611da483611dfe565b925082821015611db757611db6611ec0565b5b828203905092915050565b6000611dcd82611dde565b9050919050565b6000819050919050565b600073ffffffffffffffffffffffffffffffffffffffff82169050919050565b6000819050919050565b60005b83811015611e26578082015181840152602081019050611e0b565b83811115611e35576000848401525b50505050565b60006002820490506001821680611e5357607f821691505b60208210811415611e6757611e66611eef565b5b50919050565b6000611e7882611dfe565b91507fffffffffffffffffffffffffffffffffffffffffffffffffffffffffffffffff821415611eab57611eaa611ec0565b5b600182019050919050565b6000819050919050565b7f4e487b7100000000000000000000000000000000000000000000000000000000600052601160045260246000fd5b7f4e487b7100000000000000000000000000000000000000000000000000000000600052602260045260246000fd5b6000601f19601f8301169050919050565b7f4f6e6c792070726f6a6563742063726561746f722063616e20636c61696d207460008201527f68652066756e64732e0000000000000000000000000000000000000000000000602082015250565b7f4661696c656420746f2073656e642066756e647320746f2070726f6a6563742060008201527f63726561746f722e000000000000000000000000000000000000000000000000602082015250565b7f5468657265206973206e6f7468696e6720746f20636c61696d2e000000000000600082015250565b7f50726f6a656374207469746c65206d757374206e6f7420626520656d7074792e600082015250565b7f596f752063616e6e6f7420646f6e61746520746f20796f757273656c662e0000600082015250565b50565b7f52657175657374656420616d6f756e742062652067726561746572207468616e60008201527f20302e0000000000000000000000000000000000000000000000000000000000602082015250565b7f446f6e6174696f6e2076616c7565206d7573742062652067726561746572207460008201527f68616e20302e0000000000000000000000000000000000000000000000000000602082015250565b6120f281611dd4565b81146120fd57600080fd5b50565b61210981611dfe565b811461211457600080fd5b5056fea2646970667358221220afe325b674a531168c09ac7bc7fbb6635ce1ea0e81cb00bf43f64a15270bddbf64736f6c63430008040033",
  "linkReferences": {},
  "deployedLinkReferences": {}
}