{
  "_format": "hh-sol-artifact-1",
  "contractName": "Contract",
  "sourceName": "contracts/Contract.sol",
  "abi": [
    {
      "anonymous": false,
      "inputs": [
        {
          "indexed": true,
          "internalType": "bytes32",
          "name": "id",
          "type": "bytes32"
        },
        {
          "indexed": false,
          "internalType": "address",
          "name": "from",
          "type": "address"
        }
      ],
      "name": "FundsClaimed",
      "type": "event"
    },
    {
      "anonymous": false,
      "inputs": [
        {
          "indexed": true,
          "internalType": "bytes32",
          "name": "id",
          "type": "bytes32"
        },
        {
          "indexed": false,
          "internalType": "address",
          "name": "from",
          "type": "address"
        }
      ],
      "name": "FundsDonated",
      "type": "event"
    },
    {
      "anonymous": false,
      "inputs": [
        {
          "indexed": false,
          "internalType": "bytes32",
          "name": "id",
          "type": "bytes32"
        },
        {
          "indexed": true,
          "internalType": "address",
          "name": "from",
          "type": "address"
        }
      ],
      "name": "ProjectCreated",
      "type": "event"
    },
    {
      "inputs": [
        {
          "internalType": "bytes32",
          "name": "id",
          "type": "bytes32"
        }
      ],
      "name": "claimProjectFunds",
      "outputs": [],
      "stateMutability": "nonpayable",
      "type": "function"
    },
    {
      "inputs": [
        {
          "internalType": "string",
          "name": "title",
          "type": "string"
        },
        {
          "internalType": "string",
          "name": "description",
          "type": "string"
        },
        {
          "internalType": "uint256",
          "name": "requestedAmount",
          "type": "uint256"
        },
        {
          "internalType": "string",
          "name": "encodedImage",
          "type": "string"
        },
        {
          "internalType": "string",
          "name": "imageMeta",
          "type": "string"
        }
      ],
      "name": "createProject",
      "outputs": [],
      "stateMutability": "nonpayable",
      "type": "function"
    },
    {
      "inputs": [
        {
          "internalType": "bytes32",
          "name": "id",
          "type": "bytes32"
        }
      ],
      "name": "donateToProject",
      "outputs": [],
      "stateMutability": "payable",
      "type": "function"
    },
    {
      "inputs": [
        {
          "internalType": "bytes32",
          "name": "id",
          "type": "bytes32"
        }
      ],
      "name": "getProject",
      "outputs": [
        {
          "components": [
            {
              "internalType": "bytes32",
              "name": "id",
              "type": "bytes32"
            },
            {
              "internalType": "address",
              "name": "creator",
              "type": "address"
            },
            {
              "internalType": "string",
              "name": "title",
              "type": "string"
            },
            {
              "internalType": "uint256",
              "name": "requestedAmount",
              "type": "uint256"
            },
            {
              "internalType": "string",
              "name": "description",
              "type": "string"
            },
            {
              "internalType": "string",
              "name": "encodedImage",
              "type": "string"
            },
            {
              "internalType": "string",
              "name": "imageMeta",
              "type": "string"
            },
            {
              "internalType": "uint256",
              "name": "fundedAmount",
              "type": "uint256"
            },
            {
              "internalType": "uint256",
              "name": "claimedAmount",
              "type": "uint256"
            },
            {
              "internalType": "address[]",
              "name": "donators",
              "type": "address[]"
            },
            {
              "internalType": "uint256[]",
              "name": "donatedAmounts",
              "type": "uint256[]"
            },
            {
              "internalType": "contract Qavah",
              "name": "qavah",
              "type": "address"
            }
          ],
          "internalType": "struct Contract.Project",
          "name": "",
          "type": "tuple"
        }
      ],
      "stateMutability": "view",
      "type": "function"
    },
    {
      "inputs": [],
      "name": "getProjects",
      "outputs": [
        {
          "components": [
            {
              "internalType": "bytes32",
              "name": "id",
              "type": "bytes32"
            },
            {
              "internalType": "address",
              "name": "creator",
              "type": "address"
            },
            {
              "internalType": "string",
              "name": "title",
              "type": "string"
            },
            {
              "internalType": "uint256",
              "name": "requestedAmount",
              "type": "uint256"
            },
            {
              "internalType": "string",
              "name": "description",
              "type": "string"
            },
            {
              "internalType": "string",
              "name": "encodedImage",
              "type": "string"
            },
            {
              "internalType": "string",
              "name": "imageMeta",
              "type": "string"
            },
            {
              "internalType": "uint256",
              "name": "fundedAmount",
              "type": "uint256"
            },
            {
              "internalType": "uint256",
              "name": "claimedAmount",
              "type": "uint256"
            },
            {
              "internalType": "address[]",
              "name": "donators",
              "type": "address[]"
            },
            {
              "internalType": "uint256[]",
              "name": "donatedAmounts",
              "type": "uint256[]"
            },
            {
              "internalType": "contract Qavah",
              "name": "qavah",
              "type": "address"
            }
          ],
          "internalType": "struct Contract.Project[]",
          "name": "",
          "type": "tuple[]"
        }
      ],
      "stateMutability": "view",
      "type": "function"
    },
    {
      "inputs": [],
      "name": "getQavahsCount",
      "outputs": [
        {
          "internalType": "uint256",
          "name": "",
          "type": "uint256"
        }
      ],
      "stateMutability": "view",
      "type": "function"
    }
  ],
  "bytecode": "0x608060405234801561001057600080fd5b50614230806100206000396000f3fe6080604052600436106200005c5760003560e01c80631825f39114620000615780632ff70111146200008857806338bbef1514620000ad5780634b5f748a14620000c45780636993297a1462000101578063dcc601281462000128575b600080fd5b3480156200006e57600080fd5b5062000086620000803660046200189b565b6200014f565b005b3480156200009557600080fd5b5062000086620000a7366004620018bc565b620002b2565b62000086620000be3660046200189b565b62000655565b348015620000d157600080fd5b50620000e9620000e33660046200189b565b6200085f565b604051620000f891906200230a565b60405180910390f35b3480156200010e57600080fd5b506200011962000c01565b604051620000f891906200226a565b3480156200013557600080fd5b506200014062000c80565b604051620000f8919062002257565b600081815260208190526040902060018101546001600160a01b03163314620001955760405162461bcd60e51b81526004016200018c906200227a565b60405180910390fd5b600081600801548260070154620001ad919062002371565b905060008111620001d25760405162461bcd60e51b81526004016200018c906200229e565b6000336001600160a01b031682604051620001ed906200210d565b60006040518083038185875af1925050503d80600081146200022c576040519150601f19603f3d011682016040523d82523d6000602084013e62000231565b606091505b5050905080620002555760405162461bcd60e51b81526004016200018c906200228c565b818360080160008282546200026b91906200231d565b92505081905550837feff38a64c4ca4e4df09019118ef2dfa3e4d59b5c982b35299dac2f42f308a1f733604051620002a4919062002223565b60405180910390a250505050565b87620002d25760405162461bcd60e51b81526004016200018c90620022c2565b60008511620002f55760405162461bcd60e51b81526004016200018c90620022e6565b6001546040516000916200030f91429190602001620021f9565b60405160208183030381529060405280519060200120905060008082815260200190815260200160002060020180546200034990620023f7565b1590506200036b5760405162461bcd60e51b81526004016200018c90620022b0565b6200037562001689565b8181523360208083019190915260408051601f8d018390048302810183019091528b8152908c908c908190840183828082843760009201919091525050505060408083019190915280516020601f8b01819004810282018101909252898152908a908a9081908401838280828437600092019190915250505050608082015260608101879052604080516020601f880181900481028201810190925286815290879087908190840183828082843760009201919091525050505060a0820152604080516020601f860181900481028201810190925284815290859085908190840183828082843760009201919091525050505060c08201526040516200047b90620016ff565b604051809103906000f08015801562000498573d6000803e3d6000fd5b506001600160a01b039081166101608301526000838152602081815260409182902084518155818501516001820180546001600160a01b0319169190951617909355908301518051849392620004f69260028501929101906200170d565b5060608201516003820155608082015180516200051e9160048401916020909101906200170d565b5060a082015180516200053c9160058401916020909101906200170d565b5060c082015180516200055a9160068401916020909101906200170d565b5060e08201516007820155610100820151600882015561012082015180516200058e9160098401916020909101906200179c565b506101408201518051620005ad91600a840191602090910190620017f4565b506101609190910151600b90910180546001600160a01b0319166001600160a01b039092169190911790556001805480820182556000919091527fb10e2d527612073b26eecdfd717e6a320cf44b4afac2b0732d9fcbe2b7fa0cf60182905560405133907f72d3574e35dc5b7a620c3cbcb395fec0497a0427c47762bfe8deba4688f6ff1890620006409085906200226a565b60405180910390a25050505050505050505050565b60003411620006785760405162461bcd60e51b81526004016200018c90620022f8565b600081815260208190526040902060018101546001600160a01b0316331415620006b65760405162461bcd60e51b81526004016200018c90620022d4565b34816007016000828254620006cc91906200231d565b9091555050600981018054600181810183556000838152602080822090930180546001600160a01b03191633179055600a85018054928301815581529182203491015590546200071c9062001103565b6200072f83600501846000015462001238565b6040516020016200074292919062002116565b60405160208183030381529060405290506000620007696200076362000c01565b62001103565b62000774836200140b565b6040516020016200078792919062002021565b60408051601f19818403018152919052600b8401549091506001600160a01b031663d204c45e33620007b9846200140b565b604051602001620007cb9190620020d9565b6040516020818303038152906040526040518363ffffffff1660e01b8152600401620007f992919062002233565b600060405180830381600087803b1580156200081457600080fd5b505af115801562000829573d6000803e3d6000fd5b50505050837f7abfb7da4a842d91a4fadb66a2ef0e5e3ad8f0b93855ec7955fce7ae928dec4f33604051620002a4919062002223565b6200086962001689565b600082815260208181526040918290208251610180810184528154815260018201546001600160a01b0316928101929092526002810180549293919291840191620008b490620023f7565b80601f0160208091040260200160405190810160405280929190818152602001828054620008e290620023f7565b8015620009335780601f10620009075761010080835404028352916020019162000933565b820191906000526020600020905b8154815290600101906020018083116200091557829003601f168201915b50505050508152602001600382015481526020016004820180546200095890620023f7565b80601f01602080910402602001604051908101604052809291908181526020018280546200098690620023f7565b8015620009d75780601f10620009ab57610100808354040283529160200191620009d7565b820191906000526020600020905b815481529060010190602001808311620009b957829003601f168201915b50505050508152602001600582018054620009f290620023f7565b80601f016020809104026020016040519081016040528092919081815260200182805462000a2090620023f7565b801562000a715780601f1062000a455761010080835404028352916020019162000a71565b820191906000526020600020905b81548152906001019060200180831162000a5357829003601f168201915b5050505050815260200160068201805462000a8c90620023f7565b80601f016020809104026020016040519081016040528092919081815260200182805462000aba90620023f7565b801562000b0b5780601f1062000adf5761010080835404028352916020019162000b0b565b820191906000526020600020905b81548152906001019060200180831162000aed57829003601f168201915b5050505050815260200160078201548152602001600882015481526020016009820180548060200260200160405190810160405280929190818152602001828054801562000b8357602002820191906000526020600020905b81546001600160a01b0316815260019091019060200180831162000b64575b50505050508152602001600a820180548060200260200160405190810160405280929190818152602001828054801562000bdd57602002820191906000526020600020905b81548152602001906001019080831162000bc8575b5050509183525050600b91909101546001600160a01b031660209091015292915050565b600080805b60015481101562000c7a576000806001838154811062000c3657634e487b7160e01b600052603260045260246000fd5b90600052602060002001548152602001908152602001600020600901805490508262000c6391906200231d565b91508062000c718162002422565b91505062000c06565b50919050565b6001546060906000906001600160401b0381111562000caf57634e487b7160e01b600052604160045260246000fd5b60405190808252806020026020018201604052801562000cec57816020015b62000cd862001689565b81526020019060019003908162000cce5790505b50905060005b60015481101562000c7a576000806001838154811062000d2257634e487b7160e01b600052603260045260246000fd5b6000918252602080832090910154835282810193909352604091820190208151610180810183528154815260018201546001600160a01b031693810193909352600281018054919284019162000d7890620023f7565b80601f016020809104026020016040519081016040528092919081815260200182805462000da690620023f7565b801562000df75780601f1062000dcb5761010080835404028352916020019162000df7565b820191906000526020600020905b81548152906001019060200180831162000dd957829003601f168201915b505050505081526020016003820154815260200160048201805462000e1c90620023f7565b80601f016020809104026020016040519081016040528092919081815260200182805462000e4a90620023f7565b801562000e9b5780601f1062000e6f5761010080835404028352916020019162000e9b565b820191906000526020600020905b81548152906001019060200180831162000e7d57829003601f168201915b5050505050815260200160058201805462000eb690620023f7565b80601f016020809104026020016040519081016040528092919081815260200182805462000ee490620023f7565b801562000f355780601f1062000f095761010080835404028352916020019162000f35565b820191906000526020600020905b81548152906001019060200180831162000f1757829003601f168201915b5050505050815260200160068201805462000f5090620023f7565b80601f016020809104026020016040519081016040528092919081815260200182805462000f7e90620023f7565b801562000fcf5780601f1062000fa35761010080835404028352916020019162000fcf565b820191906000526020600020905b81548152906001019060200180831162000fb157829003601f168201915b505050505081526020016007820154815260200160088201548152602001600982018054806020026020016040519081016040528092919081815260200182805480156200104757602002820191906000526020600020905b81546001600160a01b0316815260019091019060200180831162001028575b50505050508152602001600a8201805480602002602001604051908101604052809291908181526020018280548015620010a157602002820191906000526020600020905b8154815260200190600101908083116200108c575b5050509183525050600b91909101546001600160a01b03166020909101528251839083908110620010e257634e487b7160e01b600052603260045260246000fd5b60200260200101819052508080620010fa9062002422565b91505062000cf2565b606081620011285750506040805180820190915260018152600360fc1b602082015290565b8160005b81156200115857806200113f8162002422565b9150620011509050600a8362002338565b91506200112c565b6000816001600160401b038111156200118157634e487b7160e01b600052604160045260246000fd5b6040519080825280601f01601f191660200182016040528015620011ac576020820181803683370190505b5090505b84156200123057620011c460018362002371565b9150620011d3600a8662002439565b620011e09060306200231d565b60f81b8183815181106200120457634e487b7160e01b600052603260045260246000fd5b60200101906001600160f81b031916908160001a90535062001228600a8662002338565b9450620011b0565b949350505050565b604080516019808252610340820190925260609160009190816020015b60608152602001906001900390816200125557905050905060005b6005811015620013805760005b60058110156200136a5785620012996200076384600a6200234f565b620012c56001620012ac85600a62002371565b620012b8919062002371565b6200076390600a6200234f565b620012d86001620012ac87600a62002371565b620012e96200076386600a6200234f565b604051602001620012ff95949392919062001f43565b60408051601f1981840301815291905283826200131e8560056200234f565b6200132a91906200231d565b815181106200134957634e487b7160e01b600052603260045260246000fd5b60200260200101819052508080620013619062002422565b9150506200127d565b5080620013778162002422565b91505062001270565b506200138d81846200157c565b606060005b8251811015620014005781838281518110620013be57634e487b7160e01b600052603260045260246000fd5b6020026020010151604051602001620013d992919062001f27565b60405160208183030381529060405291508080620013f79062002422565b91505062001392565b509150505b92915050565b60608151600014156200142c57505060408051602081019091526000815290565b6000604051806060016040528060408152602001620041bb60409139905060006003845160026200145e91906200231d565b6200146a919062002338565b620014779060046200234f565b6001600160401b038111156200149d57634e487b7160e01b600052604160045260246000fd5b6040519080825280601f01601f191660200182016040528015620014c8576020820181803683370190505b509050600182016020820185865187015b8082101562001536576003820191508151603f8160121c168501518453600184019350603f81600c1c168501518453600184019350603f8160061c168501518453600184019350603f8116850151845360018401935050620014d9565b5050600386510660018114620015555760028114620015695762001571565b603d6001830353603d600283035362001571565b603d60018303535b509195945050505050565b6000600183516200158e919062002371565b90505b801562001684576000818451620015a9919062002371565b620015b5908462002439565b90506000848381518110620015da57634e487b7160e01b600052603260045260246000fd5b6020026020010151905060008583815181106200160757634e487b7160e01b600052603260045260246000fd5b60200260200101519050808685815181106200163357634e487b7160e01b600052603260045260246000fd5b6020026020010181905250818684815181106200166057634e487b7160e01b600052603260045260246000fd5b602002602001018190525050505080806200167b90620023dd565b91505062001591565b505050565b6040518061018001604052806000801916815260200160006001600160a01b0316815260200160608152602001600081526020016060815260200160608152602001606081526020016000815260200160008152602001606081526020016060815260200160006001600160a01b031681525090565b611d28806200249383390190565b8280546200171b90620023f7565b90600052602060002090601f0160209004810192826200173f57600085556200178a565b82601f106200175a57805160ff19168380011785556200178a565b828001600101855582156200178a579182015b828111156200178a5782518255916020019190600101906200176d565b506200179892915062001831565b5090565b8280548282559060005260206000209081019282156200178a579160200282015b828111156200178a57825182546001600160a01b0319166001600160a01b03909116178255602090920191600190910190620017bd565b8280548282559060005260206000209081019282156200178a57916020028201828111156200178a5782518255916020019190600101906200176d565b5b8082111562001798576000815560010162001832565b803562001405565b60008083601f8401126200186357600080fd5b5081356001600160401b038111156200187b57600080fd5b6020830191508360018202830111156200189457600080fd5b9250929050565b600060208284031215620018ae57600080fd5b600062001230848462001848565b600080600080600080600080600060a08a8c031215620018db57600080fd5b89356001600160401b03811115620018f257600080fd5b620019008c828d0162001850565b995099505060208a01356001600160401b038111156200191f57600080fd5b6200192d8c828d0162001850565b97509750506040620019428c828d0162001848565b95505060608a01356001600160401b038111156200195f57600080fd5b6200196d8c828d0162001850565b945094505060808a01356001600160401b038111156200198c57600080fd5b6200199a8c828d0162001850565b92509250509295985092959850929598565b6000620019ba8383620019e5565b505060200190565b6000620019d0838362001def565b9392505050565b6000620019ba838362001af3565b620019f0816200238b565b82525050565b600062001a01825190565b80845260209384019383018060005b8381101562001a3957815162001a278882620019ac565b97506020830192505060010162001a10565b509495945050505050565b600062001a4f825190565b8084526020840193508360208202850162001a6a8560200190565b8060005b8581101562001aa3578484038952815162001a8a8582620019c2565b94506020830160209a909a019992505060010162001a6e565b5091979650505050505050565b600062001abb825190565b80845260209384019383018060005b8381101562001a3957815162001ae18882620019d7565b97506020830192505060010162001aca565b80620019f0565b600062001b05825190565b62001b15818560208601620023aa565b9290920192915050565b620019f0816200239d565b600062001b35825190565b80845260208401935062001b4e818560208601620023aa565b601f01601f19169290920192915050565b6000815462001b6e81620023f7565b60018216801562001b88576001811462001b9a5762001bcc565b60ff1983168652818601935062001bcc565b60008581526020902060005b8381101562001bc45781548882015260019091019060200162001ba6565b838801955050505b50505092915050565b602981526000602082017f4f6e6c792070726f6a6563742063726561746f722063616e20636c61696d2074815268343290333ab732399760b91b602082015291505b5060400190565b602881526000602082017f4661696c656420746f2073656e642066756e647320746f2070726f6a6563742081526731b932b0ba37b91760c11b6020820152915062001c17565b61088b60f21b815260005b5060020190565b601a8152600060208201792a3432b9329034b9903737ba3434b733903a379031b630b4b69760311b815291505b5060200190565b600f81526000602082016e24b73a32b93730b61032b93937b91760891b8152915062001ca3565b60208082527f50726f6a656374207469746c65206d757374206e6f7420626520656d7074792e9101908152600062001ca3565b61227d60f01b8152600062001c6f565b607b60f81b815260005b5060010190565b601e81526000602082017f596f752063616e6e6f7420646f6e61746520746f20796f757273656c662e00008152915062001ca3565b602381526000602082017f52657175657374656420616d6f756e742062652067726561746572207468616e81526210181760e91b6020820152915062001c17565b61012960f51b8152600062001c6f565b602681526000602082017f446f6e6174696f6e2076616c7565206d757374206265206772656174657220748152653430b710181760d11b6020820152915062001c17565b805160009061018084019062001e06858262001af3565b50602083015162001e1b6020860182620019e5565b506040830151848203604086015262001e35828262001b2a565b915050606083015162001e4c606086018262001af3565b506080830151848203608086015262001e66828262001b2a565b91505060a083015184820360a086015262001e82828262001b2a565b91505060c083015184820360c086015262001e9e828262001b2a565b91505060e083015162001eb560e086018262001af3565b5061010083015162001ecc61010086018262001af3565b5061012083015184820361012086015262001ee88282620019f6565b91505061014083015184820361014086015262001f06828262001ab0565b91505061016083015162001f1f61016086018262001b1f565b509392505050565b600062001f35828562001afa565b915062001230828462001afa565b6c1e34b6b0b3b290343932b31e9160991b8152600d01600062001f67828862001b5f565b7f222077696474683d2236343022206865696768743d223336302220636c69702d81526b0e0c2e8d07a44d2dce6cae8560a31b6020820152602c01915062001fb0828762001afa565b915062001fbd8262001d9b565b915062001fcb828662001afa565b915062001fd88262001d9b565b915062001fe6828562001afa565b915062001ff38262001d9b565b915062002001828462001afa565b6b1294911f1e17b4b6b0b3b29f60a11b8152600c01979650505050505050565b60006200202e8262001d14565b6f226e616d65223a20225161766168202360801b8152601001915062002055828562001afa565b9150620020628262001c64565b7f226465736372697074696f6e223a202254686174206973206e696365222c00008152691134b6b0b3b2911d101160b11b601e8201527919185d184e9a5b5859d94bdcdd99cade1b5b0ed8985cd94d8d0b60321b60288201526042019150620020cc828462001afa565b9150620012308262001d04565b7f646174613a6170706c69636174696f6e2f6a736f6e3b6261736536342c0000008152601d016000620019d0828462001afa565b60008162001405565b7f3c7376672076696577426f783d2230203020363430203336302220786d6c6e7381527f3d22687474703a2f2f7777772e77332e6f72672f323030302f737667223e3c7360208201527f74796c653e696d616765207b206f7061636974793a20302e323b207d20696d6160408201527167653a6e74682d6f662d74797065282d6e2b60701b60608201526072016000620021b1828562001afa565b7814903d9037b830b1b4ba3c9d10189d903e9e17b9ba3cb6329f60391b81526019019150620021e1828462001afa565b651e17b9bb339f60d11b815291506006820162001230565b600062002207828562001af3565b60208201915062002219828462001af3565b5060200192915050565b60208101620014058284620019e5565b60408101620022438285620019e5565b818103602083015262001230818462001b2a565b60208082528101620019d0818462001a44565b6020810162001405828462001af3565b60208082528101620014058162001bd5565b60208082528101620014058162001c1e565b60208082528101620014058162001c76565b60208082528101620014058162001caa565b60208082528101620014058162001cd1565b60208082528101620014058162001d25565b60208082528101620014058162001d5a565b60208082528101620014058162001dab565b60208082528101620019d0818462001def565b6000821982111562002333576200233362002450565b500190565b6000826200234a576200234a62002466565b500490565b60008160001904831182151516156200236c576200236c62002450565b500290565b60008282101562002386576200238662002450565b500390565b60006001600160a01b03821662001405565b600062001405826200238b565b60005b83811015620023c7578181015183820152602001620023ad565b83811115620023d7576000848401525b50505050565b600081620023ef57620023ef62002450565b506000190190565b6002810460018216806200240c57607f821691505b6020821081141562000c7a5762000c7a6200247c565b600060001982141562001d1e5762001d1e62002450565b6000826200244b576200244b62002466565b500690565b634e487b7160e01b600052601160045260246000fd5b634e487b7160e01b600052601260045260246000fd5b634e487b7160e01b600052602260045260246000fdfe60806040523480156200001157600080fd5b5060408051808201825260058152640a2c2ecc2d60db1b60208083019182528351808501909452600384526228a0ab60e91b9084015281519192916200005a91600091620000e9565b50805162000070906001906020840190620000e9565b5050506200008d620000876200009360201b60201c565b62000097565b620001d6565b3390565b600780546001600160a01b038381166001600160a01b0319831681179093556040519116919082907f8be0079c531659141344cd1fd0a4f28419497f9722a3daafe3b4186f6b6457e090600090a35050565b828054620000f7906200018f565b90600052602060002090601f0160209004810192826200011b576000855562000166565b82601f106200013657805160ff191683800117855562000166565b8280016001018555821562000166579182015b828111156200016657825182559160200191906001019062000149565b506200017492915062000178565b5090565b5b8082111562000174576000815560010162000179565b600281046001821680620001a457607f821691505b60208210811415620001ba57620001ba620001c0565b50919050565b634e487b7160e01b600052602260045260246000fd5b611b4280620001e66000396000f3fe608060405234801561001057600080fd5b50600436106100db5760003560e01c806301ffc9a7146100e057806306fdde0314610109578063081812fc1461011e578063095ea7b31461013e57806323b872dd1461015357806342842e0e146101665780636352211e1461017957806370a082311461018c578063715018a6146101ac5780638da5cb5b146101b457806395d89b41146101bc578063a22cb465146101c4578063b88d4fde146101d7578063c87b56dd146101ea578063d204c45e146101fd578063e985e9c514610210578063f2fde38b14610223575b600080fd5b6100f36100ee3660046111b1565b610236565b60405161010091906117af565b60405180910390f35b610111610288565b60405161010091906117bd565b61013161012c3660046111ed565b61031a565b604051610100919061175d565b61015161014c366004611181565b610366565b005b610151610161366004611045565b6103ec565b610151610174366004611045565b61041d565b6101316101873660046111ed565b610438565b61019f61019a366004610fed565b61046d565b60405161010091906118ee565b6101516104b1565b6101316104ec565b6101116104fb565b6101516101d236600461110a565b61050a565b6101516101e5366004611092565b610519565b6101116101f83660046111ed565b610551565b61015161020b36600461113a565b61055c565b6100f361021e36600461100b565b6105ba565b610151610231366004610fed565b6105e8565b60006001600160e01b031982166380ac58cd60e01b148061026757506001600160e01b03198216635b5e139f60e01b145b8061028257506301ffc9a760e01b6001600160e01b03198316145b92915050565b606060008054610297906119cf565b80601f01602080910402602001604051908101604052809291908181526020018280546102c3906119cf565b80156103105780601f106102e557610100808354040283529160200191610310565b820191906000526020600020905b8154815290600101906020018083116102f357829003601f168201915b5050505050905090565b600061032582610649565b61034a5760405162461bcd60e51b81526004016103419061189e565b60405180910390fd5b506000908152600460205260409020546001600160a01b031690565b600061037182610438565b9050806001600160a01b0316836001600160a01b031614156103a55760405162461bcd60e51b8152600401610341906118ce565b336001600160a01b03821614806103c157506103c181336105ba565b6103dd5760405162461bcd60e51b81526004016103419061183e565b6103e78383610666565b505050565b6103f633826106d4565b6104125760405162461bcd60e51b8152600401610341906118de565b6103e7838383610759565b6103e783838360405180602001604052806000815250610519565b6000818152600260205260408120546001600160a01b0316806102825760405162461bcd60e51b81526004016103419061185e565b60006001600160a01b0382166104955760405162461bcd60e51b81526004016103419061184e565b506001600160a01b031660009081526003602052604090205490565b336104ba6104ec565b6001600160a01b0316146104e05760405162461bcd60e51b8152600401610341906118ae565b6104ea6000610869565b565b6007546001600160a01b031690565b606060018054610297906119cf565b6105153383836108bb565b5050565b61052333836106d4565b61053f5760405162461bcd60e51b8152600401610341906118de565b61054b8484848461095e565b50505050565b606061028282610991565b336105656104ec565b6001600160a01b03161461058b5760405162461bcd60e51b8152600401610341906118ae565b600061059660085490565b90506105a6600880546001019055565b6105b08382610ab6565b6103e78183610ad0565b6001600160a01b03918216600090815260056020908152604080832093909416825291909152205460ff1690565b336105f16104ec565b6001600160a01b0316146106175760405162461bcd60e51b8152600401610341906118ae565b6001600160a01b03811661063d5760405162461bcd60e51b8152600401610341906117de565b61064681610869565b50565b6000908152600260205260409020546001600160a01b0316151590565b600081815260046020526040902080546001600160a01b0319166001600160a01b038416908117909155819061069b82610438565b6001600160a01b03167f8c5be1e5ebec7d5bd14f71427d1e84f3dd0314c0f7b2291e5b200ac8c7c3b92560405160405180910390a45050565b60006106df82610649565b6106fb5760405162461bcd60e51b81526004016103419061182e565b600061070683610438565b9050806001600160a01b0316846001600160a01b031614806107415750836001600160a01b03166107368461031a565b6001600160a01b0316145b80610751575061075181856105ba565b949350505050565b826001600160a01b031661076c82610438565b6001600160a01b0316146107925760405162461bcd60e51b8152600401610341906117ee565b6001600160a01b0382166107b85760405162461bcd60e51b81526004016103419061180e565b6107c3600082610666565b6001600160a01b03831660009081526003602052604081208054600192906107ec90849061196f565b90915550506001600160a01b038216600090815260036020526040812080546001929061081a908490611943565b909155505060008181526002602052604080822080546001600160a01b0319166001600160a01b038681169182179092559151849391871691600080516020611aed83398151915291a4505050565b600780546001600160a01b038381166001600160a01b0319831681179093556040519116919082907f8be0079c531659141344cd1fd0a4f28419497f9722a3daafe3b4186f6b6457e090600090a35050565b816001600160a01b0316836001600160a01b031614156108ed5760405162461bcd60e51b81526004016103419061181e565b6001600160a01b0383811660008181526005602090815260408083209487168084529490915290819020805460ff1916851515179055517f17307eab39ab6107e8899845ad3d59bd9653f200f220920489ca2b5937696c31906109519085906117af565b60405180910390a3505050565b610969848484610759565b61097584848484610b14565b61054b5760405162461bcd60e51b8152600401610341906117ce565b606061099c82610649565b6109b85760405162461bcd60e51b81526004016103419061188e565b600082815260066020526040812080546109d1906119cf565b80601f01602080910402602001604051908101604052809291908181526020018280546109fd906119cf565b8015610a4a5780601f10610a1f57610100808354040283529160200191610a4a565b820191906000526020600020905b815481529060010190602001808311610a2d57829003601f168201915b505050505090506000610a6860408051602081019091526000815290565b9050805160001415610a7b575092915050565b815115610aad578082604051602001610a95929190611745565b60405160208183030381529060405292505050919050565b61075184610c21565b610515828260405180602001604052806000815250610cb1565b610ad982610649565b610af55760405162461bcd60e51b81526004016103419061186e565b600082815260066020908152604090912082516103e792840190610ebe565b60006001600160a01b0384163b15610c1657604051630a85bd0160e11b81526001600160a01b0385169063150b7a0290610b5890339089908890889060040161176b565b602060405180830381600087803b158015610b7257600080fd5b505af1925050508015610ba2575060408051601f3d908101601f19168201909252610b9f918101906111cf565b60015b610bfc573d808015610bd0576040519150601f19603f3d011682016040523d82523d6000602084013e610bd5565b606091505b508051610bf45760405162461bcd60e51b8152600401610341906117ce565b805181602001fd5b6001600160e01b031916630a85bd0160e11b149050610751565b506001949350505050565b6060610c2c82610649565b610c485760405162461bcd60e51b8152600401610341906118be565b6000610c5f60408051602081019091526000815290565b90506000815111610c7f5760405180602001604052806000815250610caa565b80610c8984610ce4565b604051602001610c9a929190611745565b6040516020818303038152906040525b9392505050565b610cbb8383610dfd565b610cc86000848484610b14565b6103e75760405162461bcd60e51b8152600401610341906117ce565b606081610d085750506040805180820190915260018152600360fc1b602082015290565b8160005b8115610d325780610d1c81611a29565b9150610d2b9050600a8361195b565b9150610d0c565b6000816001600160401b03811115610d5a57634e487b7160e01b600052604160045260246000fd5b6040519080825280601f01601f191660200182016040528015610d84576020820181803683370190505b5090505b841561075157610d9960018361196f565b9150610da6600a86611a44565b610db1906030611943565b60f81b818381518110610dd457634e487b7160e01b600052603260045260246000fd5b60200101906001600160f81b031916908160001a905350610df6600a8661195b565b9450610d88565b6001600160a01b038216610e235760405162461bcd60e51b81526004016103419061187e565b610e2c81610649565b15610e495760405162461bcd60e51b8152600401610341906117fe565b6001600160a01b0382166000908152600360205260408120805460019290610e72908490611943565b909155505060008181526002602052604080822080546001600160a01b0319166001600160a01b0386169081179091559051839290600080516020611aed833981519152908290a45050565b828054610eca906119cf565b90600052602060002090601f016020900481019282610eec5760008555610f32565b82601f10610f0557805160ff1916838001178555610f32565b82800160010185558215610f32579182015b82811115610f32578251825591602001919060010190610f17565b50610f3e929150610f42565b5090565b5b80821115610f3e5760008155600101610f43565b6000610f6a610f6584611918565b6118fc565b905082815260208101848484011115610f8257600080fd5b610f8d848285611997565b509392505050565b803561028281611aba565b803561028281611ace565b803561028281611ad6565b805161028281611ad6565b600082601f830112610fd257600080fd5b8135610751848260208601610f57565b803561028281611ae6565b600060208284031215610fff57600080fd5b60006107518484610f95565b6000806040838503121561101e57600080fd5b600061102a8585610f95565b925050602061103b85828601610f95565b9150509250929050565b60008060006060848603121561105a57600080fd5b60006110668686610f95565b935050602061107786828701610f95565b925050604061108886828701610fe2565b9150509250925092565b600080600080608085870312156110a857600080fd5b60006110b48787610f95565b94505060206110c587828801610f95565b93505060406110d687828801610fe2565b92505060608501356001600160401b038111156110f257600080fd5b6110fe87828801610fc1565b91505092959194509250565b6000806040838503121561111d57600080fd5b60006111298585610f95565b925050602061103b85828601610fa0565b6000806040838503121561114d57600080fd5b60006111598585610f95565b92505060208301356001600160401b0381111561117557600080fd5b61103b85828601610fc1565b6000806040838503121561119457600080fd5b60006111a08585610f95565b925050602061103b85828601610fe2565b6000602082840312156111c357600080fd5b60006107518484610fab565b6000602082840312156111e157600080fd5b60006107518484610fb6565b6000602082840312156111ff57600080fd5b60006107518484610fe2565b61121481611986565b82525050565b801515611214565b600061122c825190565b8084526020840193506112438185602086016119a3565b61124c81611ab0565b9093019392505050565b6000611260825190565b61126e8185602086016119a3565b9290920192915050565b603281526000602082017f4552433732313a207472616e7366657220746f206e6f6e20455243373231526581527131b2b4bb32b91034b6b83632b6b2b73a32b960711b602082015291505b5060400190565b602681526000602082017f4f776e61626c653a206e6577206f776e657220697320746865207a65726f206181526564647265737360d01b602082015291506112c3565b602581526000602082017f4552433732313a207472616e736665722066726f6d20696e636f72726563742081526437bbb732b960d91b602082015291506112c3565b601c81526000602082017b115490cdcc8c4e881d1bdad95b88185b1c9958591e481b5a5b9d195960221b815291505b5060200190565b602481526000602082017f4552433732313a207472616e7366657220746f20746865207a65726f206164648152637265737360e01b602082015291506112c3565b601981526000602082017822a9219b99189d1030b8383937bb32903a379031b0b63632b960391b8152915061137e565b602c81526000602082017f4552433732313a206f70657261746f7220717565727920666f72206e6f6e657881526b34b9ba32b73a103a37b5b2b760a11b602082015291506112c3565b603881526000602082017f4552433732313a20617070726f76652063616c6c6572206973206e6f74206f778152771b995c881b9bdc88185c1c1c9bdd995908199bdc88185b1b60421b602082015291506112c3565b602a81526000602082017f4552433732313a2062616c616e636520717565727920666f7220746865207a65815269726f206164647265737360b01b602082015291506112c3565b602981526000602082017f4552433732313a206f776e657220717565727920666f72206e6f6e657869737481526832b73a103a37b5b2b760b91b602082015291506112c3565b602e81526000602082017f45524337323155524953746f726167653a2055524920736574206f66206e6f6e81526d32bc34b9ba32b73a103a37b5b2b760911b602082015291506112c3565b60208082527f4552433732313a206d696e7420746f20746865207a65726f20616464726573739101908152600061137e565b603181526000602082017f45524337323155524953746f726167653a2055524920717565727920666f72208152703737b732bc34b9ba32b73a103a37b5b2b760791b602082015291506112c3565b602c81526000602082017f4552433732313a20617070726f76656420717565727920666f72206e6f6e657881526b34b9ba32b73a103a37b5b2b760a11b602082015291506112c3565b60208082527f4f776e61626c653a2063616c6c6572206973206e6f7420746865206f776e65729101908152600061137e565b602f81526000602082017f4552433732314d657461646174613a2055524920717565727920666f72206e6f81526e3732bc34b9ba32b73a103a37b5b2b760891b602082015291506112c3565b602181526000602082017f4552433732313a20617070726f76616c20746f2063757272656e74206f776e658152603960f91b602082015291506112c3565b603181526000602082017f4552433732313a207472616e736665722063616c6c6572206973206e6f74206f8152701ddb995c881b9bdc88185c1c1c9bdd9959607a1b602082015291506112c3565b80611214565b60006117518285611256565b91506107518284611256565b60208101610282828461120b565b60808101611779828761120b565b611786602083018661120b565b611793604083018561173f565b81810360608301526117a58184611222565b9695505050505050565b60208101610282828461121a565b60208082528101610caa8184611222565b6020808252810161028281611278565b60208082528101610282816112ca565b602080825281016102828161130d565b602080825281016102828161134f565b6020808252810161028281611385565b60208082528101610282816113c6565b60208082528101610282816113f6565b602080825281016102828161143f565b6020808252810161028281611494565b60208082528101610282816114db565b6020808252810161028281611521565b602080825281016102828161156c565b602080825281016102828161159e565b60208082528101610282816115ec565b6020808252810161028281611635565b6020808252810161028281611667565b60208082528101610282816116b3565b60208082528101610282816116f1565b60208101610282828461173f565b600061190760405190565b905061191382826119fc565b919050565b60006001600160401b0382111561193157611931611a9a565b61193a82611ab0565b60200192915050565b6000821982111561195657611956611a58565b500190565b60008261196a5761196a611a6e565b500490565b60008282101561198157611981611a58565b500390565b60006001600160a01b038216610282565b82818337506000910152565b60005b838110156119be5781810151838201526020016119a6565b8381111561054b5750506000910152565b6002810460018216806119e357607f821691505b602082108114156119f6576119f6611a84565b50919050565b611a0582611ab0565b81018181106001600160401b0382111715611a2257611a22611a9a565b6040525050565b6000600019821415611a3d57611a3d611a58565b5060010190565b600082611a5357611a53611a6e565b500690565b634e487b7160e01b600052601160045260246000fd5b634e487b7160e01b600052601260045260246000fd5b634e487b7160e01b600052602260045260246000fd5b634e487b7160e01b600052604160045260246000fd5b601f01601f191690565b611ac381611986565b811461064657600080fd5b801515611ac3565b6001600160e01b03198116611ac3565b80611ac356feddf252ad1be2c89b69c2b068fc378daa952ba7f163c4a11628f55a4df523b3efa2646970667358221220c888211cf1e552c6e84802d1ba53e5e6347713f8ba8d1c9b9112cb14925def6964736f6c634300080400334142434445464748494a4b4c4d4e4f505152535455565758595a6162636465666768696a6b6c6d6e6f707172737475767778797a303132333435363738392b2fa2646970667358221220f6134ee271016cb24a94cd04e891bfa108fd036dd826e4249744efda9cf8ed5564736f6c63430008040033",
  "linkReferences": {},
  "deployedLinkReferences": {}
}