{
  "_format": "hh-sol-artifact-1",
  "contractName": "Contract",
  "sourceName": "contracts/Contract.sol",
  "abi": [
    {
      "inputs": [
        {
          "internalType": "address",
          "name": "_tokenAddress",
          "type": "address"
        },
        {
          "internalType": "string",
          "name": "_siteUrl",
          "type": "string"
        },
        {
          "internalType": "address",
          "name": "_qavahNFTAddress",
          "type": "address"
        }
      ],
      "stateMutability": "nonpayable",
      "type": "constructor"
    },
    {
      "anonymous": false,
      "inputs": [
        {
          "indexed": true,
          "internalType": "bytes32",
          "name": "id",
          "type": "bytes32"
        },
        {
          "indexed": false,
          "internalType": "address",
          "name": "from",
          "type": "address"
        }
      ],
      "name": "FundsClaimed",
      "type": "event"
    },
    {
      "anonymous": false,
      "inputs": [
        {
          "indexed": true,
          "internalType": "bytes32",
          "name": "id",
          "type": "bytes32"
        },
        {
          "indexed": false,
          "internalType": "address",
          "name": "from",
          "type": "address"
        }
      ],
      "name": "FundsDonated",
      "type": "event"
    },
    {
      "anonymous": false,
      "inputs": [
        {
          "indexed": false,
          "internalType": "bytes32",
          "name": "id",
          "type": "bytes32"
        },
        {
          "indexed": true,
          "internalType": "address",
          "name": "from",
          "type": "address"
        }
      ],
      "name": "ProjectCreated",
      "type": "event"
    },
    {
      "inputs": [
        {
          "internalType": "bytes32",
          "name": "id",
          "type": "bytes32"
        }
      ],
      "name": "claimProjectFunds",
      "outputs": [],
      "stateMutability": "nonpayable",
      "type": "function"
    },
    {
      "inputs": [
        {
          "internalType": "string",
          "name": "title",
          "type": "string"
        },
        {
          "internalType": "string",
          "name": "description",
          "type": "string"
        },
        {
          "internalType": "uint256",
          "name": "requestedAmount",
          "type": "uint256"
        },
        {
          "internalType": "string",
          "name": "image",
          "type": "string"
        }
      ],
      "name": "createProject",
      "outputs": [],
      "stateMutability": "nonpayable",
      "type": "function"
    },
    {
      "inputs": [
        {
          "internalType": "bytes32",
          "name": "id",
          "type": "bytes32"
        },
        {
          "internalType": "uint256",
          "name": "amount",
          "type": "uint256"
        }
      ],
      "name": "donateToProject",
      "outputs": [],
      "stateMutability": "nonpayable",
      "type": "function"
    },
    {
      "inputs": [
        {
          "internalType": "bytes32",
          "name": "id",
          "type": "bytes32"
        }
      ],
      "name": "getProject",
      "outputs": [
        {
          "components": [
            {
              "internalType": "bytes32",
              "name": "id",
              "type": "bytes32"
            },
            {
              "internalType": "address",
              "name": "creator",
              "type": "address"
            },
            {
              "internalType": "string",
              "name": "title",
              "type": "string"
            },
            {
              "internalType": "uint256",
              "name": "requestedAmount",
              "type": "uint256"
            },
            {
              "internalType": "string",
              "name": "description",
              "type": "string"
            },
            {
              "internalType": "string",
              "name": "image",
              "type": "string"
            },
            {
              "internalType": "uint256",
              "name": "fundedAmount",
              "type": "uint256"
            },
            {
              "internalType": "uint256",
              "name": "claimedAmount",
              "type": "uint256"
            },
            {
              "internalType": "address[]",
              "name": "donators",
              "type": "address[]"
            },
            {
              "internalType": "uint256",
              "name": "createdAt",
              "type": "uint256"
            }
          ],
          "internalType": "struct Contract.Project",
          "name": "",
          "type": "tuple"
        }
      ],
      "stateMutability": "view",
      "type": "function"
    },
    {
      "inputs": [],
      "name": "getProjects",
      "outputs": [
        {
          "components": [
            {
              "internalType": "bytes32",
              "name": "id",
              "type": "bytes32"
            },
            {
              "internalType": "address",
              "name": "creator",
              "type": "address"
            },
            {
              "internalType": "string",
              "name": "title",
              "type": "string"
            },
            {
              "internalType": "uint256",
              "name": "requestedAmount",
              "type": "uint256"
            },
            {
              "internalType": "string",
              "name": "description",
              "type": "string"
            },
            {
              "internalType": "string",
              "name": "image",
              "type": "string"
            },
            {
              "internalType": "uint256",
              "name": "fundedAmount",
              "type": "uint256"
            },
            {
              "internalType": "uint256",
              "name": "claimedAmount",
              "type": "uint256"
            },
            {
              "internalType": "address[]",
              "name": "donators",
              "type": "address[]"
            },
            {
              "internalType": "uint256",
              "name": "createdAt",
              "type": "uint256"
            }
          ],
          "internalType": "struct Contract.Project[]",
          "name": "",
          "type": "tuple[]"
        }
      ],
      "stateMutability": "view",
      "type": "function"
    },
    {
      "inputs": [
        {
          "internalType": "address",
          "name": "userAddress",
          "type": "address"
        }
      ],
      "name": "getProjectsByUser",
      "outputs": [
        {
          "components": [
            {
              "internalType": "bytes32",
              "name": "id",
              "type": "bytes32"
            },
            {
              "internalType": "address",
              "name": "creator",
              "type": "address"
            },
            {
              "internalType": "string",
              "name": "title",
              "type": "string"
            },
            {
              "internalType": "uint256",
              "name": "requestedAmount",
              "type": "uint256"
            },
            {
              "internalType": "string",
              "name": "description",
              "type": "string"
            },
            {
              "internalType": "string",
              "name": "image",
              "type": "string"
            },
            {
              "internalType": "uint256",
              "name": "fundedAmount",
              "type": "uint256"
            },
            {
              "internalType": "uint256",
              "name": "claimedAmount",
              "type": "uint256"
            },
            {
              "internalType": "address[]",
              "name": "donators",
              "type": "address[]"
            },
            {
              "internalType": "uint256",
              "name": "createdAt",
              "type": "uint256"
            }
          ],
          "internalType": "struct Contract.Project[]",
          "name": "",
          "type": "tuple[]"
        }
      ],
      "stateMutability": "view",
      "type": "function"
    },
    {
      "inputs": [],
      "name": "getQavahsCount",
      "outputs": [
        {
          "internalType": "uint256",
          "name": "",
          "type": "uint256"
        }
      ],
      "stateMutability": "view",
      "type": "function"
    },
    {
      "inputs": [
        {
          "components": [
            {
              "internalType": "bytes32",
              "name": "id",
              "type": "bytes32"
            },
            {
              "internalType": "address",
              "name": "creator",
              "type": "address"
            },
            {
              "internalType": "string",
              "name": "title",
              "type": "string"
            },
            {
              "internalType": "uint256",
              "name": "requestedAmount",
              "type": "uint256"
            },
            {
              "internalType": "string",
              "name": "description",
              "type": "string"
            },
            {
              "internalType": "string",
              "name": "image",
              "type": "string"
            },
            {
              "internalType": "uint256",
              "name": "fundedAmount",
              "type": "uint256"
            },
            {
              "internalType": "uint256",
              "name": "claimedAmount",
              "type": "uint256"
            },
            {
              "internalType": "address[]",
              "name": "donators",
              "type": "address[]"
            },
            {
              "internalType": "uint256",
              "name": "createdAt",
              "type": "uint256"
            }
          ],
          "internalType": "struct Contract.Project",
          "name": "project",
          "type": "tuple"
        },
        {
          "internalType": "uint256",
          "name": "donationPercentage",
          "type": "uint256"
        },
        {
          "internalType": "uint256",
          "name": "donationAmount",
          "type": "uint256"
        },
        {
          "internalType": "uint256",
          "name": "fundedPercentage",
          "type": "uint256"
        }
      ],
      "name": "mintQavah",
      "outputs": [],
      "stateMutability": "nonpayable",
      "type": "function"
    },
    {
      "inputs": [],
      "name": "qavahNFTAddress",
      "outputs": [
        {
          "internalType": "address",
          "name": "",
          "type": "address"
        }
      ],
      "stateMutability": "view",
      "type": "function"
    },
    {
      "inputs": [],
      "name": "siteUrl",
      "outputs": [
        {
          "internalType": "string",
          "name": "",
          "type": "string"
        }
      ],
      "stateMutability": "view",
      "type": "function"
    },
    {
      "inputs": [],
      "name": "usdTokenAddress",
      "outputs": [
        {
          "internalType": "address",
          "name": "",
          "type": "address"
        }
      ],
      "stateMutability": "view",
      "type": "function"
    }
  ],
  "bytecode": "0x60806040523480156200001157600080fd5b506040516200562138038062005621833981810160405281019062000037919062000214565b82600060026101000a81548173ffffffffffffffffffffffffffffffffffffffff021916908373ffffffffffffffffffffffffffffffffffffffff160217905550816001908051906020019062000090929190620000db565b5080600260006101000a81548173ffffffffffffffffffffffffffffffffffffffff021916908373ffffffffffffffffffffffffffffffffffffffff16021790555050505062000441565b828054620000e9906200034c565b90600052602060002090601f0160209004810192826200010d576000855562000159565b82601f106200012857805160ff191683800117855562000159565b8280016001018555821562000159579182015b82811115620001585782518255916020019190600101906200013b565b5b5090506200016891906200016c565b5090565b5b80821115620001875760008160009055506001016200016d565b5090565b6000620001a26200019c84620002ac565b62000283565b905082815260208101848484011115620001bb57600080fd5b620001c884828562000316565b509392505050565b600081519050620001e18162000427565b92915050565b600082601f830112620001f957600080fd5b81516200020b8482602086016200018b565b91505092915050565b6000806000606084860312156200022a57600080fd5b60006200023a86828701620001d0565b935050602084015167ffffffffffffffff8111156200025857600080fd5b6200026686828701620001e7565b92505060406200027986828701620001d0565b9150509250925092565b60006200028f620002a2565b90506200029d828262000382565b919050565b6000604051905090565b600067ffffffffffffffff821115620002ca57620002c9620003e7565b5b620002d58262000416565b9050602081019050919050565b6000620002ef82620002f6565b9050919050565b600073ffffffffffffffffffffffffffffffffffffffff82169050919050565b60005b838110156200033657808201518184015260208101905062000319565b8381111562000346576000848401525b50505050565b600060028204905060018216806200036557607f821691505b602082108114156200037c576200037b620003b8565b5b50919050565b6200038d8262000416565b810181811067ffffffffffffffff82111715620003af57620003ae620003e7565b5b80604052505050565b7f4e487b7100000000000000000000000000000000000000000000000000000000600052602260045260246000fd5b7f4e487b7100000000000000000000000000000000000000000000000000000000600052604160045260246000fd5b6000601f19601f8301169050919050565b6200043281620002e2565b81146200043e57600080fd5b50565b6151d080620004516000396000f3fe608060405234801561001057600080fd5b50600436106100a95760003560e01c80637cc7e5ec116100715780637cc7e5ec14610152578063b4eddc721461016e578063dcc601281461019e578063deda0665146101bc578063e94576b9146101da578063f5330bb4146101f6576100a9565b80631825f391146100ae5780633eac8dac146100ca57806346575714146100e85780634b5f748a146101045780636993297a14610134575b600080fd5b6100c860048036038101906100c3919061333a565b610214565b005b6100d261045e565b6040516100df91906140a1565b60405180910390f35b61010260048036038101906100fd919061339f565b610484565b005b61011e6004803603810190610119919061333a565b6108ef565b60405161012b91906142eb565b60405180910390f35b61013c610be9565b604051610149919061430d565b60405180910390f35b61016c60048036038101906101679190613363565b610c86565b005b610188600480360381019061018391906132e8565b61131e565b604051610195919061414c565b60405180910390f35b6101a66117cd565b6040516101b3919061414c565b60405180910390f35b6101c4611bf0565b6040516101d191906140a1565b60405180910390f35b6101f460048036038101906101ef9190613458565b611c16565b005b6101fe611cf7565b60405161020b9190614189565b60405180910390f35b60006003600083815260200190815260200160002090508060010160009054906101000a900473ffffffffffffffffffffffffffffffffffffffff1673ffffffffffffffffffffffffffffffffffffffff163373ffffffffffffffffffffffffffffffffffffffff16146102bd576040517f08c379a00000000000000000000000000000000000000000000000000000000081526004016102b4906141eb565b60405180910390fd5b6000816007015482600601546102d39190614560565b905060008111610318576040517f08c379a000000000000000000000000000000000000000000000000000000000815260040161030f9061420b565b60405180910390fd5b600060029054906101000a900473ffffffffffffffffffffffffffffffffffffffff1673ffffffffffffffffffffffffffffffffffffffff1663a9059cbb33836040518363ffffffff1660e01b8152600401610375929190614123565b602060405180830381600087803b15801561038f57600080fd5b505af11580156103a3573d6000803e3d6000fd5b505050506040513d601f19601f820116820180604052508101906103c79190613311565b610406576040517f08c379a00000000000000000000000000000000000000000000000000000000081526004016103fd906142ab565b60405180910390fd5b8082600701600082825461041a919061447f565b92505081905550827feff38a64c4ca4e4df09019118ef2dfa3e4d59b5c982b35299dac2f42f308a1f73360405161045191906140a1565b60405180910390a2505050565b600060029054906101000a900473ffffffffffffffffffffffffffffffffffffffff1681565b600087879050116104ca576040517f08c379a00000000000000000000000000000000000000000000000000000000081526004016104c19061424b565b60405180910390fd5b600a670de0b6b3a7640000846104e091906144d5565b1015610521576040517f08c379a00000000000000000000000000000000000000000000000000000000081526004016105189061428b565b60405180910390fd5b60004260048054905060405160200161053b929190614075565b604051602081830303815290604052805190602001209050600060036000838152602001908152602001600020600201805461057690614652565b9050146105b8576040517f08c379a00000000000000000000000000000000000000000000000000000000081526004016105af9061422b565b60405180910390fd5b6105c0612e61565b8181600001818152505033816020019073ffffffffffffffffffffffffffffffffffffffff16908173ffffffffffffffffffffffffffffffffffffffff168152505088888080601f016020809104026020016040519081016040528093929190818152602001838380828437600081840152601f19601f82011690508083019250505050505050816040018190525086868080601f016020809104026020016040519081016040528093929190818152602001838380828437600081840152601f19601f8201169050808301925050505050505081608001819052508481606001818152505083838080601f016020809104026020016040519081016040528093929190818152602001838380828437600081840152601f19601f820116905080830192505050505050508160a00181905250428161012001818152505080600360008481526020019081526020016000206000820151816000015560208201518160010160006101000a81548173ffffffffffffffffffffffffffffffffffffffff021916908373ffffffffffffffffffffffffffffffffffffffff160217905550604082015181600201908051906020019061077f929190612ecd565b506060820151816003015560808201518160040190805190602001906107a6929190612ecd565b5060a08201518160050190805190602001906107c3929190612ecd565b5060c0820151816006015560e082015181600701556101008201518160080190805190602001906107f5929190612f53565b5061012082015181600901559050506004829080600181540180825580915050600190039060005260206000200160009091909190915055600560003373ffffffffffffffffffffffffffffffffffffffff1673ffffffffffffffffffffffffffffffffffffffff1681526020019081526020016000206000018290806001815401808255809150506001900390600052602060002001600090919091909150553373ffffffffffffffffffffffffffffffffffffffff167f72d3574e35dc5b7a620c3cbcb395fec0497a0427c47762bfe8deba4688f6ff18836040516108dc919061416e565b60405180910390a2505050505050505050565b6108f7612e61565b6003600083815260200190815260200160002060405180610140016040529081600082015481526020016001820160009054906101000a900473ffffffffffffffffffffffffffffffffffffffff1673ffffffffffffffffffffffffffffffffffffffff1673ffffffffffffffffffffffffffffffffffffffff16815260200160028201805461098690614652565b80601f01602080910402602001604051908101604052809291908181526020018280546109b290614652565b80156109ff5780601f106109d4576101008083540402835291602001916109ff565b820191906000526020600020905b8154815290600101906020018083116109e257829003601f168201915b5050505050815260200160038201548152602001600482018054610a2290614652565b80601f0160208091040260200160405190810160405280929190818152602001828054610a4e90614652565b8015610a9b5780601f10610a7057610100808354040283529160200191610a9b565b820191906000526020600020905b815481529060010190602001808311610a7e57829003601f168201915b50505050508152602001600582018054610ab490614652565b80601f0160208091040260200160405190810160405280929190818152602001828054610ae090614652565b8015610b2d5780601f10610b0257610100808354040283529160200191610b2d565b820191906000526020600020905b815481529060010190602001808311610b1057829003601f168201915b50505050508152602001600682015481526020016007820154815260200160088201805480602002602001604051908101604052809291908181526020018280548015610bcf57602002820191906000526020600020905b8160009054906101000a900473ffffffffffffffffffffffffffffffffffffffff1673ffffffffffffffffffffffffffffffffffffffff1681526020019060010190808311610b85575b505050505081526020016009820154815250509050919050565b6000806000905060005b600480549050811015610c7e576003600060048381548110610c3e577f4e487b7100000000000000000000000000000000000000000000000000000000600052603260045260246000fd5b906000526020600020015481526020019081526020016000206008018054905082610c69919061447f565b91508080610c76906146b5565b915050610bf3565b508091505090565b60006003600084815260200190815260200160002090508060030154816006015410610ce7576040517f08c379a0000000000000000000000000000000000000000000000000000000008152600401610cde906141ab565b60405180910390fd5b8060010160009054906101000a900473ffffffffffffffffffffffffffffffffffffffff1673ffffffffffffffffffffffffffffffffffffffff163373ffffffffffffffffffffffffffffffffffffffff161415610d7a576040517f08c379a0000000000000000000000000000000000000000000000000000000008152600401610d719061426b565b60405180910390fd5b600060029054906101000a900473ffffffffffffffffffffffffffffffffffffffff1673ffffffffffffffffffffffffffffffffffffffff166323b872dd3330856040518463ffffffff1660e01b8152600401610dd9939291906140bc565b602060405180830381600087803b158015610df357600080fd5b505af1158015610e07573d6000803e3d6000fd5b505050506040513d601f19601f82011682018060405250810190610e2b9190613311565b610e6a576040517f08c379a0000000000000000000000000000000000000000000000000000000008152600401610e61906142ab565b60405180910390fd5b60008160030154836064610e7e9190614506565b610e8891906144d5565b905060008111610ecd576040517f08c379a0000000000000000000000000000000000000000000000000000000008152600401610ec4906142cb565b60405180910390fd5b6000826003015460648460060154610ee59190614506565b610eef91906144d5565b905060006064846003015484610f059190614506565b610f0f91906144d5565b905080846006016000828254610f25919061447f565b9250508190555083600801339080600181540180825580915050600190039060005260206000200160009091909190916101000a81548173ffffffffffffffffffffffffffffffffffffffff021916908373ffffffffffffffffffffffffffffffffffffffff160217905550600560003373ffffffffffffffffffffffffffffffffffffffff1673ffffffffffffffffffffffffffffffffffffffff1681526020019081526020016000206000018690806001815401808255809150506001900390600052602060002001600090919091909150556112de8460405180610140016040529081600082015481526020016001820160009054906101000a900473ffffffffffffffffffffffffffffffffffffffff1673ffffffffffffffffffffffffffffffffffffffff1673ffffffffffffffffffffffffffffffffffffffff16815260200160028201805461107a90614652565b80601f01602080910402602001604051908101604052809291908181526020018280546110a690614652565b80156110f35780601f106110c8576101008083540402835291602001916110f3565b820191906000526020600020905b8154815290600101906020018083116110d657829003601f168201915b505050505081526020016003820154815260200160048201805461111690614652565b80601f016020809104026020016040519081016040528092919081815260200182805461114290614652565b801561118f5780601f106111645761010080835404028352916020019161118f565b820191906000526020600020905b81548152906001019060200180831161117257829003601f168201915b505050505081526020016005820180546111a890614652565b80601f01602080910402602001604051908101604052809291908181526020018280546111d490614652565b80156112215780601f106111f657610100808354040283529160200191611221565b820191906000526020600020905b81548152906001019060200180831161120457829003601f168201915b505050505081526020016006820154815260200160078201548152602001600882018054806020026020016040519081016040528092919081815260200182805480156112c357602002820191906000526020600020905b8160009054906101000a900473ffffffffffffffffffffffffffffffffffffffff1673ffffffffffffffffffffffffffffffffffffffff1681526020019060010190808311611279575b50505050508152602001600982015481525050848385611c16565b857f7abfb7da4a842d91a4fadb66a2ef0e5e3ad8f0b93855ec7955fce7ae928dec4f3360405161130e91906140a1565b60405180910390a2505050505050565b60606000600560008473ffffffffffffffffffffffffffffffffffffffff1673ffffffffffffffffffffffffffffffffffffffff1681526020019081526020016000206000018054806020026020016040519081016040528092919081815260200182805480156113ae57602002820191906000526020600020905b81548152602001906001019080831161139a575b505050505090506000815167ffffffffffffffff8111156113f8577f4e487b7100000000000000000000000000000000000000000000000000000000600052604160045260246000fd5b60405190808252806020026020018201604052801561143157816020015b61141e612e61565b8152602001906001900390816114165790505b50905060005b82518110156117c2576003600084838151811061147d577f4e487b7100000000000000000000000000000000000000000000000000000000600052603260045260246000fd5b6020026020010151815260200190815260200160002060405180610140016040529081600082015481526020016001820160009054906101000a900473ffffffffffffffffffffffffffffffffffffffff1673ffffffffffffffffffffffffffffffffffffffff1673ffffffffffffffffffffffffffffffffffffffff16815260200160028201805461150f90614652565b80601f016020809104026020016040519081016040528092919081815260200182805461153b90614652565b80156115885780601f1061155d57610100808354040283529160200191611588565b820191906000526020600020905b81548152906001019060200180831161156b57829003601f168201915b50505050508152602001600382015481526020016004820180546115ab90614652565b80601f01602080910402602001604051908101604052809291908181526020018280546115d790614652565b80156116245780601f106115f957610100808354040283529160200191611624565b820191906000526020600020905b81548152906001019060200180831161160757829003601f168201915b5050505050815260200160058201805461163d90614652565b80601f016020809104026020016040519081016040528092919081815260200182805461166990614652565b80156116b65780601f1061168b576101008083540402835291602001916116b6565b820191906000526020600020905b81548152906001019060200180831161169957829003601f168201915b5050505050815260200160068201548152602001600782015481526020016008820180548060200260200160405190810160405280929190818152602001828054801561175857602002820191906000526020600020905b8160009054906101000a900473ffffffffffffffffffffffffffffffffffffffff1673ffffffffffffffffffffffffffffffffffffffff168152602001906001019080831161170e575b505050505081526020016009820154815250508282815181106117a4577f4e487b7100000000000000000000000000000000000000000000000000000000600052603260045260246000fd5b602002602001018190525080806117ba906146b5565b915050611437565b508092505050919050565b6060600060048054905067ffffffffffffffff811115611816577f4e487b7100000000000000000000000000000000000000000000000000000000600052604160045260246000fd5b60405190808252806020026020018201604052801561184f57816020015b61183c612e61565b8152602001906001900390816118345790505b50905060005b600480549050811015611be85760036000600483815481106118a0577f4e487b7100000000000000000000000000000000000000000000000000000000600052603260045260246000fd5b9060005260206000200154815260200190815260200160002060405180610140016040529081600082015481526020016001820160009054906101000a900473ffffffffffffffffffffffffffffffffffffffff1673ffffffffffffffffffffffffffffffffffffffff1673ffffffffffffffffffffffffffffffffffffffff16815260200160028201805461193590614652565b80601f016020809104026020016040519081016040528092919081815260200182805461196190614652565b80156119ae5780601f10611983576101008083540402835291602001916119ae565b820191906000526020600020905b81548152906001019060200180831161199157829003601f168201915b50505050508152602001600382015481526020016004820180546119d190614652565b80601f01602080910402602001604051908101604052809291908181526020018280546119fd90614652565b8015611a4a5780601f10611a1f57610100808354040283529160200191611a4a565b820191906000526020600020905b815481529060010190602001808311611a2d57829003601f168201915b50505050508152602001600582018054611a6390614652565b80601f0160208091040260200160405190810160405280929190818152602001828054611a8f90614652565b8015611adc5780601f10611ab157610100808354040283529160200191611adc565b820191906000526020600020905b815481529060010190602001808311611abf57829003601f168201915b50505050508152602001600682015481526020016007820154815260200160088201805480602002602001604051908101604052809291908181526020018280548015611b7e57602002820191906000526020600020905b8160009054906101000a900473ffffffffffffffffffffffffffffffffffffffff1673ffffffffffffffffffffffffffffffffffffffff1681526020019060010190808311611b34575b50505050508152602001600982015481525050828281518110611bca577f4e487b7100000000000000000000000000000000000000000000000000000000600052603260045260246000fd5b60200260200101819052508080611be0906146b5565b915050611855565b508091505090565b600260009054906101000a900473ffffffffffffffffffffffffffffffffffffffff1681565b6000611c2485858585611d85565b90506000611c3782876000015186611ddc565b9050600260009054906101000a900473ffffffffffffffffffffffffffffffffffffffff1673ffffffffffffffffffffffffffffffffffffffff1663d204c45e33611c8184611eab565b604051602001611c919190613fae565b6040516020818303038152906040526040518363ffffffff1660e01b8152600401611cbd9291906140f3565b600060405180830381600087803b158015611cd757600080fd5b505af1158015611ceb573d6000803e3d6000fd5b50505050505050505050565b60018054611d0490614652565b80601f0160208091040260200160405190810160405280929190818152602001828054611d3090614652565b8015611d7d5780601f10611d5257610100808354040283529160200191611d7d565b820191906000526020600020905b815481529060010190602001808311611d6057829003601f168201915b505050505081565b6060611d968560a001518584612035565b611da3866000015161209c565b611db1876040015186612556565b604051602001611dc393929190613d6f565b6040516020818303038152906040529050949350505050565b6060611dee611de9610be9565b6125d2565b6001611dfc8560001c61277f565b604051602001611e0d929190613e43565b604051602081830303815290604052611e2586611eab565b611e41670de0b6b3a764000086611e3c91906144d5565b6125d2565b611e756064670de0b6b3a7640000606489611e5c9190614506565b611e6691906144d5565b611e709190614708565b6125d2565b611e7e426125d2565b604051602001611e9396959493929190613fd0565b60405160208183030381529060405290509392505050565b6060600082511415611ece57604051806020016040528060008152509050612030565b600060405180606001604052806040815260200161515b6040913990506000600360028551611efd919061447f565b611f0791906144d5565b6004611f139190614506565b67ffffffffffffffff811115611f52577f4e487b7100000000000000000000000000000000000000000000000000000000600052604160045260246000fd5b6040519080825280601f01601f191660200182016040528015611f845781602001600182028036833780820191505090505b509050600182016020820185865187015b80821015611ff0576003820191508151603f8160121c168501518453600184019350603f81600c1c168501518453600184019350603f8160061c168501518453600184019350603f8116850151845360018401935050611f95565b505060038651066001811461200c576002811461201f57612027565b603d6001830353603d6002830353612027565b603d60018303535b50505080925050505b919050565b606061204c600183612047919061447f565b6125d2565b612060848461205b919061447f565b6125d2565b8561207161206c610be9565b6125d2565b6040516020016120849493929190613f39565b60405160208183030381529060405290509392505050565b606060006120a8612805565b90506120b7818460001c612a00565b6000600582516120c791906144d5565b67ffffffffffffffff811115612106577f4e487b7100000000000000000000000000000000000000000000000000000000600052604160045260246000fd5b60405190808252806020026020018201604052801561213957816020015b60608152602001906001900390816121245790505b50905060005b825181101561234457828181518110612181577f4e487b7100000000000000000000000000000000000000000000000000000000600052603260045260246000fd5b602002602001015183600183612197919061447f565b815181106121ce577f4e487b7100000000000000000000000000000000000000000000000000000000600052603260045260246000fd5b6020026020010151846002846121e4919061447f565b8151811061221b577f4e487b7100000000000000000000000000000000000000000000000000000000600052603260045260246000fd5b602002602001015185600385612231919061447f565b81518110612268577f4e487b7100000000000000000000000000000000000000000000000000000000600052603260045260246000fd5b60200260200101518660048661227e919061447f565b815181106122b5577f4e487b7100000000000000000000000000000000000000000000000000000000600052603260045260246000fd5b60200260200101516040516020016122d1959493929190613da0565b604051602081830303815290604052826005836122ee91906144d5565b81518110612325577f4e487b7100000000000000000000000000000000000000000000000000000000600052603260045260246000fd5b602002602001018190525060058161233d919061447f565b905061213f565b50606060005b6005835161235891906144d5565b81101561254a57818360058361236e9190614506565b815181106123a5577f4e487b7100000000000000000000000000000000000000000000000000000000600052603260045260246000fd5b60200260200101518460016005856123bd9190614506565b6123c7919061447f565b815181106123fe577f4e487b7100000000000000000000000000000000000000000000000000000000600052603260045260246000fd5b60200260200101518560026005866124169190614506565b612420919061447f565b81518110612457577f4e487b7100000000000000000000000000000000000000000000000000000000600052603260045260246000fd5b602002602001015186600360058761246f9190614506565b612479919061447f565b815181106124b0577f4e487b7100000000000000000000000000000000000000000000000000000000600052603260045260246000fd5b60200260200101518760046005886124c89190614506565b6124d2919061447f565b81518110612509577f4e487b7100000000000000000000000000000000000000000000000000000000600052603260045260246000fd5b602002602001015160405160200161252696959493929190613deb565b60405160208183030381529060405291508080612542906146b5565b91505061234a565b50809350505050919050565b606082612575670de0b6b3a76400008461257091906144d5565b6125d2565b6125a96064670de0b6b3a76400006064876125909190614506565b61259a91906144d5565b6125a49190614708565b6125d2565b6040516020016125bb93929190613edc565b604051602081830303815290604052905092915050565b6060600082141561261a576040518060400160405280600181526020017f3000000000000000000000000000000000000000000000000000000000000000815250905061277a565b600082905060005b6000821461264c578080612635906146b5565b915050600a8261264591906144d5565b9150612622565b60008167ffffffffffffffff81111561268e577f4e487b7100000000000000000000000000000000000000000000000000000000600052604160045260246000fd5b6040519080825280601f01601f1916602001820160405280156126c05781602001600182028036833780820191505090505b5090505b60008514612773576001826126d99190614560565b9150600a856126e89190614708565b60306126f4919061447f565b60f81b818381518110612730577f4e487b7100000000000000000000000000000000000000000000000000000000600052603260045260246000fd5b60200101907effffffffffffffffffffffffffffffffffffffffffffffffffffffffffffff1916908160001a905350600a8561276c91906144d5565b94506126c4565b8093505050505b919050565b606060008214156127c7576040518060400160405280600481526020017f30783030000000000000000000000000000000000000000000000000000000008152509050612800565b600082905060005b600082146127f15780806127e2906146b5565b915050600882901c91506127cf565b6127fb8482612b67565b925050505b919050565b60606000600a90506000818261281b9190614506565b67ffffffffffffffff81111561285a577f4e487b7100000000000000000000000000000000000000000000000000000000600052604160045260246000fd5b60405190808252806020026020018201604052801561288d57816020015b60608152602001906001900390816128785790505b50905060005b828110156129f75760005b838110156129e3576128c6846064846128b79190614506565b6128c191906144d5565b6125d2565b6128fd856064600185896128da9190614560565b6128e49190614560565b6128ee9190614506565b6128f891906144d5565b6125d2565b6129348660646001878a6129119190614560565b61291b9190614560565b6129259190614506565b61292f91906144d5565b6125d2565b612954876064866129459190614506565b61294f91906144d5565b6125d2565b6040516020016129679493929190613e67565b604051602081830303815290604052838286856129849190614506565b61298e919061447f565b815181106129c5577f4e487b7100000000000000000000000000000000000000000000000000000000600052603260045260246000fd5b602002602001018190525080806129db906146b5565b91505061289e565b5080806129ef906146b5565b915050612893565b50809250505090565b600060018351612a109190614560565b90505b6000811115612b62576000818451612a2b9190614560565b83612a369190614708565b90506000848381518110612a73577f4e487b7100000000000000000000000000000000000000000000000000000000600052603260045260246000fd5b602002602001015190506000858381518110612ab8577f4e487b7100000000000000000000000000000000000000000000000000000000600052603260045260246000fd5b6020026020010151905080868581518110612afc577f4e487b7100000000000000000000000000000000000000000000000000000000600052603260045260246000fd5b602002602001018190525081868481518110612b41577f4e487b7100000000000000000000000000000000000000000000000000000000600052603260045260246000fd5b60200260200101819052505050508080612b5a90614628565b915050612a13565b505050565b606060006002836002612b7a9190614506565b612b84919061447f565b67ffffffffffffffff811115612bc3577f4e487b7100000000000000000000000000000000000000000000000000000000600052604160045260246000fd5b6040519080825280601f01601f191660200182016040528015612bf55781602001600182028036833780820191505090505b5090507f300000000000000000000000000000000000000000000000000000000000000081600081518110612c53577f4e487b7100000000000000000000000000000000000000000000000000000000600052603260045260246000fd5b60200101907effffffffffffffffffffffffffffffffffffffffffffffffffffffffffffff1916908160001a9053507f780000000000000000000000000000000000000000000000000000000000000081600181518110612cdd577f4e487b7100000000000000000000000000000000000000000000000000000000600052603260045260246000fd5b60200101907effffffffffffffffffffffffffffffffffffffffffffffffffffffffffffff1916908160001a90535060006001846002612d1d9190614506565b612d27919061447f565b90505b6001811115612e13577f3031323334353637383961626364656600000000000000000000000000000000600f861660108110612d8f577f4e487b7100000000000000000000000000000000000000000000000000000000600052603260045260246000fd5b1a60f81b828281518110612dcc577f4e487b7100000000000000000000000000000000000000000000000000000000600052603260045260246000fd5b60200101907effffffffffffffffffffffffffffffffffffffffffffffffffffffffffffff1916908160001a905350600485901c945080612e0c90614628565b9050612d2a565b5060008414612e57576040517f08c379a0000000000000000000000000000000000000000000000000000000008152600401612e4e906141cb565b60405180910390fd5b8091505092915050565b60405180610140016040528060008019168152602001600073ffffffffffffffffffffffffffffffffffffffff16815260200160608152602001600081526020016060815260200160608152602001600081526020016000815260200160608152602001600081525090565b828054612ed990614652565b90600052602060002090601f016020900481019282612efb5760008555612f42565b82601f10612f1457805160ff1916838001178555612f42565b82800160010185558215612f42579182015b82811115612f41578251825591602001919060010190612f26565b5b509050612f4f9190612fdd565b5090565b828054828255906000526020600020908101928215612fcc579160200282015b82811115612fcb5782518260006101000a81548173ffffffffffffffffffffffffffffffffffffffff021916908373ffffffffffffffffffffffffffffffffffffffff16021790555091602001919060010190612f73565b5b509050612fd99190612fdd565b5090565b5b80821115612ff6576000816000905550600101612fde565b5090565b600061300d6130088461434d565b614328565b9050808382526020820190508285602086028201111561302c57600080fd5b60005b8581101561305c578161304288826130a4565b84526020840193506020830192505060018101905061302f565b5050509392505050565b600061307961307484614379565b614328565b90508281526020810184848401111561309157600080fd5b61309c8482856145e6565b509392505050565b6000813590506130b3816150fe565b92915050565b600082601f8301126130ca57600080fd5b81356130da848260208601612ffa565b91505092915050565b6000815190506130f281615115565b92915050565b6000813590506131078161512c565b92915050565b60008083601f84011261311f57600080fd5b8235905067ffffffffffffffff81111561313857600080fd5b60208301915083600182028301111561315057600080fd5b9250929050565b600082601f83011261316857600080fd5b8135613178848260208601613066565b91505092915050565b6000610140828403121561319457600080fd5b61319f610140614328565b905060006131af848285016130f8565b60008301525060206131c3848285016130a4565b602083015250604082013567ffffffffffffffff8111156131e357600080fd5b6131ef84828501613157565b6040830152506060613203848285016132d3565b606083015250608082013567ffffffffffffffff81111561322357600080fd5b61322f84828501613157565b60808301525060a082013567ffffffffffffffff81111561324f57600080fd5b61325b84828501613157565b60a08301525060c061326f848285016132d3565b60c08301525060e0613283848285016132d3565b60e08301525061010082013567ffffffffffffffff8111156132a457600080fd5b6132b0848285016130b9565b610100830152506101206132c6848285016132d3565b6101208301525092915050565b6000813590506132e281615143565b92915050565b6000602082840312156132fa57600080fd5b6000613308848285016130a4565b91505092915050565b60006020828403121561332357600080fd5b6000613331848285016130e3565b91505092915050565b60006020828403121561334c57600080fd5b600061335a848285016130f8565b91505092915050565b6000806040838503121561337657600080fd5b6000613384858286016130f8565b9250506020613395858286016132d3565b9150509250929050565b60008060008060008060006080888a0312156133ba57600080fd5b600088013567ffffffffffffffff8111156133d457600080fd5b6133e08a828b0161310d565b9750975050602088013567ffffffffffffffff8111156133ff57600080fd5b61340b8a828b0161310d565b9550955050604061341e8a828b016132d3565b935050606088013567ffffffffffffffff81111561343b57600080fd5b6134478a828b0161310d565b925092505092959891949750929550565b6000806000806080858703121561346e57600080fd5b600085013567ffffffffffffffff81111561348857600080fd5b61349487828801613181565b94505060206134a5878288016132d3565b93505060406134b6878288016132d3565b92505060606134c7878288016132d3565b91505092959194509250565b60006134df83836134ff565b60208301905092915050565b60006134f78383613b5c565b905092915050565b61350881614594565b82525050565b61351781614594565b82525050565b6000613528826143df565b6135328185614425565b935061353d836143aa565b8060005b8381101561356e57815161355588826134d3565b97506135608361440b565b925050600181019050613541565b5085935050505092915050565b6000613586826143ea565b6135908185614436565b9350836020820285016135a2856143ba565b8060005b858110156135de57848403895281516135bf85826134eb565b94506135ca83614418565b925060208a019950506001810190506135a6565b50829750879550505050505092915050565b6135f9816145b2565b82525050565b613608816145b2565b82525050565b6000613619826143f5565b6136238185614447565b93506136338185602086016145f5565b80840191505092915050565b600061364a82614400565b6136548185614452565b93506136648185602086016145f5565b61366d816147f5565b840191505092915050565b600061368382614400565b61368d8185614463565b935061369d8185602086016145f5565b6136a6816147f5565b840191505092915050565b60006136bc82614400565b6136c68185614474565b93506136d68185602086016145f5565b80840191505092915050565b600081546136ef81614652565b6136f98186614474565b94506001821660008114613714576001811461372557613758565b60ff19831686528186019350613758565b61372e856143ca565b60005b8381101561375057815481890152600182019150602081019050613731565b838801955050505b50505092915050565b600061376e601383614463565b915061377982614806565b602082019050919050565b6000613791602583614474565b915061379c8261482f565b602582019050919050565b60006137b4602083614463565b91506137bf8261487e565b602082019050919050565b60006137d7602983614463565b91506137e2826148a7565b604082019050919050565b60006137fa602083614474565b9150613805826148f6565b602082019050919050565b600061381d601a83614463565b91506138288261491f565b602082019050919050565b6000613840601183614474565b915061384b82614948565b601182019050919050565b6000613863600f83614463565b915061386e82614971565b602082019050919050565b6000613886608083614474565b91506138918261499a565b608082019050919050565b60006138a9600d83614474565b91506138b482614a35565b600d82019050919050565b60006138cc601183614474565b91506138d782614a5e565b601182019050919050565b60006138ef602083614463565b91506138fa82614a87565b602082019050919050565b600061391361012083614474565b915061391e82614ab0565b61012082019050919050565b6000613937601283614474565b915061394282614c0a565b601282019050919050565b600061395a600183614474565b915061396582614c33565b600182019050919050565b600061397d600783614474565b915061398882614c5c565b600782019050919050565b60006139a0600583614474565b91506139ab82614c85565b600582019050919050565b60006139c3600283614474565b91506139ce82614cae565b600282019050919050565b60006139e6606883614474565b91506139f182614cd7565b606882019050919050565b6000613a09601e83614463565b9150613a1482614d72565b602082019050919050565b6000613a2c601d83614474565b9150613a3782614d9b565b601d82019050919050565b6000613a4f602483614463565b9150613a5a82614dc4565b604082019050919050565b6000613a72600b83614474565b9150613a7d82614e13565b600b82019050919050565b6000613a9661017883614474565b9150613aa182614e3c565b61017882019050919050565b6000613aba601083614474565b9150613ac58261500b565b601082019050919050565b6000613add602883614474565b9150613ae882615034565b602882019050919050565b6000613b00601083614463565b9150613b0b82615083565b602082019050919050565b6000613b23600f83614463565b9150613b2e826150ac565b602082019050919050565b6000613b46600283614474565b9150613b51826150d5565b600282019050919050565b600061014083016000830151613b7560008601826135f0565b506020830151613b8860208601826134ff565b5060408301518482036040860152613ba0828261363f565b9150506060830151613bb56060860182613d3a565b5060808301518482036080860152613bcd828261363f565b91505060a083015184820360a0860152613be7828261363f565b91505060c0830151613bfc60c0860182613d3a565b5060e0830151613c0f60e0860182613d3a565b50610100830151848203610100860152613c29828261351d565b915050610120830151613c40610120860182613d3a565b508091505092915050565b600061014083016000830151613c6460008601826135f0565b506020830151613c7760208601826134ff565b5060408301518482036040860152613c8f828261363f565b9150506060830151613ca46060860182613d3a565b5060808301518482036080860152613cbc828261363f565b91505060a083015184820360a0860152613cd6828261363f565b91505060c0830151613ceb60c0860182613d3a565b5060e0830151613cfe60e0860182613d3a565b50610100830151848203610100860152613d18828261351d565b915050610120830151613d2f610120860182613d3a565b508091505092915050565b613d43816145dc565b82525050565b613d52816145dc565b82525050565b613d69613d64826145dc565b6146fe565b82525050565b6000613d7b828661360e565b9150613d87828561360e565b9150613d93828461360e565b9150819050949350505050565b6000613dac828861360e565b9150613db8828761360e565b9150613dc4828661360e565b9150613dd0828561360e565b9150613ddc828461360e565b91508190509695505050505050565b6000613df7828961360e565b9150613e03828861360e565b9150613e0f828761360e565b9150613e1b828661360e565b9150613e27828561360e565b9150613e33828461360e565b9150819050979650505050505050565b6000613e4f82856136e2565b9150613e5b82846136b1565b91508190509392505050565b6000613e72826137ed565b9150613e7e82876136b1565b9150613e8982613b39565b9150613e9582866136b1565b9150613ea082613b39565b9150613eac82856136b1565b9150613eb782613b39565b9150613ec382846136b1565b9150613ece82613993565b915081905095945050505050565b6000613ee782613879565b9150613ef382866136b1565b9150613efe826139d9565b9150613f0a82856136b1565b9150613f158261394d565b9150613f2182846136b1565b9150613f2c8261392a565b9150819050949350505050565b6000613f4482613905565b9150613f5082876136b1565b9150613f5b82613833565b9150613f6782866136b1565b9150613f7282613ad0565b9150613f7e82856136b1565b9150613f8982613a88565b9150613f9582846136b1565b9150613fa082613970565b915081905095945050505050565b6000613fb982613a1f565b9150613fc582846136b1565b915081905092915050565b6000613fdb82613aad565b9150613fe782896136b1565b9150613ff2826138bf565b9150613ffe828861360e565b915061400982613784565b915061401582876136b1565b915061402082613a65565b915061402c82866136b1565b91506140378261394d565b915061404382856136b1565b915061404e8261389c565b915061405a82846136b1565b9150614065826139b6565b9150819050979650505050505050565b60006140818285613d58565b6020820191506140918284613d58565b6020820191508190509392505050565b60006020820190506140b6600083018461350e565b92915050565b60006060820190506140d1600083018661350e565b6140de602083018561350e565b6140eb6040830184613d49565b949350505050565b6000604082019050614108600083018561350e565b818103602083015261411a8184613678565b90509392505050565b6000604082019050614138600083018561350e565b6141456020830184613d49565b9392505050565b60006020820190508181036000830152614166818461357b565b905092915050565b600060208201905061418360008301846135ff565b92915050565b600060208201905081810360008301526141a38184613678565b905092915050565b600060208201905081810360008301526141c481613761565b9050919050565b600060208201905081810360008301526141e4816137a7565b9050919050565b60006020820190508181036000830152614204816137ca565b9050919050565b6000602082019050818103600083015261422481613810565b9050919050565b6000602082019050818103600083015261424481613856565b9050919050565b60006020820190508181036000830152614264816138e2565b9050919050565b60006020820190508181036000830152614284816139fc565b9050919050565b600060208201905081810360008301526142a481613a42565b9050919050565b600060208201905081810360008301526142c481613af3565b9050919050565b600060208201905081810360008301526142e481613b16565b9050919050565b600060208201905081810360008301526143058184613c4b565b905092915050565b60006020820190506143226000830184613d49565b92915050565b6000614332614343565b905061433e8282614684565b919050565b6000604051905090565b600067ffffffffffffffff821115614368576143676147c6565b5b602082029050602081019050919050565b600067ffffffffffffffff821115614394576143936147c6565b5b61439d826147f5565b9050602081019050919050565b6000819050602082019050919050565b6000819050602082019050919050565b60008190508160005260206000209050919050565b600081519050919050565b600081519050919050565b600081519050919050565b600081519050919050565b6000602082019050919050565b6000602082019050919050565b600082825260208201905092915050565b600082825260208201905092915050565b600081905092915050565b600082825260208201905092915050565b600082825260208201905092915050565b600081905092915050565b600061448a826145dc565b9150614495836145dc565b9250827fffffffffffffffffffffffffffffffffffffffffffffffffffffffffffffffff038211156144ca576144c9614739565b5b828201905092915050565b60006144e0826145dc565b91506144eb836145dc565b9250826144fb576144fa614768565b5b828204905092915050565b6000614511826145dc565b915061451c836145dc565b9250817fffffffffffffffffffffffffffffffffffffffffffffffffffffffffffffffff048311821515161561455557614554614739565b5b828202905092915050565b600061456b826145dc565b9150614576836145dc565b92508282101561458957614588614739565b5b828203905092915050565b600061459f826145bc565b9050919050565b60008115159050919050565b6000819050919050565b600073ffffffffffffffffffffffffffffffffffffffff82169050919050565b6000819050919050565b82818337600083830152505050565b60005b838110156146135780820151818401526020810190506145f8565b83811115614622576000848401525b50505050565b6000614633826145dc565b9150600082141561464757614646614739565b5b600182039050919050565b6000600282049050600182168061466a57607f821691505b6020821081141561467e5761467d614797565b5b50919050565b61468d826147f5565b810181811067ffffffffffffffff821117156146ac576146ab6147c6565b5b80604052505050565b60006146c0826145dc565b91507fffffffffffffffffffffffffffffffffffffffffffffffffffffffffffffffff8214156146f3576146f2614739565b5b600182019050919050565b6000819050919050565b6000614713826145dc565b915061471e836145dc565b92508261472e5761472d614768565b5b828206905092915050565b7f4e487b7100000000000000000000000000000000000000000000000000000000600052601160045260246000fd5b7f4e487b7100000000000000000000000000000000000000000000000000000000600052601260045260246000fd5b7f4e487b7100000000000000000000000000000000000000000000000000000000600052602260045260246000fd5b7f4e487b7100000000000000000000000000000000000000000000000000000000600052604160045260246000fd5b6000601f19601f8301169050919050565b7f43616d706169676e20697320636c6f7365642e00000000000000000000000000600082015250565b7f222c22696d616765223a22646174613a696d6167652f7376672b786d6c3b626160008201527f736536342c000000000000000000000000000000000000000000000000000000602082015250565b7f537472696e67733a20686578206c656e67746820696e73756666696369656e74600082015250565b7f4f6e6c792070726f6a6563742063726561746f722063616e20636c61696d207460008201527f68652066756e64732e0000000000000000000000000000000000000000000000602082015250565b7f3c75736520687265663d2223612220636c69702d706174683d22696e73657428600082015250565b7f5468657265206973206e6f7468696e6720746f20636c61696d2e000000000000600082015250565b7f293a6e74682d6f662d74797065282d6e2b000000000000000000000000000000600082015250565b7f496e7465726e616c206572726f722e0000000000000000000000000000000000600082015250565b7f3c666f726569676e4f626a65637420783d2236302220793d223237302220776960008201527f6474683d2232383022206865696768743d223534223e3c7020786d6c6e733d2260208201527f687474703a2f2f7777772e77332e6f72672f313939392f7868746d6c2220737460408201527f796c653d226d617267696e3a303b666f6e742d7765696768743a626f6c64223e606082015250565b7f2c2274696d657374616d70223a00000000000000000000000000000000000000600082015250565b7f222c226465736372697074696f6e223a22000000000000000000000000000000600082015250565b7f50726f6a656374207469746c65206d757374206e6f7420626520656d7074792e600082015250565b7f3c7376672076696577426f783d2230203020343030203430302220786d6c6e7360008201527f3d22687474703a2f2f7777772e77332e6f72672f323030302f737667223e3c6460208201527f6566733e3c7374796c653e40696d706f72742075726c282268747470733a2f2f60408201527f666f6e74732e676f6f676c65617069732e636f6d2f637373323f66616d696c7960608201527f3d53706163652b47726f7465736b3a77676874403430303b37303022293b2a7b60808201527f636f6c6f723a233631316636397d746578742c707b666f6e742d73697a653a3160a08201527f3470783b666f6e742d66616d696c793a2253706163652047726f7465736b222c60c08201527f73616e732d73657269663b66696c6c3a63757272656e74436f6c6f727d75736560e08201527f7b6f7061636974793a20302e327d7573653a6e74682d6f662d74797065286e2b61010082015250565b7f20635553443c2f746578743e3c2f7376673e0000000000000000000000000000600082015250565b7f2e00000000000000000000000000000000000000000000000000000000000000600082015250565b7f3c2f746578743e00000000000000000000000000000000000000000000000000600082015250565b7f2529222f3e000000000000000000000000000000000000000000000000000000600082015250565b7f207d000000000000000000000000000000000000000000000000000000000000600082015250565b7f3c2f703e3c2f666f726569676e4f626a6563743e3c74657874207374796c653d60008201527f22666f6e742d73697a653a313270783b666f6e742d7765696768743a206e6f7260208201527f6d616c2220783d223334302220793d223334302220746578742d616e63686f7260408201527f3d22656e64223e2b000000000000000000000000000000000000000000000000606082015250565b7f596f752063616e6e6f7420646f6e61746520746f20796f757273656c662e0000600082015250565b7f646174613a6170706c69636174696f6e2f6a736f6e3b6261736536342c000000600082015250565b7f52657175657374656420616d6f756e74206265206174206c656173742031302060008201527f5553442e00000000000000000000000000000000000000000000000000000000602082015250565b7f222c22616d6f756e74223a000000000000000000000000000000000000000000600082015250565b7f2220783d2234302220793d223734222077696474683d2233323022206865696760008201527f68743d22313830222f3e3c2f646566733e3c7265637420783d2234302220793d60208201527f223430222077696474683d2233323022206865696768743d223334222066696c60408201527f6c3d2223666263633563222f3e3c7265637420783d2234302220793d2232353460608201527f222077696474683d2233323022206865696768743d22313036222066696c6c3d60808201527f2223666263633563222f3e3c7265637420783d2233392220793d22333922207760a08201527f696474683d2233323222206865696768743d22333232222072783d223022206660c08201527f696c6c3d226e6f6e6522207374726f6b653d2263757272656e74436f6c6f722260e08201527f207374726f6b652d77696474683d2232222f3e3c74657874207374796c653d226101008201527f666f6e742d7765696768743a626f6c642220783d223530252220793d223630226101208201527f20646f6d696e616e742d626173656c696e653d226d6964646c652220746578746101408201527f2d616e63686f723d226d6964646c65223e71617661682023000000000000000061016082015250565b7f7b226e616d65223a225161766168202300000000000000000000000000000000600082015250565b7f297b6f7061636974793a317d3c2f7374796c653e3c696d6167652069643d226160008201527f2220687265663d22000000000000000000000000000000000000000000000000602082015250565b7f5472616e73666572206661696c65642e00000000000000000000000000000000600082015250565b7f416d6f756e7420746f6f206c6f772e0000000000000000000000000000000000600082015250565b7f2520000000000000000000000000000000000000000000000000000000000000600082015250565b61510781614594565b811461511257600080fd5b50565b61511e816145a6565b811461512957600080fd5b50565b615135816145b2565b811461514057600080fd5b50565b61514c816145dc565b811461515757600080fd5b5056fe4142434445464748494a4b4c4d4e4f505152535455565758595a6162636465666768696a6b6c6d6e6f707172737475767778797a303132333435363738392b2fa2646970667358221220f07df91bfc0c9b10f78b9d5b609ce0eb85f60042a00fa9a0bea3848d4d77d35064736f6c63430008040033",
  "linkReferences": {},
  "deployedLinkReferences": {}
}