{
  "_format": "hh-sol-artifact-1",
  "contractName": "Contract",
  "sourceName": "contracts/Contract.sol",
  "abi": [
    {
      "inputs": [],
      "stateMutability": "nonpayable",
      "type": "constructor"
    },
    {
      "anonymous": false,
      "inputs": [
        {
          "indexed": true,
          "internalType": "bytes32",
          "name": "id",
          "type": "bytes32"
        },
        {
          "indexed": false,
          "internalType": "address",
          "name": "from",
          "type": "address"
        }
      ],
      "name": "FundsClaimed",
      "type": "event"
    },
    {
      "anonymous": false,
      "inputs": [
        {
          "indexed": true,
          "internalType": "bytes32",
          "name": "id",
          "type": "bytes32"
        },
        {
          "indexed": false,
          "internalType": "address",
          "name": "from",
          "type": "address"
        }
      ],
      "name": "FundsDonated",
      "type": "event"
    },
    {
      "anonymous": false,
      "inputs": [
        {
          "indexed": false,
          "internalType": "bytes32",
          "name": "id",
          "type": "bytes32"
        },
        {
          "indexed": true,
          "internalType": "address",
          "name": "from",
          "type": "address"
        }
      ],
      "name": "ProjectCreated",
      "type": "event"
    },
    {
      "anonymous": false,
      "inputs": [
        {
          "indexed": true,
          "internalType": "bytes32",
          "name": "id",
          "type": "bytes32"
        },
        {
          "indexed": false,
          "internalType": "bool",
          "name": "hidden",
          "type": "bool"
        }
      ],
      "name": "ProjectVisibilitySet",
      "type": "event"
    },
    {
      "inputs": [
        {
          "internalType": "bytes32",
          "name": "id",
          "type": "bytes32"
        }
      ],
      "name": "claimProjectFunds",
      "outputs": [],
      "stateMutability": "nonpayable",
      "type": "function"
    },
    {
      "inputs": [
        {
          "internalType": "string",
          "name": "title",
          "type": "string"
        },
        {
          "internalType": "string",
          "name": "description",
          "type": "string"
        },
        {
          "internalType": "uint256",
          "name": "requestedAmount",
          "type": "uint256"
        },
        {
          "internalType": "string",
          "name": "image",
          "type": "string"
        }
      ],
      "name": "createProject",
      "outputs": [],
      "stateMutability": "nonpayable",
      "type": "function"
    },
    {
      "inputs": [
        {
          "internalType": "bytes32",
          "name": "id",
          "type": "bytes32"
        },
        {
          "internalType": "uint256",
          "name": "amount",
          "type": "uint256"
        }
      ],
      "name": "donateToProject",
      "outputs": [],
      "stateMutability": "nonpayable",
      "type": "function"
    },
    {
      "inputs": [
        {
          "internalType": "bytes32",
          "name": "id",
          "type": "bytes32"
        }
      ],
      "name": "getProject",
      "outputs": [
        {
          "components": [
            {
              "internalType": "bytes32",
              "name": "id",
              "type": "bytes32"
            },
            {
              "internalType": "address",
              "name": "creator",
              "type": "address"
            },
            {
              "internalType": "string",
              "name": "title",
              "type": "string"
            },
            {
              "internalType": "uint256",
              "name": "requestedAmount",
              "type": "uint256"
            },
            {
              "internalType": "string",
              "name": "description",
              "type": "string"
            },
            {
              "internalType": "string",
              "name": "image",
              "type": "string"
            },
            {
              "internalType": "uint256",
              "name": "fundedAmount",
              "type": "uint256"
            },
            {
              "internalType": "uint256",
              "name": "claimedAmount",
              "type": "uint256"
            },
            {
              "internalType": "address[]",
              "name": "donators",
              "type": "address[]"
            },
            {
              "internalType": "uint256",
              "name": "createdAt",
              "type": "uint256"
            },
            {
              "internalType": "contract Qavah",
              "name": "qavah",
              "type": "address"
            },
            {
              "internalType": "bool",
              "name": "hidden",
              "type": "bool"
            }
          ],
          "internalType": "struct Contract.Project",
          "name": "",
          "type": "tuple"
        }
      ],
      "stateMutability": "view",
      "type": "function"
    },
    {
      "inputs": [],
      "name": "getProjects",
      "outputs": [
        {
          "components": [
            {
              "internalType": "bytes32",
              "name": "id",
              "type": "bytes32"
            },
            {
              "internalType": "address",
              "name": "creator",
              "type": "address"
            },
            {
              "internalType": "string",
              "name": "title",
              "type": "string"
            },
            {
              "internalType": "uint256",
              "name": "requestedAmount",
              "type": "uint256"
            },
            {
              "internalType": "string",
              "name": "description",
              "type": "string"
            },
            {
              "internalType": "string",
              "name": "image",
              "type": "string"
            },
            {
              "internalType": "uint256",
              "name": "fundedAmount",
              "type": "uint256"
            },
            {
              "internalType": "uint256",
              "name": "claimedAmount",
              "type": "uint256"
            },
            {
              "internalType": "address[]",
              "name": "donators",
              "type": "address[]"
            },
            {
              "internalType": "uint256",
              "name": "createdAt",
              "type": "uint256"
            },
            {
              "internalType": "contract Qavah",
              "name": "qavah",
              "type": "address"
            },
            {
              "internalType": "bool",
              "name": "hidden",
              "type": "bool"
            }
          ],
          "internalType": "struct Contract.Project[]",
          "name": "",
          "type": "tuple[]"
        }
      ],
      "stateMutability": "view",
      "type": "function"
    },
    {
      "inputs": [
        {
          "internalType": "address",
          "name": "userAddress",
          "type": "address"
        }
      ],
      "name": "getProjectsByUser",
      "outputs": [
        {
          "components": [
            {
              "internalType": "bytes32",
              "name": "id",
              "type": "bytes32"
            },
            {
              "internalType": "address",
              "name": "creator",
              "type": "address"
            },
            {
              "internalType": "string",
              "name": "title",
              "type": "string"
            },
            {
              "internalType": "uint256",
              "name": "requestedAmount",
              "type": "uint256"
            },
            {
              "internalType": "string",
              "name": "description",
              "type": "string"
            },
            {
              "internalType": "string",
              "name": "image",
              "type": "string"
            },
            {
              "internalType": "uint256",
              "name": "fundedAmount",
              "type": "uint256"
            },
            {
              "internalType": "uint256",
              "name": "claimedAmount",
              "type": "uint256"
            },
            {
              "internalType": "address[]",
              "name": "donators",
              "type": "address[]"
            },
            {
              "internalType": "uint256",
              "name": "createdAt",
              "type": "uint256"
            },
            {
              "internalType": "contract Qavah",
              "name": "qavah",
              "type": "address"
            },
            {
              "internalType": "bool",
              "name": "hidden",
              "type": "bool"
            }
          ],
          "internalType": "struct Contract.Project[]",
          "name": "",
          "type": "tuple[]"
        }
      ],
      "stateMutability": "view",
      "type": "function"
    },
    {
      "inputs": [],
      "name": "getQavahsCount",
      "outputs": [
        {
          "internalType": "uint256",
          "name": "",
          "type": "uint256"
        }
      ],
      "stateMutability": "view",
      "type": "function"
    },
    {
      "inputs": [
        {
          "internalType": "address",
          "name": "tokenAddress",
          "type": "address"
        },
        {
          "internalType": "string",
          "name": "url",
          "type": "string"
        }
      ],
      "name": "initialize",
      "outputs": [],
      "stateMutability": "nonpayable",
      "type": "function"
    },
    {
      "inputs": [],
      "name": "siteUrl",
      "outputs": [
        {
          "internalType": "string",
          "name": "",
          "type": "string"
        }
      ],
      "stateMutability": "view",
      "type": "function"
    },
    {
      "inputs": [
        {
          "internalType": "bytes32",
          "name": "id",
          "type": "bytes32"
        }
      ],
      "name": "toggleProjectVisibility",
      "outputs": [],
      "stateMutability": "nonpayable",
      "type": "function"
    },
    {
      "inputs": [],
      "name": "usdTokenAddress",
      "outputs": [
        {
          "internalType": "address",
          "name": "",
          "type": "address"
        }
      ],
      "stateMutability": "view",
      "type": "function"
    }
  ],
  "bytecode": "0x60806040523480156200001157600080fd5b50600054610100900460ff166200002f5760005460ff161562000039565b62000039620000de565b620000a15760405162461bcd60e51b815260206004820152602e60248201527f496e697469616c697a61626c653a20636f6e747261637420697320616c72656160448201526d191e481a5b9a5d1a585b1a5e995960921b606482015260840160405180910390fd5b600054610100900460ff16158015620000c4576000805461ffff19166101011790555b8015620000d7576000805461ff00191690555b506200010b565b6000620000f630620000fc60201b62001b211760201c565b15905090565b6001600160a01b03163b151590565b6155ab806200011b6000396000f3fe60806040523480156200001157600080fd5b5060043610620000b75760003560e01c80637cc7e5ec116200007a5780637cc7e5ec1462000162578063a010c7ad1462000179578063b4eddc721462000190578063dcc6012814620001b6578063f399e22e14620001c0578063f5330bb414620001d757600080fd5b80631825f39114620000bc5780633eac8dac14620000d557806346575714146200010c5780634b5f748a14620001235780636993297a1462000149575b600080fd5b620000d3620000cd36600462002c20565b620001f0565b005b600054620000ef906201000090046001600160a01b031681565b6040516001600160a01b0390911681526020015b60405180910390f35b620000d36200011d36600462002c5b565b62000401565b6200013a6200013436600462002c20565b6200080d565b604051620001039190620038e5565b6200015362000ad4565b60405190815260200162000103565b620000d36200017336600462002c39565b62000b54565b620000d36200018a36600462002c20565b620010ef565b620001a7620001a136600462002b8a565b620011c0565b6040516200010391906200386b565b620001a7620015ec565b620000d3620001d136600462002ba7565b62001998565b620001e162001a8b565b604051620001039190620038d0565b600081815260026020526040902060018101546001600160a01b03163314620002725760405162461bcd60e51b815260206004820152602960248201527f4f6e6c792070726f6a6563742063726561746f722063616e20636c61696d2074604482015268343290333ab732399760b91b60648201526084015b60405180910390fd5b6000816007015482600601546200028a91906200394e565b905060008111620002de5760405162461bcd60e51b815260206004820152601a60248201527f5468657265206973206e6f7468696e6720746f20636c61696d2e000000000000604482015260640162000269565b60005460405163a9059cbb60e01b815233600482015260248101839052620100009091046001600160a01b03169063a9059cbb90604401602060405180830381600087803b1580156200033057600080fd5b505af115801562000345573d6000803e3d6000fd5b505050506040513d601f19601f820116820180604052508101906200036b919062002bfe565b620003ac5760405162461bcd60e51b815260206004820152601060248201526f2a3930b739b332b9103330b4b632b21760811b604482015260640162000269565b80826007016000828254620003c29190620038fa565b909155505060405133815283907feff38a64c4ca4e4df09019118ef2dfa3e4d59b5c982b35299dac2f42f308a1f79060200160405180910390a2505050565b85620004505760405162461bcd60e51b815260206004820181905260248201527f50726f6a656374207469746c65206d757374206e6f7420626520656d7074792e604482015260640162000269565b600a62000466670de0b6b3a76400008562003915565b1015620004c25760405162461bcd60e51b8152602060048201526024808201527f52657175657374656420616d6f756e74206265206174206c65617374203130206044820152632aa9a21760e11b606482015260840162000269565b60035460408051426020820152908101919091526000906060016040516020818303038152906040528051906020012090506002600082815260200190815260200160002060020180546200051790620039b1565b1590506200055a5760405162461bcd60e51b815260206004820152600f60248201526e24b73a32b93730b61032b93937b91760891b604482015260640162000269565b6200056462002922565b8181523360208083019190915260408051601f8b01839004830281018301909152898152908a908a908190840183828082843760009201919091525050505060408083019190915280516020601f8901819004810282018101909252878152908890889081908401838280828437600092019190915250505050608082015260608101859052604080516020601f860181900481028201810190925284815290859085908190840183828082843760009201919091525050505060a08201524261012082015260405162000638906200299a565b604051809103906000f08015801562000655573d6000803e3d6000fd5b506001600160a01b0390811661014083015260008381526002602081815260409283902085518155818601516001820180546001600160a01b0319169190961617909455918401518051859493620006b2938501920190620029a8565b506060820151600382015560808201518051620006da916004840191602090910190620029a8565b5060a08201518051620006f8916005840191602090910190620029a8565b5060c0820151600682015560e0820151600782015561010082015180516200072b91600884019160209091019062002a37565b506101208201516009820155610140820151600a9091018054610160909301511515600160a01b026001600160a81b03199093166001600160a01b03909216919091179190911790556003805460018181019092557fc2575a0e9e593c00f959f8c92f12db2869c3395a3b0502d05e2516446f71f85b01839055336000818152600460209081526040808320805495860181558352912090920184905590517f72d3574e35dc5b7a620c3cbcb395fec0497a0427c47762bfe8deba4688f6ff1890620007fa9085815260200190565b60405180910390a2505050505050505050565b6200081762002922565b6000828152600260208181526040928390208351610180810185528154815260018201546001600160a01b031692810192909252918201805491938401916200086090620039b1565b80601f01602080910402602001604051908101604052809291908181526020018280546200088e90620039b1565b8015620008df5780601f10620008b357610100808354040283529160200191620008df565b820191906000526020600020905b815481529060010190602001808311620008c157829003601f168201915b50505050508152602001600382015481526020016004820180546200090490620039b1565b80601f01602080910402602001604051908101604052809291908181526020018280546200093290620039b1565b8015620009835780601f10620009575761010080835404028352916020019162000983565b820191906000526020600020905b8154815290600101906020018083116200096557829003601f168201915b505050505081526020016005820180546200099e90620039b1565b80601f0160208091040260200160405190810160405280929190818152602001828054620009cc90620039b1565b801562000a1d5780601f10620009f15761010080835404028352916020019162000a1d565b820191906000526020600020905b815481529060010190602001808311620009ff57829003601f168201915b5050505050815260200160068201548152602001600782015481526020016008820180548060200260200160405190810160405280929190818152602001828054801562000a9557602002820191906000526020600020905b81546001600160a01b0316815260019091019060200180831162000a76575b505050918352505060098201546020820152600a909101546001600160a01b0381166040830152600160a01b900460ff16151560609091015292915050565b600080805b60035481101562000b4e57600260006003838154811062000b0a57634e487b7160e01b600052603260045260246000fd5b90600052602060002001548152602001908152602001600020600801805490508262000b379190620038fa565b91508062000b4581620039e8565b91505062000ad9565b50919050565b6000828152600260205260409020600381015460068201541062000bb15760405162461bcd60e51b815260206004820152601360248201527221b0b6b830b4b3b71034b99031b637b9b2b21760691b604482015260640162000269565b60018101546001600160a01b031633141562000c105760405162461bcd60e51b815260206004820152601e60248201527f596f752063616e6e6f7420646f6e61746520746f20796f757273656c662e0000604482015260640162000269565b6000546040516323b872dd60e01b815233600482015230602482015260448101849052620100009091046001600160a01b0316906323b872dd90606401602060405180830381600087803b15801562000c6857600080fd5b505af115801562000c7d573d6000803e3d6000fd5b505050506040513d601f19601f8201168201806040525081019062000ca3919062002bfe565b62000ce45760405162461bcd60e51b815260206004820152601060248201526f2a3930b739b332b9103330b4b632b21760811b604482015260640162000269565b600381015460009062000cf98460646200392c565b62000d05919062003915565b90506000811162000d4b5760405162461bcd60e51b815260206004820152600f60248201526e20b6b7bab73a103a37b7903637bb9760891b604482015260640162000269565b600082600301548360060154606462000d6591906200392c565b62000d71919062003915565b90506000606484600301548462000d8991906200392c565b62000d95919062003915565b90508084600601600082825462000dad9190620038fa565b9091555050600884018054600181810183556000928352602080842090920180546001600160a01b031916339081179091558352600482526040808420805480840182559085529383902090930189905582516101808101845287548152908701546001600160a01b031691810191909152600286018054620010b29388929084019162000e3b90620039b1565b80601f016020809104026020016040519081016040528092919081815260200182805462000e6990620039b1565b801562000eba5780601f1062000e8e5761010080835404028352916020019162000eba565b820191906000526020600020905b81548152906001019060200180831162000e9c57829003601f168201915b505050505081526020016003820154815260200160048201805462000edf90620039b1565b80601f016020809104026020016040519081016040528092919081815260200182805462000f0d90620039b1565b801562000f5e5780601f1062000f325761010080835404028352916020019162000f5e565b820191906000526020600020905b81548152906001019060200180831162000f4057829003601f168201915b5050505050815260200160058201805462000f7990620039b1565b80601f016020809104026020016040519081016040528092919081815260200182805462000fa790620039b1565b801562000ff85780601f1062000fcc5761010080835404028352916020019162000ff8565b820191906000526020600020905b81548152906001019060200180831162000fda57829003601f168201915b505050505081526020016006820154815260200160078201548152602001600882018054806020026020016040519081016040528092919081815260200182805480156200107057602002820191906000526020600020905b81546001600160a01b0316815260019091019060200180831162001051575b505050918352505060098201546020820152600a909101546001600160a01b0381166040830152600160a01b900460ff16151560609091015284838562001b30565b60405133815286907f7abfb7da4a842d91a4fadb66a2ef0e5e3ad8f0b93855ec7955fce7ae928dec4f9060200160405180910390a2505050505050565b73b24d63186f3392e86d68e36da6d24cf5d3d8885a33146200114b5760405162461bcd60e51b815260206004820152601460248201527321b0b63632b91034b9903737ba1030b236b4b71760611b604482015260640162000269565b600081815260026020908152604091829020600a8101805460ff600160a01b808304821615810260ff60a01b19909316929092179283905594519104909316151583529183917f3e857671b71e28ca9a27091dc669a5f3d5643480f5039d8c2be571a4cf4ecc0e910160405180910390a25050565b6001600160a01b03811660009081526004602090815260408083208054825181850281018501909352808352606094938301828280156200122157602002820191906000526020600020905b8154815260200190600101908083116200120c575b505050505090506000815167ffffffffffffffff8111156200125357634e487b7160e01b600052604160045260246000fd5b6040519080825280602002602001820160405280156200129057816020015b6200127c62002922565b815260200190600190039081620012725790505b50905060005b8251811015620015e45760026000848381518110620012c557634e487b7160e01b600052603260045260246000fd5b6020026020010151815260200190815260200160002060405180610180016040529081600082015481526020016001820160009054906101000a90046001600160a01b03166001600160a01b03166001600160a01b031681526020016002820180546200133290620039b1565b80601f01602080910402602001604051908101604052809291908181526020018280546200136090620039b1565b8015620013b15780601f106200138557610100808354040283529160200191620013b1565b820191906000526020600020905b8154815290600101906020018083116200139357829003601f168201915b5050505050815260200160038201548152602001600482018054620013d690620039b1565b80601f01602080910402602001604051908101604052809291908181526020018280546200140490620039b1565b8015620014555780601f10620014295761010080835404028352916020019162001455565b820191906000526020600020905b8154815290600101906020018083116200143757829003601f168201915b505050505081526020016005820180546200147090620039b1565b80601f01602080910402602001604051908101604052809291908181526020018280546200149e90620039b1565b8015620014ef5780601f10620014c357610100808354040283529160200191620014ef565b820191906000526020600020905b815481529060010190602001808311620014d157829003601f168201915b505050505081526020016006820154815260200160078201548152602001600882018054806020026020016040519081016040528092919081815260200182805480156200156757602002820191906000526020600020905b81546001600160a01b0316815260019091019060200180831162001548575b505050918352505060098201546020820152600a909101546001600160a01b0381166040830152600160a01b900460ff1615156060909101528251839083908110620015c357634e487b7160e01b600052603260045260246000fd5b60200260200101819052508080620015db90620039e8565b91505062001296565b509392505050565b60035460609060009067ffffffffffffffff8111156200161c57634e487b7160e01b600052604160045260246000fd5b6040519080825280602002602001820160405280156200165957816020015b6200164562002922565b8152602001906001900390816200163b5790505b50905060005b60035481101562000b4e5760026000600383815481106200169057634e487b7160e01b600052603260045260246000fd5b6000918252602080832090910154835282810193909352604091820190208151610180810183528154815260018201546001600160a01b0316938101939093526002810180549192840191620016e690620039b1565b80601f01602080910402602001604051908101604052809291908181526020018280546200171490620039b1565b8015620017655780601f10620017395761010080835404028352916020019162001765565b820191906000526020600020905b8154815290600101906020018083116200174757829003601f168201915b50505050508152602001600382015481526020016004820180546200178a90620039b1565b80601f0160208091040260200160405190810160405280929190818152602001828054620017b890620039b1565b8015620018095780601f10620017dd5761010080835404028352916020019162001809565b820191906000526020600020905b815481529060010190602001808311620017eb57829003601f168201915b505050505081526020016005820180546200182490620039b1565b80601f01602080910402602001604051908101604052809291908181526020018280546200185290620039b1565b8015620018a35780601f106200187757610100808354040283529160200191620018a3565b820191906000526020600020905b8154815290600101906020018083116200188557829003601f168201915b505050505081526020016006820154815260200160078201548152602001600882018054806020026020016040519081016040528092919081815260200182805480156200191b57602002820191906000526020600020905b81546001600160a01b03168152600190910190602001808311620018fc575b505050918352505060098201546020820152600a909101546001600160a01b0381166040830152600160a01b900460ff16151560609091015282518390839081106200197757634e487b7160e01b600052603260045260246000fd5b602002602001018190525080806200198f90620039e8565b9150506200165f565b600054610100900460ff16620019b55760005460ff1615620019b9565b303b155b62001a1e5760405162461bcd60e51b815260206004820152602e60248201527f496e697469616c697a61626c653a20636f6e747261637420697320616c72656160448201526d191e481a5b9a5d1a585b1a5e995960921b606482015260840162000269565b600054610100900460ff1615801562001a41576000805461ffff19166101011790555b6000805462010000600160b01b031916620100006001600160a01b0387160217905562001a716001848462002a8f565b50801562001a85576000805461ff00191690555b50505050565b6001805462001a9a90620039b1565b80601f016020809104026020016040519081016040528092919081815260200182805462001ac890620039b1565b801562001b195780601f1062001aed5761010080835404028352916020019162001b19565b820191906000526020600020905b81548152906001019060200180831162001afb57829003601f168201915b505050505081565b6001600160a01b03163b151590565b600062001b408585858562001bf3565b9050600062001b558287600001518662001c50565b90508561014001516001600160a01b031663d204c45e3362001b778462001d1c565b60405160200162001b8991906200346b565b6040516020818303038152906040526040518363ffffffff1660e01b815260040162001bb792919062003845565b600060405180830381600087803b15801562001bd257600080fd5b505af115801562001be7573d6000803e3d6000fd5b50505050505050505050565b606062001c068560a00151858462001e8e565b855162001c139062001ed5565b62001c2387604001518662002292565b60405160200162001c379392919062002e8b565b6040516020818303038152906040529050949350505050565b606062001c6662001c6062000ad4565b620022f3565b600162001c738562002429565b60405160200162001c8692919062002fd4565b60408051601f198184030181529190528562001caf62001c60670de0b6b3a76400008762003915565b62001ce26064670de0b6b3a764000062001cca89836200392c565b62001cd6919062003915565b62001c60919062003a06565b62001ced42620022f3565b60405160200162001d049695949392919062003579565b60405160208183030381529060405290509392505050565b606081516000141562001d3d57505060408051602081019091526000815290565b600060405180606001604052806040815260200162005536604091399050600060038451600262001d6f9190620038fa565b62001d7b919062003915565b62001d889060046200392c565b67ffffffffffffffff81111562001daf57634e487b7160e01b600052604160045260246000fd5b6040519080825280601f01601f19166020018201604052801562001dda576020820181803683370190505b509050600182016020820185865187015b8082101562001e48576003820191508151603f8160121c168501518453600184019350603f81600c1c168501518453600184019350603f8160061c168501518453600184019350603f811685015184535060018301925062001deb565b505060038651066001811462001e67576002811462001e7b5762001e83565b603d6001830353603d600283035362001e83565b603d60018303535b509195945050505050565b606062001ea162001c60836001620038fa565b62001eb162001c608585620038fa565b8562001ec062001c6062000ad4565b60405160200162001d04949392919062003084565b6060600062001ee362002484565b905062001ef1818462002618565b60006005825162001f03919062003915565b67ffffffffffffffff81111562001f2a57634e487b7160e01b600052604160045260246000fd5b60405190808252806020026020018201604052801562001f5f57816020015b606081526020019060019003908162001f495790505b50905060005b8251811015620020e75782818151811062001f9057634e487b7160e01b600052603260045260246000fd5b60200260200101518382600162001fa89190620038fa565b8151811062001fc757634e487b7160e01b600052603260045260246000fd5b60200260200101518483600262001fdf9190620038fa565b8151811062001ffe57634e487b7160e01b600052603260045260246000fd5b602002602001015185846003620020169190620038fa565b815181106200203557634e487b7160e01b600052603260045260246000fd5b6020026020010151868560046200204d9190620038fa565b815181106200206c57634e487b7160e01b600052603260045260246000fd5b60200260200101516040516020016200208a95949392919062002ed4565b60408051601f1981840301815291905282620020a860058462003915565b81518110620020c757634e487b7160e01b600052603260045260246000fd5b6020908102919091010152620020df600582620038fa565b905062001f65565b50606060005b60058351620020fd919062003915565b81101562002289578183620021148360056200392c565b815181106200213357634e487b7160e01b600052603260045260246000fd5b6020026020010151848360056200214b91906200392c565b62002158906001620038fa565b815181106200217757634e487b7160e01b600052603260045260246000fd5b6020026020010151858460056200218f91906200392c565b6200219c906002620038fa565b81518110620021bb57634e487b7160e01b600052603260045260246000fd5b602002602001015186856005620021d391906200392c565b620021e0906003620038fa565b81518110620021ff57634e487b7160e01b600052603260045260246000fd5b6020026020010151878660056200221791906200392c565b62002224906004620038fa565b815181106200224357634e487b7160e01b600052603260045260246000fd5b6020026020010151604051602001620022629695949392919062002f49565b604051602081830303815290604052915080806200228090620039e8565b915050620020ed565b50949350505050565b606082620022ad62001c60670de0b6b3a76400008562003915565b620022c86064670de0b6b3a764000062001cca87836200392c565b604051602001620022dc93929190620036bd565b604051602081830303815290604052905092915050565b606081620023185750506040805180820190915260018152600360fc1b602082015290565b8160005b81156200234857806200232f81620039e8565b9150620023409050600a8362003915565b91506200231c565b60008167ffffffffffffffff8111156200237257634e487b7160e01b600052604160045260246000fd5b6040519080825280601f01601f1916602001820160405280156200239d576020820181803683370190505b5090505b84156200242157620023b56001836200394e565b9150620023c4600a8662003a06565b620023d1906030620038fa565b60f81b818381518110620023f557634e487b7160e01b600052603260045260246000fd5b60200101906001600160f81b031916908160001a90535062002419600a8662003915565b9450620023a1565b949350505050565b606081620024515750506040805180820190915260048152630307830360e41b602082015290565b8160005b81156200247857806200246881620039e8565b915050600882901c915062002455565b62002421848262002725565b6060600a60006200249682806200392c565b67ffffffffffffffff811115620024bd57634e487b7160e01b600052604160045260246000fd5b604051908082528060200260200182016040528015620024f257816020015b6060815260200190600190039081620024dc5790505b50905060005b82811015620026115760005b83811015620025fb576200252b846200251f8460646200392c565b62001c60919062003915565b620025578560016200253e85836200394e565b6200254a91906200394e565b6200251f9060646200392c565b6200256a8660016200253e87836200394e565b6200257c876200251f8660646200392c565b604051602001620025919493929190620034b2565b60408051601f198184030181529190528382620025af87866200392c565b620025bb9190620038fa565b81518110620025da57634e487b7160e01b600052603260045260246000fd5b60200260200101819052508080620025f290620039e8565b91505062002504565b50806200260881620039e8565b915050620024f8565b5092915050565b6000600183516200262a91906200394e565b90505b8015620027205760008184516200264591906200394e565b62002651908462003a06565b905060008483815181106200267657634e487b7160e01b600052603260045260246000fd5b602002602001015190506000858381518110620026a357634e487b7160e01b600052603260045260246000fd5b6020026020010151905080868581518110620026cf57634e487b7160e01b600052603260045260246000fd5b602002602001018190525081868481518110620026fc57634e487b7160e01b600052603260045260246000fd5b60200260200101819052505050508080620027179062003997565b9150506200262d565b505050565b60606000620027368360026200392c565b62002743906002620038fa565b67ffffffffffffffff8111156200276a57634e487b7160e01b600052604160045260246000fd5b6040519080825280601f01601f19166020018201604052801562002795576020820181803683370190505b509050600360fc1b81600081518110620027bf57634e487b7160e01b600052603260045260246000fd5b60200101906001600160f81b031916908160001a905350600f60fb1b81600181518110620027fd57634e487b7160e01b600052603260045260246000fd5b60200101906001600160f81b031916908160001a9053506000620028238460026200392c565b62002830906001620038fa565b90505b6001811115620028ca576f181899199a1a9b1b9c1cb0b131b232b360811b85600f16601081106200287457634e487b7160e01b600052603260045260246000fd5b1a60f81b8282815181106200289957634e487b7160e01b600052603260045260246000fd5b60200101906001600160f81b031916908160001a90535060049490941c93620028c28162003997565b905062002833565b5083156200291b5760405162461bcd60e51b815260206004820181905260248201527f537472696e67733a20686578206c656e67746820696e73756666696369656e74604482015260640162000269565b9392505050565b6040518061018001604052806000801916815260200160006001600160a01b03168152602001606081526020016000815260200160608152602001606081526020016000815260200160008152602001606081526020016000815260200160006001600160a01b031681526020016000151581525090565b611aec8062003a4a83390190565b828054620029b690620039b1565b90600052602060002090601f016020900481019282620029da576000855562002a25565b82601f10620029f557805160ff191683800117855562002a25565b8280016001018555821562002a25579182015b8281111562002a2557825182559160200191906001019062002a08565b5062002a3392915062002b0c565b5090565b82805482825590600052602060002090810192821562002a25579160200282015b8281111562002a2557825182546001600160a01b0319166001600160a01b0390911617825560209092019160019091019062002a58565b82805462002a9d90620039b1565b90600052602060002090601f01602090048101928262002ac1576000855562002a25565b82601f1062002adc5782800160ff1982351617855562002a25565b8280016001018555821562002a25579182015b8281111562002a2557823582559160200191906001019062002aef565b5b8082111562002a33576000815560010162002b0d565b80356001600160a01b038116811462002b3b57600080fd5b919050565b60008083601f84011262002b52578182fd5b50813567ffffffffffffffff81111562002b6a578182fd5b60208301915083602082850101111562002b8357600080fd5b9250929050565b60006020828403121562002b9c578081fd5b6200291b8262002b23565b60008060006040848603121562002bbc578182fd5b62002bc78462002b23565b9250602084013567ffffffffffffffff81111562002be3578283fd5b62002bf18682870162002b40565b9497909650939450505050565b60006020828403121562002c10578081fd5b815180151581146200291b578182fd5b60006020828403121562002c32578081fd5b5035919050565b6000806040838503121562002c4c578182fd5b50508035926020909101359150565b60008060008060008060006080888a03121562002c76578283fd5b873567ffffffffffffffff8082111562002c8e578485fd5b62002c9c8b838c0162002b40565b909950975060208a013591508082111562002cb5578485fd5b62002cc38b838c0162002b40565b909750955060408a0135945060608a013591508082111562002ce3578384fd5b5062002cf28a828b0162002b40565b989b979a50959850939692959293505050565b6000815180845260208085019450808401835b8381101562002d3f5781516001600160a01b03168752958201959082019060010162002d18565b509495945050505050565b6000815162002d5e81856020860162003968565b9290920192915050565b6000815180845262002d8281602086016020860162003968565b601f01601f19169290920160200192915050565b600061018082518452602083015162002dba60208601826001600160a01b03169052565b50604083015181604086015262002dd48286018262002d68565b915050606083015160608501526080830151848203608086015262002dfa828262002d68565b91505060a083015184820360a086015262002e16828262002d68565b91505060c083015160c085015260e083015160e0850152610100808401518583038287015262002e47838262002d05565b925050506101208084015181860152506101408084015162002e73828701826001600160a01b03169052565b50506101609283015115159390920192909252919050565b6000845162002e9f81846020890162003968565b84519083019062002eb581836020890162003968565b845191019062002eca81836020880162003968565b0195945050505050565b6000865162002ee8818460208b0162003968565b86519083019062002efe818360208b0162003968565b865191019062002f13818360208a0162003968565b855191019062002f2881836020890162003968565b845191019062002f3d81836020880162003968565b01979650505050505050565b60008751602062002f5e8285838d0162003968565b88519184019162002f738184848d0162003968565b885192019162002f878184848c0162003968565b875192019162002f9b8184848b0162003968565b865192019162002faf8184848a0162003968565b855192019162002fc3818484890162003968565b919091019998505050505050505050565b600080845482600182811c91508083168062002ff157607f831692505b60208084108214156200301257634e487b7160e01b87526022600452602487fd5b8180156200302957600181146200303b5762003069565b60ff1986168952848901965062003069565b60008b815260209020885b86811015620030615781548b82015290850190830162003046565b505084890196505b5050505050506200307b818562002d4a565b95945050505050565b7f3c7376672076696577426f783d2730203020343030203430302720786d6c6e7381527f3d27687474703a2f2f7777772e77332e6f72672f323030302f737667273e3c6460208201527f6566733e3c7374796c653e40696d706f72742075726c282768747470733a2f2f60408201527f666f6e74732e676f6f676c65617069732e636f6d2f637373323f66616d696c7960608201527f3d53706163652b47726f7465736b3a77676874403430303b37303027293b2a7b60808201527f636f6c6f723a2532333631316636397d746578742c707b666f6e742d73697a6560a08201527f3a313470783b666f6e742d66616d696c793a2753706163652047726f7465736b60c08201527f272c73616e732d73657269663b66696c6c3a63757272656e74436f6c6f727d7560e08201527f73657b6f7061636974793a20302e327d7573653a6e74682d6f662d7479706528610100820152616e2b60f01b6101208201526000620034616200344e620034476200327762003270620032366200322f620032126101228a018e62002d4a565b70293a6e74682d6f662d74797065282d6e2b60781b815260110190565b8b62002d4a565b7f297b6f7061636974793a317d3c2f7374796c653e3c696d6167652069643d27618152672720687265663d2760c01b602082015260280190565b8862002d4a565b7f2720783d2734302720793d273734272077696474683d2733323027206865696781527f68743d27313830272f3e3c2f646566733e3c7265637420783d2734302720793d60208201527f273430272077696474683d2733323027206865696768743d273334272066696c60408201527f6c3d27253233666263633563272f3e3c7265637420783d2734302720793d273260608201527f3534272077696474683d2733323027206865696768743d27313036272066696c60808201527f6c3d27253233666263633563272f3e3c7265637420783d2733392720793d273360a08201527f39272077696474683d2733323227206865696768743d27333232272072783d2760c08201527f30272066696c6c3d276e6f6e6527207374726f6b653d2763757272656e74436f60e08201527f6c6f7227207374726f6b652d77696474683d2732272f3e3c74657874207374796101008201527f6c653d27666f6e742d7765696768743a626f6c642720783d273530252720793d6101208201527f2736302720646f6d696e616e742d626173656c696e653d276d6964646c6527206101408201527f746578742d616e63686f723d276d6964646c65273e716176616820253233000061016082015261017e0190565b8562002d4a565b661e17ba32bc3a1f60c91b815260070190565b9695505050505050565b7f646174613a6170706c69636174696f6e2f6a736f6e3b6261736536342c000000815260008251620034a581601d85016020870162003968565b91909101601d0192915050565b7f3c75736520687265663d27253233612720636c69702d706174683d27696e73658152610e8560f31b602082015260008551620034f7816022850160208a0162003968565b808301905061012960f51b80602283015286516200351d816024850160208b0162003968565b6024920191820181905285516200353c816026850160208a0162003968565b602692019182015283516200355981602884016020880162003968565b64129493979f60d91b60289290910191820152602d019695505050505050565b6f7b226e616d65223a225161766168202360801b81528651600090620035a7816010850160208c0162003968565b701116113232b9b1b934b83a34b7b7111d1160791b6010918401918201528751620035da816021840160208c0162003968565b7f222c22696d616765223a22646174613a696d6167652f7376672b786d6c3b75746021929091019182015262198e0b60ea1b6041820152865162003626816044840160208b0162003968565b6a11161130b6b7bab73a111d60a91b6044929091019182015285516200365481604f840160208a0162003968565b620036af620036a26200369b620036826200367b604f86880101601760f91b815260010190565b8a62002d4a565b6c16113a34b6b2b9ba30b6b8111d60991b8152600d0190565b8762002d4a565b607d60f81b815260010190565b9a9950505050505050505050565b7f3c666f726569676e4f626a65637420783d2736302720793d273237302720776981527f6474683d2732383027206865696768743d273534273e3c7020786d6c6e733d2760208201527f687474703a2f2f7777772e77332e6f72672f313939392f7868746d6c2720737460408201527f796c653d276d617267696e3a303b666f6e742d7765696768743a626f6c64273e6060820152600084516200376981608085016020890162003968565b7f3c2f703e3c2f666f726569676e4f626a6563743e3c74657874207374796c653d6080918401918201527f27666f6e742d73697a653a313270783b666f6e742d7765696768743a206e6f7260a08201527f6d616c2720783d273334302720793d273334302720746578742d616e63686f7260c0820152673d27656e64273e2b60c01b60e08201528451620038058160e884016020890162003968565b601760f91b60e89290910191820152620034616200382760e983018662002d4a565b711031aaa9a21e17ba32bc3a1f1e17b9bb339f60711b815260120190565b6001600160a01b0383168152604060208201819052600090620024219083018462002d68565b6000602080830181845280855180835260408601915060408160051b8701019250838701855b82811015620038c357603f19888603018452620038b085835162002d96565b9450928501929085019060010162003891565b5092979650505050505050565b6020815260006200291b602083018462002d68565b6020815260006200291b602083018462002d96565b6000821982111562003910576200391062003a1d565b500190565b60008262003927576200392762003a33565b500490565b600081600019048311821515161562003949576200394962003a1d565b500290565b60008282101562003963576200396362003a1d565b500390565b60005b83811015620039855781810151838201526020016200396b565b8381111562001a855750506000910152565b600081620039a957620039a962003a1d565b506000190190565b600181811c90821680620039c657607f821691505b6020821081141562000b4e57634e487b7160e01b600052602260045260246000fd5b6000600019821415620039ff57620039ff62003a1d565b5060010190565b60008262003a185762003a1862003a33565b500690565b634e487b7160e01b600052601160045260246000fd5b634e487b7160e01b600052601260045260246000fdfe60806040523480156200001157600080fd5b50604051806040016040528060058152602001640a2c2ecc2d60db1b815250604051806040016040528060058152602001640a282ac82960db1b815250816000908051906020019062000066929190620000f5565b5080516200007c906001906020840190620000f5565b50505062000099620000936200009f60201b60201c565b620000a3565b620001d8565b3390565b600780546001600160a01b038381166001600160a01b0319831681179093556040519116919082907f8be0079c531659141344cd1fd0a4f28419497f9722a3daafe3b4186f6b6457e090600090a35050565b82805462000103906200019b565b90600052602060002090601f01602090048101928262000127576000855562000172565b82601f106200014257805160ff191683800117855562000172565b8280016001018555821562000172579182015b828111156200017257825182559160200191906001019062000155565b506200018092915062000184565b5090565b5b8082111562000180576000815560010162000185565b600181811c90821680620001b057607f821691505b60208210811415620001d257634e487b7160e01b600052602260045260246000fd5b50919050565b61190480620001e86000396000f3fe608060405234801561001057600080fd5b506004361061010b5760003560e01c8063715018a6116100a2578063b88d4fde11610071578063b88d4fde1461021b578063c87b56dd1461022e578063d204c45e14610241578063e985e9c514610254578063f2fde38b1461029057600080fd5b8063715018a6146101e75780638da5cb5b146101ef57806395d89b4114610200578063a22cb4651461020857600080fd5b806323b872dd116100de57806323b872dd1461018d57806342842e0e146101a05780636352211e146101b357806370a08231146101c657600080fd5b806301ffc9a71461011057806306fdde0314610138578063081812fc1461014d578063095ea7b314610178575b600080fd5b61012361011e3660046115ca565b6102a3565b60405190151581526020015b60405180910390f35b6101406102f5565b60405161012f91906116b2565b61016061015b366004611602565b610387565b6040516001600160a01b03909116815260200161012f565b61018b6101863660046115a1565b610414565b005b61018b61019b366004611454565b61052a565b61018b6101ae366004611454565b61055b565b6101606101c1366004611602565b610576565b6101d96101d4366004611408565b6105ed565b60405190815260200161012f565b61018b610674565b6007546001600160a01b0316610160565b6101406106aa565b61018b610216366004611508565b6106b9565b61018b61022936600461148f565b6106c8565b61014061023c366004611602565b610700565b61018b61024f366004611542565b61070b565b610123610262366004611422565b6001600160a01b03918216600090815260056020908152604080832093909416825291909152205460ff1690565b61018b61029e366004611408565b610764565b60006001600160e01b031982166380ac58cd60e01b14806102d457506001600160e01b03198216635b5e139f60e01b145b806102ef57506301ffc9a760e01b6001600160e01b03198316145b92915050565b6060600080546103049061180c565b80601f01602080910402602001604051908101604052809291908181526020018280546103309061180c565b801561037d5780601f106103525761010080835404028352916020019161037d565b820191906000526020600020905b81548152906001019060200180831161036057829003601f168201915b5050505050905090565b6000610392826107ff565b6103f85760405162461bcd60e51b815260206004820152602c60248201527f4552433732313a20617070726f76656420717565727920666f72206e6f6e657860448201526b34b9ba32b73a103a37b5b2b760a11b60648201526084015b60405180910390fd5b506000908152600460205260409020546001600160a01b031690565b600061041f82610576565b9050806001600160a01b0316836001600160a01b0316141561048d5760405162461bcd60e51b815260206004820152602160248201527f4552433732313a20617070726f76616c20746f2063757272656e74206f776e656044820152603960f91b60648201526084016103ef565b336001600160a01b03821614806104a957506104a98133610262565b61051b5760405162461bcd60e51b815260206004820152603860248201527f4552433732313a20617070726f76652063616c6c6572206973206e6f74206f7760448201527f6e6572206e6f7220617070726f76656420666f7220616c6c000000000000000060648201526084016103ef565b610525838361081c565b505050565b610534338261088a565b6105505760405162461bcd60e51b81526004016103ef9061174c565b610525838383610974565b610525838383604051806020016040528060008152506106c8565b6000818152600260205260408120546001600160a01b0316806102ef5760405162461bcd60e51b815260206004820152602960248201527f4552433732313a206f776e657220717565727920666f72206e6f6e657869737460448201526832b73a103a37b5b2b760b91b60648201526084016103ef565b60006001600160a01b0382166106585760405162461bcd60e51b815260206004820152602a60248201527f4552433732313a2062616c616e636520717565727920666f7220746865207a65604482015269726f206164647265737360b01b60648201526084016103ef565b506001600160a01b031660009081526003602052604090205490565b6007546001600160a01b0316331461069e5760405162461bcd60e51b81526004016103ef90611717565b6106a86000610b10565b565b6060600180546103049061180c565b6106c4338383610b62565b5050565b6106d2338361088a565b6106ee5760405162461bcd60e51b81526004016103ef9061174c565b6106fa84848484610c31565b50505050565b60606102ef82610c64565b6007546001600160a01b031633146107355760405162461bcd60e51b81526004016103ef90611717565b600061074060085490565b9050610750600880546001019055565b61075a8382610dd3565b6105258183610ded565b6007546001600160a01b0316331461078e5760405162461bcd60e51b81526004016103ef90611717565b6001600160a01b0381166107f35760405162461bcd60e51b815260206004820152602660248201527f4f776e61626c653a206e6577206f776e657220697320746865207a65726f206160448201526564647265737360d01b60648201526084016103ef565b6107fc81610b10565b50565b6000908152600260205260409020546001600160a01b0316151590565b600081815260046020526040902080546001600160a01b0319166001600160a01b038416908117909155819061085182610576565b6001600160a01b03167f8c5be1e5ebec7d5bd14f71427d1e84f3dd0314c0f7b2291e5b200ac8c7c3b92560405160405180910390a45050565b6000610895826107ff565b6108f65760405162461bcd60e51b815260206004820152602c60248201527f4552433732313a206f70657261746f7220717565727920666f72206e6f6e657860448201526b34b9ba32b73a103a37b5b2b760a11b60648201526084016103ef565b600061090183610576565b9050806001600160a01b0316846001600160a01b0316148061093c5750836001600160a01b031661093184610387565b6001600160a01b0316145b8061096c57506001600160a01b0380821660009081526005602090815260408083209388168352929052205460ff165b949350505050565b826001600160a01b031661098782610576565b6001600160a01b0316146109eb5760405162461bcd60e51b815260206004820152602560248201527f4552433732313a207472616e736665722066726f6d20696e636f72726563742060448201526437bbb732b960d91b60648201526084016103ef565b6001600160a01b038216610a4d5760405162461bcd60e51b8152602060048201526024808201527f4552433732313a207472616e7366657220746f20746865207a65726f206164646044820152637265737360e01b60648201526084016103ef565b610a5860008261081c565b6001600160a01b0383166000908152600360205260408120805460019290610a819084906117c9565b90915550506001600160a01b0382166000908152600360205260408120805460019290610aaf90849061179d565b909155505060008181526002602052604080822080546001600160a01b0319166001600160a01b0386811691821790925591518493918716917fddf252ad1be2c89b69c2b068fc378daa952ba7f163c4a11628f55a4df523b3ef91a4505050565b600780546001600160a01b038381166001600160a01b0319831681179093556040519116919082907f8be0079c531659141344cd1fd0a4f28419497f9722a3daafe3b4186f6b6457e090600090a35050565b816001600160a01b0316836001600160a01b03161415610bc45760405162461bcd60e51b815260206004820152601960248201527f4552433732313a20617070726f766520746f2063616c6c65720000000000000060448201526064016103ef565b6001600160a01b03838116600081815260056020908152604080832094871680845294825291829020805460ff191686151590811790915591519182527f17307eab39ab6107e8899845ad3d59bd9653f200f220920489ca2b5937696c31910160405180910390a3505050565b610c3c848484610974565b610c4884848484610e78565b6106fa5760405162461bcd60e51b81526004016103ef906116c5565b6060610c6f826107ff565b610cd55760405162461bcd60e51b815260206004820152603160248201527f45524337323155524953746f726167653a2055524920717565727920666f72206044820152703737b732bc34b9ba32b73a103a37b5b2b760791b60648201526084016103ef565b60008281526006602052604081208054610cee9061180c565b80601f0160208091040260200160405190810160405280929190818152602001828054610d1a9061180c565b8015610d675780601f10610d3c57610100808354040283529160200191610d67565b820191906000526020600020905b815481529060010190602001808311610d4a57829003601f168201915b505050505090506000610d8560408051602081019091526000815290565b9050805160001415610d98575092915050565b815115610dca578082604051602001610db2929190611646565b60405160208183030381529060405292505050919050565b61096c84610f85565b6106c482826040518060200160405280600081525061105d565b610df6826107ff565b610e595760405162461bcd60e51b815260206004820152602e60248201527f45524337323155524953746f726167653a2055524920736574206f66206e6f6e60448201526d32bc34b9ba32b73a103a37b5b2b760911b60648201526084016103ef565b60008281526006602090815260409091208251610525928401906112dd565b60006001600160a01b0384163b15610f7a57604051630a85bd0160e11b81526001600160a01b0385169063150b7a0290610ebc903390899088908890600401611675565b602060405180830381600087803b158015610ed657600080fd5b505af1925050508015610f06575060408051601f3d908101601f19168201909252610f03918101906115e6565b60015b610f60573d808015610f34576040519150601f19603f3d011682016040523d82523d6000602084013e610f39565b606091505b508051610f585760405162461bcd60e51b81526004016103ef906116c5565b805181602001fd5b6001600160e01b031916630a85bd0160e11b14905061096c565b506001949350505050565b6060610f90826107ff565b610ff45760405162461bcd60e51b815260206004820152602f60248201527f4552433732314d657461646174613a2055524920717565727920666f72206e6f60448201526e3732bc34b9ba32b73a103a37b5b2b760891b60648201526084016103ef565b600061100b60408051602081019091526000815290565b9050600081511161102b5760405180602001604052806000815250611056565b8061103584611090565b604051602001611046929190611646565b6040516020818303038152906040525b9392505050565b61106783836111aa565b6110746000848484610e78565b6105255760405162461bcd60e51b81526004016103ef906116c5565b6060816110b45750506040805180820190915260018152600360fc1b602082015290565b8160005b81156110de57806110c881611847565b91506110d79050600a836117b5565b91506110b8565b60008167ffffffffffffffff81111561110757634e487b7160e01b600052604160045260246000fd5b6040519080825280601f01601f191660200182016040528015611131576020820181803683370190505b5090505b841561096c576111466001836117c9565b9150611153600a86611862565b61115e90603061179d565b60f81b81838151811061118157634e487b7160e01b600052603260045260246000fd5b60200101906001600160f81b031916908160001a9053506111a3600a866117b5565b9450611135565b6001600160a01b0382166112005760405162461bcd60e51b815260206004820181905260248201527f4552433732313a206d696e7420746f20746865207a65726f206164647265737360448201526064016103ef565b611209816107ff565b156112565760405162461bcd60e51b815260206004820152601c60248201527f4552433732313a20746f6b656e20616c7265616479206d696e7465640000000060448201526064016103ef565b6001600160a01b038216600090815260036020526040812080546001929061127f90849061179d565b909155505060008181526002602052604080822080546001600160a01b0319166001600160a01b03861690811790915590518392907fddf252ad1be2c89b69c2b068fc378daa952ba7f163c4a11628f55a4df523b3ef908290a45050565b8280546112e99061180c565b90600052602060002090601f01602090048101928261130b5760008555611351565b82601f1061132457805160ff1916838001178555611351565b82800160010185558215611351579182015b82811115611351578251825591602001919060010190611336565b5061135d929150611361565b5090565b5b8082111561135d5760008155600101611362565b600067ffffffffffffffff80841115611391576113916118a2565b604051601f8501601f19908116603f011681019082821181831017156113b9576113b96118a2565b816040528093508581528686860111156113d257600080fd5b858560208301376000602087830101525050509392505050565b80356001600160a01b038116811461140357600080fd5b919050565b600060208284031215611419578081fd5b611056826113ec565b60008060408385031215611434578081fd5b61143d836113ec565b915061144b602084016113ec565b90509250929050565b600080600060608486031215611468578081fd5b611471846113ec565b925061147f602085016113ec565b9150604084013590509250925092565b600080600080608085870312156114a4578081fd5b6114ad856113ec565b93506114bb602086016113ec565b925060408501359150606085013567ffffffffffffffff8111156114dd578182fd5b8501601f810187136114ed578182fd5b6114fc87823560208401611376565b91505092959194509250565b6000806040838503121561151a578182fd5b611523836113ec565b915060208301358015158114611537578182fd5b809150509250929050565b60008060408385031215611554578182fd5b61155d836113ec565b9150602083013567ffffffffffffffff811115611578578182fd5b8301601f81018513611588578182fd5b61159785823560208401611376565b9150509250929050565b600080604083850312156115b3578182fd5b6115bc836113ec565b946020939093013593505050565b6000602082840312156115db578081fd5b8135611056816118b8565b6000602082840312156115f7578081fd5b8151611056816118b8565b600060208284031215611613578081fd5b5035919050565b600081518084526116328160208601602086016117e0565b601f01601f19169290920160200192915050565b600083516116588184602088016117e0565b83519083019061166c8183602088016117e0565b01949350505050565b6001600160a01b03858116825284166020820152604081018390526080606082018190526000906116a89083018461161a565b9695505050505050565b602081526000611056602083018461161a565b60208082526032908201527f4552433732313a207472616e7366657220746f206e6f6e20455243373231526560408201527131b2b4bb32b91034b6b83632b6b2b73a32b960711b606082015260800190565b6020808252818101527f4f776e61626c653a2063616c6c6572206973206e6f7420746865206f776e6572604082015260600190565b60208082526031908201527f4552433732313a207472616e736665722063616c6c6572206973206e6f74206f6040820152701ddb995c881b9bdc88185c1c1c9bdd9959607a1b606082015260800190565b600082198211156117b0576117b0611876565b500190565b6000826117c4576117c461188c565b500490565b6000828210156117db576117db611876565b500390565b60005b838110156117fb5781810151838201526020016117e3565b838111156106fa5750506000910152565b600181811c9082168061182057607f821691505b6020821081141561184157634e487b7160e01b600052602260045260246000fd5b50919050565b600060001982141561185b5761185b611876565b5060010190565b6000826118715761187161188c565b500690565b634e487b7160e01b600052601160045260246000fd5b634e487b7160e01b600052601260045260246000fd5b634e487b7160e01b600052604160045260246000fd5b6001600160e01b0319811681146107fc57600080fdfea2646970667358221220aa708dc38720f2bd669e73bcebbd2fb4e55a6c37b4102f3231efdf586a85bf5164736f6c634300080400334142434445464748494a4b4c4d4e4f505152535455565758595a6162636465666768696a6b6c6d6e6f707172737475767778797a303132333435363738392b2fa26469706673582212206ef462f408afacb50e3760b3335d604e40e13d409e5a210880c73860cfad7fdf64736f6c63430008040033",
  "linkReferences": {},
  "deployedLinkReferences": {}
}