{
  "_format": "hh-sol-artifact-1",
  "contractName": "Contract",
  "sourceName": "contracts/Contract.sol",
  "abi": [
    {
      "anonymous": false,
      "inputs": [
        {
          "indexed": true,
          "internalType": "bytes32",
          "name": "id",
          "type": "bytes32"
        },
        {
          "indexed": false,
          "internalType": "address",
          "name": "from",
          "type": "address"
        }
      ],
      "name": "FundsClaimed",
      "type": "event"
    },
    {
      "anonymous": false,
      "inputs": [
        {
          "indexed": true,
          "internalType": "bytes32",
          "name": "id",
          "type": "bytes32"
        },
        {
          "indexed": false,
          "internalType": "address",
          "name": "from",
          "type": "address"
        }
      ],
      "name": "FundsDonated",
      "type": "event"
    },
    {
      "anonymous": false,
      "inputs": [
        {
          "indexed": false,
          "internalType": "bytes32",
          "name": "id",
          "type": "bytes32"
        },
        {
          "indexed": true,
          "internalType": "address",
          "name": "from",
          "type": "address"
        }
      ],
      "name": "ProjectCreated",
      "type": "event"
    },
    {
      "inputs": [
        {
          "internalType": "bytes32",
          "name": "id",
          "type": "bytes32"
        }
      ],
      "name": "claimProjectFunds",
      "outputs": [],
      "stateMutability": "nonpayable",
      "type": "function"
    },
    {
      "inputs": [
        {
          "internalType": "string",
          "name": "title",
          "type": "string"
        },
        {
          "internalType": "string",
          "name": "description",
          "type": "string"
        },
        {
          "internalType": "uint256",
          "name": "requestedAmount",
          "type": "uint256"
        },
        {
          "internalType": "string",
          "name": "encodedImage",
          "type": "string"
        },
        {
          "internalType": "string",
          "name": "imageMeta",
          "type": "string"
        }
      ],
      "name": "createProject",
      "outputs": [],
      "stateMutability": "nonpayable",
      "type": "function"
    },
    {
      "inputs": [
        {
          "internalType": "bytes32",
          "name": "id",
          "type": "bytes32"
        }
      ],
      "name": "donateToProject",
      "outputs": [],
      "stateMutability": "payable",
      "type": "function"
    },
    {
      "inputs": [
        {
          "internalType": "bytes32",
          "name": "id",
          "type": "bytes32"
        }
      ],
      "name": "getProject",
      "outputs": [
        {
          "components": [
            {
              "internalType": "bytes32",
              "name": "id",
              "type": "bytes32"
            },
            {
              "internalType": "address",
              "name": "creator",
              "type": "address"
            },
            {
              "internalType": "string",
              "name": "title",
              "type": "string"
            },
            {
              "internalType": "uint256",
              "name": "requestedAmount",
              "type": "uint256"
            },
            {
              "internalType": "string",
              "name": "description",
              "type": "string"
            },
            {
              "internalType": "string",
              "name": "encodedImage",
              "type": "string"
            },
            {
              "internalType": "string",
              "name": "imageMeta",
              "type": "string"
            },
            {
              "internalType": "uint256",
              "name": "fundedAmount",
              "type": "uint256"
            },
            {
              "internalType": "uint256",
              "name": "claimedAmount",
              "type": "uint256"
            },
            {
              "internalType": "address[]",
              "name": "donators",
              "type": "address[]"
            },
            {
              "internalType": "uint256[]",
              "name": "donatedAmounts",
              "type": "uint256[]"
            }
          ],
          "internalType": "struct Contract.Project",
          "name": "",
          "type": "tuple"
        }
      ],
      "stateMutability": "view",
      "type": "function"
    },
    {
      "inputs": [],
      "name": "getProjects",
      "outputs": [
        {
          "components": [
            {
              "internalType": "bytes32",
              "name": "id",
              "type": "bytes32"
            },
            {
              "internalType": "address",
              "name": "creator",
              "type": "address"
            },
            {
              "internalType": "string",
              "name": "title",
              "type": "string"
            },
            {
              "internalType": "uint256",
              "name": "requestedAmount",
              "type": "uint256"
            },
            {
              "internalType": "string",
              "name": "description",
              "type": "string"
            },
            {
              "internalType": "string",
              "name": "encodedImage",
              "type": "string"
            },
            {
              "internalType": "string",
              "name": "imageMeta",
              "type": "string"
            },
            {
              "internalType": "uint256",
              "name": "fundedAmount",
              "type": "uint256"
            },
            {
              "internalType": "uint256",
              "name": "claimedAmount",
              "type": "uint256"
            },
            {
              "internalType": "address[]",
              "name": "donators",
              "type": "address[]"
            },
            {
              "internalType": "uint256[]",
              "name": "donatedAmounts",
              "type": "uint256[]"
            }
          ],
          "internalType": "struct Contract.Project[]",
          "name": "",
          "type": "tuple[]"
        }
      ],
      "stateMutability": "view",
      "type": "function"
    }
  ],
  "bytecode": "0x608060405234801561001057600080fd5b5061216d806100206000396000f3fe60806040526004361061004a5760003560e01c80631825f3911461004f5780632ff701111461007857806338bbef15146100a15780634b5f748a146100bd578063dcc60128146100fa575b600080fd5b34801561005b57600080fd5b506100766004803603810190610071919061147d565b610125565b005b34801561008457600080fd5b5061009f600480360381019061009a91906114a6565b61032d565b005b6100bb60048036038101906100b6919061147d565b61073e565b005b3480156100c957600080fd5b506100e460048036038101906100df919061147d565b610911565b6040516100f19190611c53565b60405180910390f35b34801561010657600080fd5b5061010f610cea565b60405161011c9190611b36565b60405180910390f35b600080600083815260200190815260200160002090508060010160009054906101000a900473ffffffffffffffffffffffffffffffffffffffff1673ffffffffffffffffffffffffffffffffffffffff163373ffffffffffffffffffffffffffffffffffffffff16146101cd576040517f08c379a00000000000000000000000000000000000000000000000000000000081526004016101c490611b73565b60405180910390fd5b6000816008015482600701546101e39190611dae565b905060008111610228576040517f08c379a000000000000000000000000000000000000000000000000000000000815260040161021f90611bb3565b60405180910390fd5b60003373ffffffffffffffffffffffffffffffffffffffff168260405161024e90611ada565b60006040518083038185875af1925050503d806000811461028b576040519150601f19603f3d011682016040523d82523d6000602084013e610290565b606091505b50509050806102d4576040517f08c379a00000000000000000000000000000000000000000000000000000000081526004016102cb90611b93565b60405180910390fd5b818360080160008282546102e89190611d58565b92505081905550837feff38a64c4ca4e4df09019118ef2dfa3e4d59b5c982b35299dac2f42f308a1f73360405161031f9190611b1b565b60405180910390a250505050565b60008989905011610373576040517f08c379a000000000000000000000000000000000000000000000000000000000815260040161036a90611bd3565b60405180910390fd5b600085116103b6576040517f08c379a00000000000000000000000000000000000000000000000000000000081526004016103ad90611c13565b60405180910390fd5b60006103c06111ec565b90505b600080600083815260200190815260200160002060020180546103e590611e5b565b905011156103fc576103f56111ec565b90506103c3565b61040461121c565b8181600001818152505033816020019073ffffffffffffffffffffffffffffffffffffffff16908173ffffffffffffffffffffffffffffffffffffffff16815250508a8a8080601f016020809104026020016040519081016040528093929190818152602001838380828437600081840152601f19601f82011690508083019250505050505050816040018190525088888080601f016020809104026020016040519081016040528093929190818152602001838380828437600081840152601f19601f8201169050808301925050505050505081608001819052508681606001818152505085858080601f016020809104026020016040519081016040528093929190818152602001838380828437600081840152601f19601f820116905080830192505050505050508160a0018190525083838080601f016020809104026020016040519081016040528093929190818152602001838380828437600081840152601f19601f820116905080830192505050505050508160c00181905250806000808481526020019081526020016000206000820151816000015560208201518160010160006101000a81548173ffffffffffffffffffffffffffffffffffffffff021916908373ffffffffffffffffffffffffffffffffffffffff160217905550604082015181600201908051906020019061060492919061128f565b5060608201518160030155608082015181600401908051906020019061062b92919061128f565b5060a082015181600501908051906020019061064892919061128f565b5060c082015181600601908051906020019061066592919061128f565b5060e082015181600701556101008201518160080155610120820151816009019080519060200190610698929190611315565b5061014082015181600a0190805190602001906106b692919061139f565b5090505060018290806001815401808255809150506001900390600052602060002001600090919091909150553373ffffffffffffffffffffffffffffffffffffffff167f72d3574e35dc5b7a620c3cbcb395fec0497a0427c47762bfe8deba4688f6ff18836040516107299190611b58565b60405180910390a25050505050505050505050565b60003411610781576040517f08c379a000000000000000000000000000000000000000000000000000000000815260040161077890611c33565b60405180910390fd5b600080600083815260200190815260200160002090508060010160009054906101000a900473ffffffffffffffffffffffffffffffffffffffff1673ffffffffffffffffffffffffffffffffffffffff163373ffffffffffffffffffffffffffffffffffffffff16141561082a576040517f08c379a000000000000000000000000000000000000000000000000000000000815260040161082190611bf3565b60405180910390fd5b3481600701600082825461083e9190611d58565b9250508190555080600901339080600181540180825580915050600190039060005260206000200160009091909190916101000a81548173ffffffffffffffffffffffffffffffffffffffff021916908373ffffffffffffffffffffffffffffffffffffffff16021790555080600a01349080600181540180825580915050600190039060005260206000200160009091909190915055817f7abfb7da4a842d91a4fadb66a2ef0e5e3ad8f0b93855ec7955fce7ae928dec4f336040516109059190611b1b565b60405180910390a25050565b61091961121c565b60008083815260200190815260200160002060405180610160016040529081600082015481526020016001820160009054906101000a900473ffffffffffffffffffffffffffffffffffffffff1673ffffffffffffffffffffffffffffffffffffffff1673ffffffffffffffffffffffffffffffffffffffff1681526020016002820180546109a790611e5b565b80601f01602080910402602001604051908101604052809291908181526020018280546109d390611e5b565b8015610a205780601f106109f557610100808354040283529160200191610a20565b820191906000526020600020905b815481529060010190602001808311610a0357829003601f168201915b5050505050815260200160038201548152602001600482018054610a4390611e5b565b80601f0160208091040260200160405190810160405280929190818152602001828054610a6f90611e5b565b8015610abc5780601f10610a9157610100808354040283529160200191610abc565b820191906000526020600020905b815481529060010190602001808311610a9f57829003601f168201915b50505050508152602001600582018054610ad590611e5b565b80601f0160208091040260200160405190810160405280929190818152602001828054610b0190611e5b565b8015610b4e5780601f10610b2357610100808354040283529160200191610b4e565b820191906000526020600020905b815481529060010190602001808311610b3157829003601f168201915b50505050508152602001600682018054610b6790611e5b565b80601f0160208091040260200160405190810160405280929190818152602001828054610b9390611e5b565b8015610be05780601f10610bb557610100808354040283529160200191610be0565b820191906000526020600020905b815481529060010190602001808311610bc357829003601f168201915b50505050508152602001600782015481526020016008820154815260200160098201805480602002602001604051908101604052809291908181526020018280548015610c8257602002820191906000526020600020905b8160009054906101000a900473ffffffffffffffffffffffffffffffffffffffff1673ffffffffffffffffffffffffffffffffffffffff1681526020019060010190808311610c38575b50505050508152602001600a8201805480602002602001604051908101604052809291908181526020018280548015610cda57602002820191906000526020600020905b815481526020019060010190808311610cc6575b5050505050815250509050919050565b6060600060018054905067ffffffffffffffff811115610d33577f4e487b7100000000000000000000000000000000000000000000000000000000600052604160045260246000fd5b604051908082528060200260200182016040528015610d6c57816020015b610d5961121c565b815260200190600190039081610d515790505b50905060005b6001805490508110156111e45760008060018381548110610dbc577f4e487b7100000000000000000000000000000000000000000000000000000000600052603260045260246000fd5b9060005260206000200154815260200190815260200160002060405180610160016040529081600082015481526020016001820160009054906101000a900473ffffffffffffffffffffffffffffffffffffffff1673ffffffffffffffffffffffffffffffffffffffff1673ffffffffffffffffffffffffffffffffffffffff168152602001600282018054610e5190611e5b565b80601f0160208091040260200160405190810160405280929190818152602001828054610e7d90611e5b565b8015610eca5780601f10610e9f57610100808354040283529160200191610eca565b820191906000526020600020905b815481529060010190602001808311610ead57829003601f168201915b5050505050815260200160038201548152602001600482018054610eed90611e5b565b80601f0160208091040260200160405190810160405280929190818152602001828054610f1990611e5b565b8015610f665780601f10610f3b57610100808354040283529160200191610f66565b820191906000526020600020905b815481529060010190602001808311610f4957829003601f168201915b50505050508152602001600582018054610f7f90611e5b565b80601f0160208091040260200160405190810160405280929190818152602001828054610fab90611e5b565b8015610ff85780601f10610fcd57610100808354040283529160200191610ff8565b820191906000526020600020905b815481529060010190602001808311610fdb57829003601f168201915b5050505050815260200160068201805461101190611e5b565b80601f016020809104026020016040519081016040528092919081815260200182805461103d90611e5b565b801561108a5780601f1061105f5761010080835404028352916020019161108a565b820191906000526020600020905b81548152906001019060200180831161106d57829003601f168201915b5050505050815260200160078201548152602001600882015481526020016009820180548060200260200160405190810160405280929190818152602001828054801561112c57602002820191906000526020600020905b8160009054906101000a900473ffffffffffffffffffffffffffffffffffffffff1673ffffffffffffffffffffffffffffffffffffffff16815260200190600101908083116110e2575b50505050508152602001600a820180548060200260200160405190810160405280929190818152602001828054801561118457602002820191906000526020600020905b815481526020019060010190808311611170575b5050505050815250508282815181106111c6577f4e487b7100000000000000000000000000000000000000000000000000000000600052603260045260246000fd5b602002602001018190525080806111dc90611e8d565b915050610d72565b508091505090565b60004442604051602001611201929190611aef565b60405160208183030381529060405280519060200120905090565b60405180610160016040528060008019168152602001600073ffffffffffffffffffffffffffffffffffffffff1681526020016060815260200160008152602001606081526020016060815260200160608152602001600081526020016000815260200160608152602001606081525090565b82805461129b90611e5b565b90600052602060002090601f0160209004810192826112bd5760008555611304565b82601f106112d657805160ff1916838001178555611304565b82800160010185558215611304579182015b828111156113035782518255916020019190600101906112e8565b5b50905061131191906113ec565b5090565b82805482825590600052602060002090810192821561138e579160200282015b8281111561138d5782518260006101000a81548173ffffffffffffffffffffffffffffffffffffffff021916908373ffffffffffffffffffffffffffffffffffffffff16021790555091602001919060010190611335565b5b50905061139b91906113ec565b5090565b8280548282559060005260206000209081019282156113db579160200282015b828111156113da5782518255916020019190600101906113bf565b5b5090506113e891906113ec565b5090565b5b808211156114055760008160009055506001016113ed565b5090565b60008135905061141881612109565b92915050565b60008083601f84011261143057600080fd5b8235905067ffffffffffffffff81111561144957600080fd5b60208301915083600182028301111561146157600080fd5b9250929050565b60008135905061147781612120565b92915050565b60006020828403121561148f57600080fd5b600061149d84828501611409565b91505092915050565b600080600080600080600080600060a08a8c0312156114c457600080fd5b60008a013567ffffffffffffffff8111156114de57600080fd5b6114ea8c828d0161141e565b995099505060208a013567ffffffffffffffff81111561150957600080fd5b6115158c828d0161141e565b975097505060406115288c828d01611468565b95505060608a013567ffffffffffffffff81111561154557600080fd5b6115518c828d0161141e565b945094505060808a013567ffffffffffffffff81111561157057600080fd5b61157c8c828d0161141e565b92509250509295985092959850929598565b600061159a83836115d2565b60208301905092915050565b60006115b28383611890565b905092915050565b60006115c68383611ab4565b60208301905092915050565b6115db81611de2565b82525050565b6115ea81611de2565b82525050565b60006115fb82611ca5565b6116058185611cf8565b935061161083611c75565b8060005b83811015611641578151611628888261158e565b975061163383611cd1565b925050600181019050611614565b5085935050505092915050565b600061165982611cb0565b6116638185611d09565b93508360208202850161167585611c85565b8060005b858110156116b1578484038952815161169285826115a6565b945061169d83611cde565b925060208a01995050600181019050611679565b50829750879550505050505092915050565b60006116ce82611cbb565b6116d88185611d1a565b93506116e383611c95565b8060005b838110156117145781516116fb88826115ba565b975061170683611ceb565b9250506001810190506116e7565b5085935050505092915050565b61172a81611df4565b82525050565b61173981611df4565b82525050565b600061174a82611cc6565b6117548185611d36565b9350611764818560208601611e28565b61176d81611f3e565b840191505092915050565b6000611785602983611d47565b915061179082611f4f565b604082019050919050565b60006117a8602883611d47565b91506117b382611f9e565b604082019050919050565b60006117cb601a83611d47565b91506117d682611fed565b602082019050919050565b60006117ee602083611d47565b91506117f982612016565b602082019050919050565b6000611811601e83611d47565b915061181c8261203f565b602082019050919050565b6000611834600083611d2b565b915061183f82612068565b600082019050919050565b6000611857602383611d47565b91506118628261206b565b604082019050919050565b600061187a602683611d47565b9150611885826120ba565b604082019050919050565b6000610160830160008301516118a96000860182611721565b5060208301516118bc60208601826115d2565b50604083015184820360408601526118d4828261173f565b91505060608301516118e96060860182611ab4565b5060808301518482036080860152611901828261173f565b91505060a083015184820360a086015261191b828261173f565b91505060c083015184820360c0860152611935828261173f565b91505060e083015161194a60e0860182611ab4565b5061010083015161195f610100860182611ab4565b5061012083015184820361012086015261197982826115f0565b91505061014083015184820361014086015261199582826116c3565b9150508091505092915050565b6000610160830160008301516119bb6000860182611721565b5060208301516119ce60208601826115d2565b50604083015184820360408601526119e6828261173f565b91505060608301516119fb6060860182611ab4565b5060808301518482036080860152611a13828261173f565b91505060a083015184820360a0860152611a2d828261173f565b91505060c083015184820360c0860152611a47828261173f565b91505060e0830151611a5c60e0860182611ab4565b50610100830151611a71610100860182611ab4565b50610120830151848203610120860152611a8b82826115f0565b915050610140830151848203610140860152611aa782826116c3565b9150508091505092915050565b611abd81611e1e565b82525050565b611ad4611acf82611e1e565b611ed6565b82525050565b6000611ae582611827565b9150819050919050565b6000611afb8285611ac3565b602082019150611b0b8284611ac3565b6020820191508190509392505050565b6000602082019050611b3060008301846115e1565b92915050565b60006020820190508181036000830152611b50818461164e565b905092915050565b6000602082019050611b6d6000830184611730565b92915050565b60006020820190508181036000830152611b8c81611778565b9050919050565b60006020820190508181036000830152611bac8161179b565b9050919050565b60006020820190508181036000830152611bcc816117be565b9050919050565b60006020820190508181036000830152611bec816117e1565b9050919050565b60006020820190508181036000830152611c0c81611804565b9050919050565b60006020820190508181036000830152611c2c8161184a565b9050919050565b60006020820190508181036000830152611c4c8161186d565b9050919050565b60006020820190508181036000830152611c6d81846119a2565b905092915050565b6000819050602082019050919050565b6000819050602082019050919050565b6000819050602082019050919050565b600081519050919050565b600081519050919050565b600081519050919050565b600081519050919050565b6000602082019050919050565b6000602082019050919050565b6000602082019050919050565b600082825260208201905092915050565b600082825260208201905092915050565b600082825260208201905092915050565b600081905092915050565b600082825260208201905092915050565b600082825260208201905092915050565b6000611d6382611e1e565b9150611d6e83611e1e565b9250827fffffffffffffffffffffffffffffffffffffffffffffffffffffffffffffffff03821115611da357611da2611ee0565b5b828201905092915050565b6000611db982611e1e565b9150611dc483611e1e565b925082821015611dd757611dd6611ee0565b5b828203905092915050565b6000611ded82611dfe565b9050919050565b6000819050919050565b600073ffffffffffffffffffffffffffffffffffffffff82169050919050565b6000819050919050565b60005b83811015611e46578082015181840152602081019050611e2b565b83811115611e55576000848401525b50505050565b60006002820490506001821680611e7357607f821691505b60208210811415611e8757611e86611f0f565b5b50919050565b6000611e9882611e1e565b91507fffffffffffffffffffffffffffffffffffffffffffffffffffffffffffffffff821415611ecb57611eca611ee0565b5b600182019050919050565b6000819050919050565b7f4e487b7100000000000000000000000000000000000000000000000000000000600052601160045260246000fd5b7f4e487b7100000000000000000000000000000000000000000000000000000000600052602260045260246000fd5b6000601f19601f8301169050919050565b7f4f6e6c792070726f6a6563742063726561746f722063616e20636c61696d207460008201527f68652066756e64732e0000000000000000000000000000000000000000000000602082015250565b7f4661696c656420746f2073656e642066756e647320746f2070726f6a6563742060008201527f63726561746f722e000000000000000000000000000000000000000000000000602082015250565b7f5468657265206973206e6f7468696e6720746f20636c61696d2e000000000000600082015250565b7f50726f6a656374207469746c65206d757374206e6f7420626520656d7074792e600082015250565b7f596f752063616e6e6f7420646f6e61746520746f20796f757273656c662e0000600082015250565b50565b7f52657175657374656420616d6f756e742062652067726561746572207468616e60008201527f20302e0000000000000000000000000000000000000000000000000000000000602082015250565b7f446f6e6174696f6e2076616c7565206d7573742062652067726561746572207460008201527f68616e20302e0000000000000000000000000000000000000000000000000000602082015250565b61211281611df4565b811461211d57600080fd5b50565b61212981611e1e565b811461213457600080fd5b5056fea264697066735822122051a8ef2f7aed6e8ff52093e5df861ec903f14a0d03e300edde101e2b8a471db664736f6c63430008040033",
  "linkReferences": {},
  "deployedLinkReferences": {}
}