{
  "_format": "hh-sol-artifact-1",
  "contractName": "Contract",
  "sourceName": "contracts/Contract.sol",
  "abi": [
    {
      "inputs": [],
      "stateMutability": "nonpayable",
      "type": "constructor"
    },
    {
      "anonymous": false,
      "inputs": [
        {
          "indexed": true,
          "internalType": "bytes32",
          "name": "id",
          "type": "bytes32"
        },
        {
          "indexed": false,
          "internalType": "address",
          "name": "from",
          "type": "address"
        }
      ],
      "name": "FundsClaimed",
      "type": "event"
    },
    {
      "anonymous": false,
      "inputs": [
        {
          "indexed": true,
          "internalType": "bytes32",
          "name": "id",
          "type": "bytes32"
        },
        {
          "indexed": false,
          "internalType": "address",
          "name": "from",
          "type": "address"
        }
      ],
      "name": "FundsDonated",
      "type": "event"
    },
    {
      "anonymous": false,
      "inputs": [
        {
          "indexed": false,
          "internalType": "bytes32",
          "name": "id",
          "type": "bytes32"
        },
        {
          "indexed": true,
          "internalType": "address",
          "name": "from",
          "type": "address"
        }
      ],
      "name": "ProjectCreated",
      "type": "event"
    },
    {
      "inputs": [
        {
          "internalType": "bytes32",
          "name": "id",
          "type": "bytes32"
        }
      ],
      "name": "claimProjectFunds",
      "outputs": [],
      "stateMutability": "nonpayable",
      "type": "function"
    },
    {
      "inputs": [
        {
          "internalType": "string",
          "name": "title",
          "type": "string"
        },
        {
          "internalType": "string",
          "name": "description",
          "type": "string"
        },
        {
          "internalType": "uint256",
          "name": "requestedAmount",
          "type": "uint256"
        },
        {
          "internalType": "string",
          "name": "image",
          "type": "string"
        }
      ],
      "name": "createProject",
      "outputs": [],
      "stateMutability": "nonpayable",
      "type": "function"
    },
    {
      "inputs": [
        {
          "internalType": "bytes32",
          "name": "id",
          "type": "bytes32"
        },
        {
          "internalType": "uint256",
          "name": "amount",
          "type": "uint256"
        }
      ],
      "name": "donateToProject",
      "outputs": [],
      "stateMutability": "nonpayable",
      "type": "function"
    },
    {
      "inputs": [
        {
          "internalType": "bytes32",
          "name": "id",
          "type": "bytes32"
        }
      ],
      "name": "getProject",
      "outputs": [
        {
          "components": [
            {
              "internalType": "bytes32",
              "name": "id",
              "type": "bytes32"
            },
            {
              "internalType": "address",
              "name": "creator",
              "type": "address"
            },
            {
              "internalType": "string",
              "name": "title",
              "type": "string"
            },
            {
              "internalType": "uint256",
              "name": "requestedAmount",
              "type": "uint256"
            },
            {
              "internalType": "string",
              "name": "description",
              "type": "string"
            },
            {
              "internalType": "string",
              "name": "image",
              "type": "string"
            },
            {
              "internalType": "uint256",
              "name": "fundedAmount",
              "type": "uint256"
            },
            {
              "internalType": "uint256",
              "name": "claimedAmount",
              "type": "uint256"
            },
            {
              "internalType": "address[]",
              "name": "donators",
              "type": "address[]"
            },
            {
              "internalType": "uint256",
              "name": "createdAt",
              "type": "uint256"
            },
            {
              "internalType": "contract Qavah",
              "name": "qavah",
              "type": "address"
            }
          ],
          "internalType": "struct Contract.Project",
          "name": "",
          "type": "tuple"
        }
      ],
      "stateMutability": "view",
      "type": "function"
    },
    {
      "inputs": [],
      "name": "getProjects",
      "outputs": [
        {
          "components": [
            {
              "internalType": "bytes32",
              "name": "id",
              "type": "bytes32"
            },
            {
              "internalType": "address",
              "name": "creator",
              "type": "address"
            },
            {
              "internalType": "string",
              "name": "title",
              "type": "string"
            },
            {
              "internalType": "uint256",
              "name": "requestedAmount",
              "type": "uint256"
            },
            {
              "internalType": "string",
              "name": "description",
              "type": "string"
            },
            {
              "internalType": "string",
              "name": "image",
              "type": "string"
            },
            {
              "internalType": "uint256",
              "name": "fundedAmount",
              "type": "uint256"
            },
            {
              "internalType": "uint256",
              "name": "claimedAmount",
              "type": "uint256"
            },
            {
              "internalType": "address[]",
              "name": "donators",
              "type": "address[]"
            },
            {
              "internalType": "uint256",
              "name": "createdAt",
              "type": "uint256"
            },
            {
              "internalType": "contract Qavah",
              "name": "qavah",
              "type": "address"
            }
          ],
          "internalType": "struct Contract.Project[]",
          "name": "",
          "type": "tuple[]"
        }
      ],
      "stateMutability": "view",
      "type": "function"
    },
    {
      "inputs": [
        {
          "internalType": "address",
          "name": "userAddress",
          "type": "address"
        }
      ],
      "name": "getProjectsByUser",
      "outputs": [
        {
          "components": [
            {
              "internalType": "bytes32",
              "name": "id",
              "type": "bytes32"
            },
            {
              "internalType": "address",
              "name": "creator",
              "type": "address"
            },
            {
              "internalType": "string",
              "name": "title",
              "type": "string"
            },
            {
              "internalType": "uint256",
              "name": "requestedAmount",
              "type": "uint256"
            },
            {
              "internalType": "string",
              "name": "description",
              "type": "string"
            },
            {
              "internalType": "string",
              "name": "image",
              "type": "string"
            },
            {
              "internalType": "uint256",
              "name": "fundedAmount",
              "type": "uint256"
            },
            {
              "internalType": "uint256",
              "name": "claimedAmount",
              "type": "uint256"
            },
            {
              "internalType": "address[]",
              "name": "donators",
              "type": "address[]"
            },
            {
              "internalType": "uint256",
              "name": "createdAt",
              "type": "uint256"
            },
            {
              "internalType": "contract Qavah",
              "name": "qavah",
              "type": "address"
            }
          ],
          "internalType": "struct Contract.Project[]",
          "name": "",
          "type": "tuple[]"
        }
      ],
      "stateMutability": "view",
      "type": "function"
    },
    {
      "inputs": [],
      "name": "getQavahsCount",
      "outputs": [
        {
          "internalType": "uint256",
          "name": "",
          "type": "uint256"
        }
      ],
      "stateMutability": "view",
      "type": "function"
    },
    {
      "inputs": [
        {
          "internalType": "address",
          "name": "tokenAddress",
          "type": "address"
        },
        {
          "internalType": "string",
          "name": "url",
          "type": "string"
        }
      ],
      "name": "initialize",
      "outputs": [],
      "stateMutability": "nonpayable",
      "type": "function"
    },
    {
      "inputs": [],
      "name": "siteUrl",
      "outputs": [
        {
          "internalType": "string",
          "name": "",
          "type": "string"
        }
      ],
      "stateMutability": "view",
      "type": "function"
    },
    {
      "inputs": [],
      "name": "usdTokenAddress",
      "outputs": [
        {
          "internalType": "address",
          "name": "",
          "type": "address"
        }
      ],
      "stateMutability": "view",
      "type": "function"
    }
  ],
  "bytecode": "0x60806040523480156200001157600080fd5b50600054610100900460ff166200002f5760005460ff161562000039565b620000396200009e565b620000615760405162461bcd60e51b81526004016200005890620000cb565b60405180910390fd5b600054610100900460ff1615801562000084576000805461ffff19166101011790555b801562000097576000805461ff00191690555b5062000124565b6000620000b630620000bc60201b620017391760201c565b15905090565b6001600160a01b03163b151590565b602080825281016200011e81602e81527f496e697469616c697a61626c653a20636f6e747261637420697320616c72656160208201526d191e481a5b9a5d1a585b1a5e995960921b604082015260600190565b92915050565b61516980620001346000396000f3fe60806040523480156200001157600080fd5b50600436106200009a5760003560e01c80631825f391146200009f5780633eac8dac14620000b85780634657571414620000ea5780634b5f748a14620001015780636993297a14620001275780637cc7e5ec1462000140578063b4eddc721462000157578063dcc60128146200017d578063f399e22e1462000187578063f5330bb4146200019e575b600080fd5b620000b6620000b036600462002257565b620001b7565b005b600054620000d2906201000090046001600160a01b031681565b604051620000e19190620030a0565b60405180910390f35b620000b6620000fb366004620022b7565b62000344565b620001186200011236600462002257565b620006b0565b604051620000e191906200321d565b6200013162000965565b604051620000e1919062003134565b620000b66200015136600462002278565b620009e5565b6200016e62000168366004620021ba565b62000e3e565b604051620000e1919062003121565b6200016e62001257565b620000b662000198366004620021db565b620015f0565b620001a8620016a3565b604051620000e1919062003144565b600081815260026020526040902060018101546001600160a01b03163314620001fd5760405162461bcd60e51b8152600401620001f4906200317b565b60405180910390fd5b60008160070154826006015462000215919062003284565b9050600081116200023a5760405162461bcd60e51b8152600401620001f4906200318d565b60005460405163a9059cbb60e01b8152620100009091046001600160a01b03169063a9059cbb9062000273903390859060040162003102565b602060405180830381600087803b1580156200028e57600080fd5b505af1158015620002a3573d6000803e3d6000fd5b505050506040513d601f19601f82011682018060405250810190620002c9919062002236565b620002e85760405162461bcd60e51b8152600401620001f490620031f9565b80826007016000828254620002fe919062003230565b92505081905550827feff38a64c4ca4e4df09019118ef2dfa3e4d59b5c982b35299dac2f42f308a1f733604051620003379190620030a0565b60405180910390a2505050565b85620003645760405162461bcd60e51b8152600401620001f490620031b1565b600a6200037a670de0b6b3a7640000856200324b565b10156200039b5760405162461bcd60e51b8152600401620001f490620031e7565b600354604051600091620003b59142919060200162003076565b604051602081830303815290604052805190602001209050600260008281526020019081526020016000206002018054620003f09062003306565b159050620004125760405162461bcd60e51b8152600401620001f4906200319f565b6200041c62001f50565b8181523360208083019190915260408051601f8b01839004830281018301909152898152908a908a908190840183828082843760009201919091525050505060408083019190915280516020601f8901819004810282018101909252878152908890889081908401838280828437600092019190915250505050608082015260608101859052604080516020601f860181900481028201810190925284815290859085908190840183828082843760009201919091525050505060a082015242610120820152604051620004f09062001fbf565b604051809103906000f0801580156200050d573d6000803e3d6000fd5b506001600160a01b0390811661014083015260008381526002602081815260409283902085518155818601516001820180546001600160a01b03191691909616179094559184015180518594936200056a93850192019062001fcd565b5060608201516003820155608082015180516200059291600484019160209091019062001fcd565b5060a08201518051620005b091600584019160209091019062001fcd565b5060c0820151600682015560e082015160078201556101008201518051620005e39160088401916020909101906200205c565b50610120820151600982015561014090910151600a90910180546001600160a01b0319166001600160a01b039092169190911790556003805460018181019092557fc2575a0e9e593c00f959f8c92f12db2869c3395a3b0502d05e2516446f71f85b01839055336000818152600460209081526040808320805495860181558352912090920184905590517f72d3574e35dc5b7a620c3cbcb395fec0497a0427c47762bfe8deba4688f6ff18906200069d90859062003134565b60405180910390a2505050505050505050565b620006ba62001f50565b6000828152600260208181526040928390208351610160810185528154815260018201546001600160a01b03169281019290925291820180549193840191620007039062003306565b80601f0160208091040260200160405190810160405280929190818152602001828054620007319062003306565b8015620007825780601f10620007565761010080835404028352916020019162000782565b820191906000526020600020905b8154815290600101906020018083116200076457829003601f168201915b5050505050815260200160038201548152602001600482018054620007a79062003306565b80601f0160208091040260200160405190810160405280929190818152602001828054620007d59062003306565b8015620008265780601f10620007fa5761010080835404028352916020019162000826565b820191906000526020600020905b8154815290600101906020018083116200080857829003601f168201915b50505050508152602001600582018054620008419062003306565b80601f01602080910402602001604051908101604052809291908181526020018280546200086f9062003306565b8015620008c05780601f106200089457610100808354040283529160200191620008c0565b820191906000526020600020905b815481529060010190602001808311620008a257829003601f168201915b505050505081526020016006820154815260200160078201548152602001600882018054806020026020016040519081016040528092919081815260200182805480156200093857602002820191906000526020600020905b81546001600160a01b0316815260019091019060200180831162000919575b505050918352505060098201546020820152600a909101546001600160a01b031660409091015292915050565b600080805b600354811015620009df5760026000600383815481106200099b57634e487b7160e01b600052603260045260246000fd5b906000526020600020015481526020019081526020016000206008018054905082620009c8919062003230565b915080620009d68162003331565b9150506200096a565b50919050565b6000828152600260205260409020600381015460068201541062000a1d5760405162461bcd60e51b8152600401620001f49062003157565b60018101546001600160a01b031633141562000a4d5760405162461bcd60e51b8152600401620001f490620031d5565b6000546040516323b872dd60e01b8152620100009091046001600160a01b0316906323b872dd9062000a8890339030908790600401620030b0565b602060405180830381600087803b15801562000aa357600080fd5b505af115801562000ab8573d6000803e3d6000fd5b505050506040513d601f19601f8201168201806040525081019062000ade919062002236565b62000afd5760405162461bcd60e51b8152600401620001f490620031f9565b600381015460009062000b1284606462003262565b62000b1e91906200324b565b90506000811162000b435760405162461bcd60e51b8152600401620001f4906200320b565b600082600301548360060154606462000b5d919062003262565b62000b6991906200324b565b90506000606484600301548462000b81919062003262565b62000b8d91906200324b565b90508084600601600082825462000ba5919062003230565b9091555050600884018054600181810183556000928352602080842090920180546001600160a01b03191633908117909155835260048252604083208054808301825590845291832090910188905562000c0c9062000c0690859062003230565b62001748565b62000c1c62000c06868662003230565b62000c2a62000c0662000965565b62000c3d8860050189600001546200187d565b6002890162000c5962000c06670de0b6b3a7640000896200324b565b62000c8c6064670de0b6b3a764000062000c748b8362003262565b62000c8091906200324b565b62000c06919062003348565b60405160200162000ca4979695949392919062002b1d565b6040516020818303038152906040529050600062000cc562000c0662000965565b600162000cd28a62001a97565b60405160200162000ce592919062002920565b60405160208183030381529060405262000cff8462001af2565b62000d1762000c06670de0b6b3a7640000886200324b565b62000d326064670de0b6b3a764000062000c748a8362003262565b62000d3d4262001748565b60405160200162000d549695949392919062002a11565b60408051601f19818403018152919052600a8701549091506001600160a01b031663d204c45e3362000d868462001af2565b60405160200162000d98919062003042565b6040516020818303038152906040526040518363ffffffff1660e01b815260040162000dc6929190620030de565b600060405180830381600087803b15801562000de157600080fd5b505af115801562000df6573d6000803e3d6000fd5b50505050877f7abfb7da4a842d91a4fadb66a2ef0e5e3ad8f0b93855ec7955fce7ae928dec4f3360405162000e2c9190620030a0565b60405180910390a25050505050505050565b6001600160a01b038116600090815260046020908152604080832080548251818502810185019093528083526060949383018282801562000e9f57602002820191906000526020600020905b81548152602001906001019080831162000e8a575b50505050509050600081516001600160401b0381111562000ed057634e487b7160e01b600052604160045260246000fd5b60405190808252806020026020018201604052801562000f0d57816020015b62000ef962001f50565b81526020019060019003908162000eef5790505b50905060005b82518110156200124f576002600084838151811062000f4257634e487b7160e01b600052603260045260246000fd5b6020026020010151815260200190815260200160002060405180610160016040529081600082015481526020016001820160009054906101000a90046001600160a01b03166001600160a01b03166001600160a01b0316815260200160028201805462000faf9062003306565b80601f016020809104026020016040519081016040528092919081815260200182805462000fdd9062003306565b80156200102e5780601f1062001002576101008083540402835291602001916200102e565b820191906000526020600020905b8154815290600101906020018083116200101057829003601f168201915b5050505050815260200160038201548152602001600482018054620010539062003306565b80601f0160208091040260200160405190810160405280929190818152602001828054620010819062003306565b8015620010d25780601f10620010a657610100808354040283529160200191620010d2565b820191906000526020600020905b815481529060010190602001808311620010b457829003601f168201915b50505050508152602001600582018054620010ed9062003306565b80601f01602080910402602001604051908101604052809291908181526020018280546200111b9062003306565b80156200116c5780601f1062001140576101008083540402835291602001916200116c565b820191906000526020600020905b8154815290600101906020018083116200114e57829003601f168201915b50505050508152602001600682015481526020016007820154815260200160088201805480602002602001604051908101604052809291908181526020018280548015620011e457602002820191906000526020600020905b81546001600160a01b03168152600190910190602001808311620011c5575b505050918352505060098201546020820152600a909101546001600160a01b031660409091015282518390839081106200122e57634e487b7160e01b600052603260045260246000fd5b60200260200101819052508080620012469062003331565b91505062000f13565b509392505050565b6003546060906000906001600160401b038111156200128657634e487b7160e01b600052604160045260246000fd5b604051908082528060200260200182016040528015620012c357816020015b620012af62001f50565b815260200190600190039081620012a55790505b50905060005b600354811015620009df576002600060038381548110620012fa57634e487b7160e01b600052603260045260246000fd5b6000918252602080832090910154835282810193909352604091820190208151610160810183528154815260018201546001600160a01b0316938101939093526002810180549192840191620013509062003306565b80601f01602080910402602001604051908101604052809291908181526020018280546200137e9062003306565b8015620013cf5780601f10620013a357610100808354040283529160200191620013cf565b820191906000526020600020905b815481529060010190602001808311620013b157829003601f168201915b5050505050815260200160038201548152602001600482018054620013f49062003306565b80601f0160208091040260200160405190810160405280929190818152602001828054620014229062003306565b8015620014735780601f10620014475761010080835404028352916020019162001473565b820191906000526020600020905b8154815290600101906020018083116200145557829003601f168201915b505050505081526020016005820180546200148e9062003306565b80601f0160208091040260200160405190810160405280929190818152602001828054620014bc9062003306565b80156200150d5780601f10620014e1576101008083540402835291602001916200150d565b820191906000526020600020905b815481529060010190602001808311620014ef57829003601f168201915b505050505081526020016006820154815260200160078201548152602001600882018054806020026020016040519081016040528092919081815260200182805480156200158557602002820191906000526020600020905b81546001600160a01b0316815260019091019060200180831162001566575b505050918352505060098201546020820152600a909101546001600160a01b03166040909101528251839083908110620015cf57634e487b7160e01b600052603260045260246000fd5b60200260200101819052508080620015e79062003331565b915050620012c9565b600054610100900460ff166200160d5760005460ff161562001617565b6200161762001c63565b620016365760405162461bcd60e51b8152600401620001f490620031c3565b600054610100900460ff1615801562001659576000805461ffff19166101011790555b6000805462010000600160b01b031916620100006001600160a01b038716021790556200168960018484620020b4565b5080156200169d576000805461ff00191690555b50505050565b60018054620016b29062003306565b80601f0160208091040260200160405190810160405280929190818152602001828054620016e09062003306565b8015620017315780601f10620017055761010080835404028352916020019162001731565b820191906000526020600020905b8154815290600101906020018083116200171357829003601f168201915b505050505081565b6001600160a01b03163b151590565b6060816200176d5750506040805180820190915260018152600360fc1b602082015290565b8160005b81156200179d5780620017848162003331565b9150620017959050600a836200324b565b915062001771565b6000816001600160401b03811115620017c657634e487b7160e01b600052604160045260246000fd5b6040519080825280601f01601f191660200182016040528015620017f1576020820181803683370190505b5090505b841562001875576200180960018362003284565b915062001818600a8662003348565b6200182590603062003230565b60f81b8183815181106200184957634e487b7160e01b600052603260045260246000fd5b60200101906001600160f81b031916908160001a9053506200186d600a866200324b565b9450620017f5565b949350505050565b6060600a60006200188f828062003262565b6001600160401b03811115620018b557634e487b7160e01b600052604160045260246000fd5b604051908082528060200260200182016040528015620018ea57816020015b6060815260200190600190039081620018d45790505b50905060005b8281101562001a0b5760005b83811015620019f5578662001924856200191885606462003262565b62000c0691906200324b565b6200195086600162001937868362003284565b62001943919062003284565b6200191890606462003262565b6200196387600162001937888362003284565b62001975886200191887606462003262565b6040516020016200198b9594939291906200292e565b60408051601f198184030181529190528382620019a9878662003262565b620019b5919062003230565b81518110620019d457634e487b7160e01b600052603260045260246000fd5b60200260200101819052508080620019ec9062003331565b915050620018fc565b508062001a028162003331565b915050620018f0565b5062001a18818562001c76565b606060005b825181101562001a8b578183828151811062001a4957634e487b7160e01b600052603260045260246000fd5b602002602001015160405160200162001a6492919062002904565b6040516020818303038152906040529150808062001a829062003331565b91505062001a1d565b50925050505b92915050565b60608162001abf5750506040805180820190915260048152630307830360e41b602082015290565b8160005b811562001ae6578062001ad68162003331565b915050600882901c915062001ac3565b62001875848262001d83565b606081516000141562001b1357505060408051602081019091526000815290565b6000604051806060016040528060408152602001620050f4604091399050600060038451600262001b45919062003230565b62001b5191906200324b565b62001b5e90600462003262565b6001600160401b0381111562001b8457634e487b7160e01b600052604160045260246000fd5b6040519080825280601f01601f19166020018201604052801562001baf576020820181803683370190505b509050600182016020820185865187015b8082101562001c1d576003820191508151603f8160121c168501518453600184019350603f81600c1c168501518453600184019350603f8160061c168501518453600184019350603f811685015184536001840193505062001bc0565b505060038651066001811462001c3c576002811462001c505762001c58565b603d6001830353603d600283035362001c58565b603d60018303535b509195945050505050565b600062001c703062001739565b15905090565b60006001835162001c88919062003284565b90505b801562001d7e57600081845162001ca3919062003284565b62001caf908462003348565b9050600084838151811062001cd457634e487b7160e01b600052603260045260246000fd5b60200260200101519050600085838151811062001d0157634e487b7160e01b600052603260045260246000fd5b602002602001015190508086858151811062001d2d57634e487b7160e01b600052603260045260246000fd5b60200260200101819052508186848151811062001d5a57634e487b7160e01b600052603260045260246000fd5b6020026020010181905250505050808062001d7590620032ec565b91505062001c8b565b505050565b6060600062001d9483600262003262565b62001da190600262003230565b6001600160401b0381111562001dc757634e487b7160e01b600052604160045260246000fd5b6040519080825280601f01601f19166020018201604052801562001df2576020820181803683370190505b509050600360fc1b8160008151811062001e1c57634e487b7160e01b600052603260045260246000fd5b60200101906001600160f81b031916908160001a905350600f60fb1b8160018151811062001e5a57634e487b7160e01b600052603260045260246000fd5b60200101906001600160f81b031916908160001a905350600062001e8084600262003262565b62001e8d90600162003230565b90505b600181111562001f27576f181899199a1a9b1b9c1cb0b131b232b360811b85600f166010811062001ed157634e487b7160e01b600052603260045260246000fd5b1a60f81b82828151811062001ef657634e487b7160e01b600052603260045260246000fd5b60200101906001600160f81b031916908160001a90535060049490941c9362001f1f81620032ec565b905062001e90565b50831562001f495760405162461bcd60e51b8152600401620001f49062003169565b9392505050565b6040518061016001604052806000801916815260200160006001600160a01b03168152602001606081526020016000815260200160608152602001606081526020016000815260200160008152602001606081526020016000815260200160006001600160a01b031681525090565b611d2880620033cc83390190565b82805462001fdb9062003306565b90600052602060002090601f01602090048101928262001fff57600085556200204a565b82601f106200201a57805160ff19168380011785556200204a565b828001600101855582156200204a579182015b828111156200204a5782518255916020019190600101906200202d565b506200205892915062002131565b5090565b8280548282559060005260206000209081019282156200204a579160200282015b828111156200204a57825182546001600160a01b0319166001600160a01b039091161782556020909201916001909101906200207d565b828054620020c29062003306565b90600052602060002090601f016020900481019282620020e657600085556200204a565b82601f10620021015782800160ff198235161785556200204a565b828001600101855582156200204a579182015b828111156200204a57823582559160200191906001019062002114565b5b8082111562002058576000815560010162002132565b803562001a9181620033a1565b805162001a9181620033bb565b803562001a9181620033c4565b60008083601f8401126200218257600080fd5b5081356001600160401b038111156200219a57600080fd5b602083019150836001820283011115620021b357600080fd5b9250929050565b600060208284031215620021cd57600080fd5b600062001875848462002148565b600080600060408486031215620021f157600080fd5b6000620021ff868662002148565b93505060208401356001600160401b038111156200221c57600080fd5b6200222a868287016200216f565b92509250509250925092565b6000602082840312156200224957600080fd5b600062001875848462002155565b6000602082840312156200226a57600080fd5b600062001875848462002162565b600080604083850312156200228c57600080fd5b60006200229a858562002162565b9250506020620022ad8582860162002162565b9150509250929050565b60008060008060008060006080888a031215620022d357600080fd5b87356001600160401b03811115620022ea57600080fd5b620022f88a828b016200216f565b975097505060208801356001600160401b038111156200231757600080fd5b620023258a828b016200216f565b955095505060406200233a8a828b0162002162565b93505060608801356001600160401b038111156200235757600080fd5b620023658a828b016200216f565b925092505092959891949750929550565b60006200238483836200239a565b505060200190565b600062001f498383620027f9565b620023a5816200329e565b82525050565b6000620023b6825190565b80845260209384019383018060005b83811015620023ee578151620023dc888262002376565b975060208301925050600101620023c5565b509495945050505050565b600062002404825190565b808452602084019350836020820285016200241f8560200190565b8060005b858110156200245857848403895281516200243f85826200238c565b94506020830160209a909a019992505060010162002423565b5091979650505050505050565b80620023a5565b600062002477825190565b62002487818560208601620032bd565b9290920192915050565b620023a581620032b0565b6000620024a7825190565b808452602084019350620024c0818560208601620032bd565b601f01601f19169290920192915050565b60008154620024e08162003306565b600182168015620024fa57600181146200250c576200253e565b60ff198316865281860193506200253e565b60008581526020902060005b83811015620025365781548882015260019091019060200162002518565b838801955050505b50505092915050565b601381526000602082017221b0b6b830b4b3b71034b99031b637b9b2b21760691b815291505b5060200190565b60208082527f537472696e67733a20686578206c656e67746820696e73756666696369656e74910190815260006200256d565b602981526000602082017f4f6e6c792070726f6a6563742063726561746f722063616e20636c61696d2074815268343290333ab732399760b91b602082015291505b5060400190565b601a8152600060208201792a3432b9329034b9903737ba3434b733903a379031b630b4b69760311b815291506200256d565b600f81526000602082016e24b73a32b93730b61032b93937b91760891b815291506200256d565b60208082527f50726f6a656374207469746c65206d757374206e6f7420626520656d7074792e910190815260006200256d565b601760f91b815260005b5060010190565b602e81526000602082017f496e697469616c697a61626c653a20636f6e747261637420697320616c72656181526d191e481a5b9a5d1a585b1a5e995960921b60208201529150620025e9565b6c1e34b6b0b3b290343932b31e9160991b815260005b50600d0190565b6c01116101130b6b7bab73a111d1609d1b81526000620026ef565b61207d60f01b815260005b5060020190565b601e81526000602082017f596f752063616e6e6f7420646f6e61746520746f20796f757273656c662e0000815291506200256d565b602481526000602082017f52657175657374656420616d6f756e74206265206174206c65617374203130208152632aa9a21760e11b60208201529150620025e9565b601081526000602082016f2a3930b739b332b9103330b4b632b21760811b815291506200256d565b600f81526000602082016e20b6b7bab73a103a37b7903637bb9760891b815291506200256d565b61012960f51b815260006200271c565b805160009061016084019062002810858262002465565b5060208301516200282560208601826200239a565b50604083015184820360408601526200283f82826200249c565b915050606083015162002856606086018262002465565b50608083015184820360808601526200287082826200249c565b91505060a083015184820360a08601526200288c82826200249c565b91505060c0830151620028a360c086018262002465565b5060e0830151620028b860e086018262002465565b50610100830151848203610100860152620028d48282620023ab565b915050610120830151620028ed61012086018262002465565b506101408301516200124f61014086018262002491565b60006200291282856200246c565b91506200187582846200246c565b6000620029128285620024d1565b60006200293b82620026d9565b9150620029498288620024d1565b7f2220783d2234302220793d223734222077696474683d223332302220686569678152790d0e87a446270604440c6d8d2e05ae0c2e8d07a44d2dce6cae8560331b6020820152603a019150620029a082876200246c565b9150620029ad82620027e9565b9150620029bb82866200246c565b9150620029c882620027e9565b9150620029d682856200246c565b9150620029e382620027e9565b9150620029f182846200246c565b6b1294911f1e17b4b6b0b3b29f60a11b8152600c01979650505050505050565b717b20226e616d65223a20225161766168202360701b8152601201600062002a3a82896200246c565b72111610113232b9b1b934b83a34b7b7111d101160691b8152601301915062002a6482886200246c565b7f222c2022696d616765223a2022646174613a696d6167652f7376672b786d6c3b81526618985cd94d8d0b60ca1b6020820152602701915062002aa882876200246c565b915062002ab582620026f6565b915062002ac382866200246c565b915062002ad0826200267c565b915062002ade82856200246c565b6e01610113a34b6b2b9ba30b6b8111d1608d1b8152600f01915062002b0482846200246c565b915062002b118262002711565b98975050505050505050565b7f3c7376672076696577426f783d2230203020343030203430302220786d6c6e7381527f3d22687474703a2f2f7777772e77332e6f72672f323030302f737667223e3c7360208201527f74796c653e40696d706f72742075726c282268747470733a2f2f666f6e74732e60408201527f676f6f676c65617069732e636f6d2f637373323f66616d696c793d537061636560608201527f2b47726f7465736b3a77676874403430303b37303022293b202a207b20636f6c60808201527f6f723a20233631316636393b207d20746578742c2070207b20666f6e742d736960a08201527f7a653a20313470783b20666f6e742d66616d696c793a2022537061636520477260c08201527f6f7465736b222c2073616e732d73657269663b2066696c6c3a2063757272656e60e08201527f74436f6c6f723b207d20696d616765207b206f7061636974793a20302e323b20610100820152757d20696d6167653a6e74682d6f662d74797065286e2b60501b61012082015261013601600062002ca3828a6200246c565b70293a6e74682d6f662d74797065282d6e2b60781b8152601101915062002ccb82896200246c565b7f29207b206f7061636974793a20313b207d3c2f7374796c653e3c72656374207881527f3d2234302220793d223430222077696474683d2233323022206865696768743d60208201527f223334222066696c6c3d2223666263633563222f3e3c7265637420783d22343060408201527f2220793d22323534222077696474683d2233323022206865696768743d22313060608201527f36222066696c6c3d2223666263633563222f3e3c7265637420783d223339222060808201527f793d223339222077696474683d2233323222206865696768743d22333232222060a08201527f72783d2230222066696c6c3d226e6f6e6522207374726f6b653d22637572726560c08201527f6e74436f6c6f7222207374726f6b652d77696474683d2232222f3e3c7465787460e08201527f207374796c653d22666f6e742d7765696768743a20626f6c643b2220783d22356101008201527f30252220793d2236302220646f6d696e616e742d626173656c696e653d226d696101208201527f64646c652220746578742d616e63686f723d226d6964646c65223e716176616861014082015261202360f01b61016082015261016201915062002e8b82886200246c565b661e17ba32bc3a1f60c91b8152600701915062002ea982876200246c565b7f3c666f726569676e4f626a65637420783d2236302220793d223237302220776981527f6474683d2232383022206865696768743d223534223e3c70207374796c653d2260208201527f6d617267696e3a20303b20666f6e742d7765696768743a20626f6c643b22207860408201527f6d6c6e733d22687474703a2f2f7777772e77332e6f72672f313939392f78687460608201526336b6111f60e11b6080820152608401915062002f5c8286620024d1565b7f3c2f703e3c2f666f726569676e4f626a6563743e3c74657874207374796c653d81527f22666f6e742d73697a653a20313270783b20666f6e742d7765696768743a206e60208201527f6f726d616c3b2220783d223334302220793d223334302220746578742d616e636040820152713437b91e9132b732111f159e3a39b830b71f60711b6060820152607201915062002ff782856200246c565b915062003004826200267c565b91506200301282846200246c565b791e17ba39b830b71f1031aaa9a21e17ba32bc3a1f1e17b9bb339f60311b8152601a019998505050505050505050565b7f646174613a6170706c69636174696f6e2f6a736f6e3b6261736536342c0000008152601d01600062001f4982846200246c565b600062003084828562002465565b60208201915062003096828462002465565b5060200192915050565b6020810162001a9182846200239a565b60608101620030c082866200239a565b620030cf60208301856200239a565b62001875604083018462002465565b60408101620030ee82856200239a565b81810360208301526200187581846200249c565b604081016200311282856200239a565b62001f49602083018462002465565b6020808252810162001f498184620023f9565b6020810162001a91828462002465565b6020808252810162001f4981846200249c565b6020808252810162001a918162002547565b6020808252810162001a918162002574565b6020808252810162001a9181620025a7565b6020808252810162001a9181620025f0565b6020808252810162001a918162002622565b6020808252810162001a918162002649565b6020808252810162001a91816200268d565b6020808252810162001a918162002723565b6020808252810162001a918162002758565b6020808252810162001a91816200279a565b6020808252810162001a9181620027c2565b6020808252810162001f498184620027f9565b600082198211156200324657620032466200335f565b500190565b6000826200325d576200325d62003375565b500490565b60008160001904831182151516156200327f576200327f6200335f565b500290565b6000828210156200329957620032996200335f565b500390565b60006001600160a01b03821662001a91565b600062001a91826200329e565b60005b83811015620032da578181015183820152602001620032c0565b838111156200169d5750506000910152565b600081620032fe57620032fe6200335f565b506000190190565b6002810460018216806200331b57607f821691505b60208210811415620009df57620009df6200338b565b60006000198214156200268657620026866200335f565b6000826200335a576200335a62003375565b500690565b634e487b7160e01b600052601160045260246000fd5b634e487b7160e01b600052601260045260246000fd5b634e487b7160e01b600052602260045260246000fd5b620033ac816200329e565b8114620033b857600080fd5b50565b801515620033ac565b80620033ac56fe60806040523480156200001157600080fd5b5060408051808201825260058152640a2c2ecc2d60db1b60208083019182528351808501909452600384526228a0ab60e91b9084015281519192916200005a91600091620000e9565b50805162000070906001906020840190620000e9565b5050506200008d620000876200009360201b60201c565b62000097565b620001d6565b3390565b600780546001600160a01b038381166001600160a01b0319831681179093556040519116919082907f8be0079c531659141344cd1fd0a4f28419497f9722a3daafe3b4186f6b6457e090600090a35050565b828054620000f7906200018f565b90600052602060002090601f0160209004810192826200011b576000855562000166565b82601f106200013657805160ff191683800117855562000166565b8280016001018555821562000166579182015b828111156200016657825182559160200191906001019062000149565b506200017492915062000178565b5090565b5b8082111562000174576000815560010162000179565b600281046001821680620001a457607f821691505b60208210811415620001ba57620001ba620001c0565b50919050565b634e487b7160e01b600052602260045260246000fd5b611b4280620001e66000396000f3fe608060405234801561001057600080fd5b50600436106100db5760003560e01c806301ffc9a7146100e057806306fdde0314610109578063081812fc1461011e578063095ea7b31461013e57806323b872dd1461015357806342842e0e146101665780636352211e1461017957806370a082311461018c578063715018a6146101ac5780638da5cb5b146101b457806395d89b41146101bc578063a22cb465146101c4578063b88d4fde146101d7578063c87b56dd146101ea578063d204c45e146101fd578063e985e9c514610210578063f2fde38b14610223575b600080fd5b6100f36100ee3660046111b1565b610236565b60405161010091906117af565b60405180910390f35b610111610288565b60405161010091906117bd565b61013161012c3660046111ed565b61031a565b604051610100919061175d565b61015161014c366004611181565b610366565b005b610151610161366004611045565b6103ec565b610151610174366004611045565b61041d565b6101316101873660046111ed565b610438565b61019f61019a366004610fed565b61046d565b60405161010091906118ee565b6101516104b1565b6101316104ec565b6101116104fb565b6101516101d236600461110a565b61050a565b6101516101e5366004611092565b610519565b6101116101f83660046111ed565b610551565b61015161020b36600461113a565b61055c565b6100f361021e36600461100b565b6105ba565b610151610231366004610fed565b6105e8565b60006001600160e01b031982166380ac58cd60e01b148061026757506001600160e01b03198216635b5e139f60e01b145b8061028257506301ffc9a760e01b6001600160e01b03198316145b92915050565b606060008054610297906119cf565b80601f01602080910402602001604051908101604052809291908181526020018280546102c3906119cf565b80156103105780601f106102e557610100808354040283529160200191610310565b820191906000526020600020905b8154815290600101906020018083116102f357829003601f168201915b5050505050905090565b600061032582610649565b61034a5760405162461bcd60e51b81526004016103419061189e565b60405180910390fd5b506000908152600460205260409020546001600160a01b031690565b600061037182610438565b9050806001600160a01b0316836001600160a01b031614156103a55760405162461bcd60e51b8152600401610341906118ce565b336001600160a01b03821614806103c157506103c181336105ba565b6103dd5760405162461bcd60e51b81526004016103419061183e565b6103e78383610666565b505050565b6103f633826106d4565b6104125760405162461bcd60e51b8152600401610341906118de565b6103e7838383610759565b6103e783838360405180602001604052806000815250610519565b6000818152600260205260408120546001600160a01b0316806102825760405162461bcd60e51b81526004016103419061185e565b60006001600160a01b0382166104955760405162461bcd60e51b81526004016103419061184e565b506001600160a01b031660009081526003602052604090205490565b336104ba6104ec565b6001600160a01b0316146104e05760405162461bcd60e51b8152600401610341906118ae565b6104ea6000610869565b565b6007546001600160a01b031690565b606060018054610297906119cf565b6105153383836108bb565b5050565b61052333836106d4565b61053f5760405162461bcd60e51b8152600401610341906118de565b61054b8484848461095e565b50505050565b606061028282610991565b336105656104ec565b6001600160a01b03161461058b5760405162461bcd60e51b8152600401610341906118ae565b600061059660085490565b90506105a6600880546001019055565b6105b08382610ab6565b6103e78183610ad0565b6001600160a01b03918216600090815260056020908152604080832093909416825291909152205460ff1690565b336105f16104ec565b6001600160a01b0316146106175760405162461bcd60e51b8152600401610341906118ae565b6001600160a01b03811661063d5760405162461bcd60e51b8152600401610341906117de565b61064681610869565b50565b6000908152600260205260409020546001600160a01b0316151590565b600081815260046020526040902080546001600160a01b0319166001600160a01b038416908117909155819061069b82610438565b6001600160a01b03167f8c5be1e5ebec7d5bd14f71427d1e84f3dd0314c0f7b2291e5b200ac8c7c3b92560405160405180910390a45050565b60006106df82610649565b6106fb5760405162461bcd60e51b81526004016103419061182e565b600061070683610438565b9050806001600160a01b0316846001600160a01b031614806107415750836001600160a01b03166107368461031a565b6001600160a01b0316145b80610751575061075181856105ba565b949350505050565b826001600160a01b031661076c82610438565b6001600160a01b0316146107925760405162461bcd60e51b8152600401610341906117ee565b6001600160a01b0382166107b85760405162461bcd60e51b81526004016103419061180e565b6107c3600082610666565b6001600160a01b03831660009081526003602052604081208054600192906107ec90849061196f565b90915550506001600160a01b038216600090815260036020526040812080546001929061081a908490611943565b909155505060008181526002602052604080822080546001600160a01b0319166001600160a01b038681169182179092559151849391871691600080516020611aed83398151915291a4505050565b600780546001600160a01b038381166001600160a01b0319831681179093556040519116919082907f8be0079c531659141344cd1fd0a4f28419497f9722a3daafe3b4186f6b6457e090600090a35050565b816001600160a01b0316836001600160a01b031614156108ed5760405162461bcd60e51b81526004016103419061181e565b6001600160a01b0383811660008181526005602090815260408083209487168084529490915290819020805460ff1916851515179055517f17307eab39ab6107e8899845ad3d59bd9653f200f220920489ca2b5937696c31906109519085906117af565b60405180910390a3505050565b610969848484610759565b61097584848484610b14565b61054b5760405162461bcd60e51b8152600401610341906117ce565b606061099c82610649565b6109b85760405162461bcd60e51b81526004016103419061188e565b600082815260066020526040812080546109d1906119cf565b80601f01602080910402602001604051908101604052809291908181526020018280546109fd906119cf565b8015610a4a5780601f10610a1f57610100808354040283529160200191610a4a565b820191906000526020600020905b815481529060010190602001808311610a2d57829003601f168201915b505050505090506000610a6860408051602081019091526000815290565b9050805160001415610a7b575092915050565b815115610aad578082604051602001610a95929190611745565b60405160208183030381529060405292505050919050565b61075184610c21565b610515828260405180602001604052806000815250610cb1565b610ad982610649565b610af55760405162461bcd60e51b81526004016103419061186e565b600082815260066020908152604090912082516103e792840190610ebe565b60006001600160a01b0384163b15610c1657604051630a85bd0160e11b81526001600160a01b0385169063150b7a0290610b5890339089908890889060040161176b565b602060405180830381600087803b158015610b7257600080fd5b505af1925050508015610ba2575060408051601f3d908101601f19168201909252610b9f918101906111cf565b60015b610bfc573d808015610bd0576040519150601f19603f3d011682016040523d82523d6000602084013e610bd5565b606091505b508051610bf45760405162461bcd60e51b8152600401610341906117ce565b805181602001fd5b6001600160e01b031916630a85bd0160e11b149050610751565b506001949350505050565b6060610c2c82610649565b610c485760405162461bcd60e51b8152600401610341906118be565b6000610c5f60408051602081019091526000815290565b90506000815111610c7f5760405180602001604052806000815250610caa565b80610c8984610ce4565b604051602001610c9a929190611745565b6040516020818303038152906040525b9392505050565b610cbb8383610dfd565b610cc86000848484610b14565b6103e75760405162461bcd60e51b8152600401610341906117ce565b606081610d085750506040805180820190915260018152600360fc1b602082015290565b8160005b8115610d325780610d1c81611a29565b9150610d2b9050600a8361195b565b9150610d0c565b6000816001600160401b03811115610d5a57634e487b7160e01b600052604160045260246000fd5b6040519080825280601f01601f191660200182016040528015610d84576020820181803683370190505b5090505b841561075157610d9960018361196f565b9150610da6600a86611a44565b610db1906030611943565b60f81b818381518110610dd457634e487b7160e01b600052603260045260246000fd5b60200101906001600160f81b031916908160001a905350610df6600a8661195b565b9450610d88565b6001600160a01b038216610e235760405162461bcd60e51b81526004016103419061187e565b610e2c81610649565b15610e495760405162461bcd60e51b8152600401610341906117fe565b6001600160a01b0382166000908152600360205260408120805460019290610e72908490611943565b909155505060008181526002602052604080822080546001600160a01b0319166001600160a01b0386169081179091559051839290600080516020611aed833981519152908290a45050565b828054610eca906119cf565b90600052602060002090601f016020900481019282610eec5760008555610f32565b82601f10610f0557805160ff1916838001178555610f32565b82800160010185558215610f32579182015b82811115610f32578251825591602001919060010190610f17565b50610f3e929150610f42565b5090565b5b80821115610f3e5760008155600101610f43565b6000610f6a610f6584611918565b6118fc565b905082815260208101848484011115610f8257600080fd5b610f8d848285611997565b509392505050565b803561028281611aba565b803561028281611ace565b803561028281611ad6565b805161028281611ad6565b600082601f830112610fd257600080fd5b8135610751848260208601610f57565b803561028281611ae6565b600060208284031215610fff57600080fd5b60006107518484610f95565b6000806040838503121561101e57600080fd5b600061102a8585610f95565b925050602061103b85828601610f95565b9150509250929050565b60008060006060848603121561105a57600080fd5b60006110668686610f95565b935050602061107786828701610f95565b925050604061108886828701610fe2565b9150509250925092565b600080600080608085870312156110a857600080fd5b60006110b48787610f95565b94505060206110c587828801610f95565b93505060406110d687828801610fe2565b92505060608501356001600160401b038111156110f257600080fd5b6110fe87828801610fc1565b91505092959194509250565b6000806040838503121561111d57600080fd5b60006111298585610f95565b925050602061103b85828601610fa0565b6000806040838503121561114d57600080fd5b60006111598585610f95565b92505060208301356001600160401b0381111561117557600080fd5b61103b85828601610fc1565b6000806040838503121561119457600080fd5b60006111a08585610f95565b925050602061103b85828601610fe2565b6000602082840312156111c357600080fd5b60006107518484610fab565b6000602082840312156111e157600080fd5b60006107518484610fb6565b6000602082840312156111ff57600080fd5b60006107518484610fe2565b61121481611986565b82525050565b801515611214565b600061122c825190565b8084526020840193506112438185602086016119a3565b61124c81611ab0565b9093019392505050565b6000611260825190565b61126e8185602086016119a3565b9290920192915050565b603281526000602082017f4552433732313a207472616e7366657220746f206e6f6e20455243373231526581527131b2b4bb32b91034b6b83632b6b2b73a32b960711b602082015291505b5060400190565b602681526000602082017f4f776e61626c653a206e6577206f776e657220697320746865207a65726f206181526564647265737360d01b602082015291506112c3565b602581526000602082017f4552433732313a207472616e736665722066726f6d20696e636f72726563742081526437bbb732b960d91b602082015291506112c3565b601c81526000602082017b115490cdcc8c4e881d1bdad95b88185b1c9958591e481b5a5b9d195960221b815291505b5060200190565b602481526000602082017f4552433732313a207472616e7366657220746f20746865207a65726f206164648152637265737360e01b602082015291506112c3565b601981526000602082017822a9219b99189d1030b8383937bb32903a379031b0b63632b960391b8152915061137e565b602c81526000602082017f4552433732313a206f70657261746f7220717565727920666f72206e6f6e657881526b34b9ba32b73a103a37b5b2b760a11b602082015291506112c3565b603881526000602082017f4552433732313a20617070726f76652063616c6c6572206973206e6f74206f778152771b995c881b9bdc88185c1c1c9bdd995908199bdc88185b1b60421b602082015291506112c3565b602a81526000602082017f4552433732313a2062616c616e636520717565727920666f7220746865207a65815269726f206164647265737360b01b602082015291506112c3565b602981526000602082017f4552433732313a206f776e657220717565727920666f72206e6f6e657869737481526832b73a103a37b5b2b760b91b602082015291506112c3565b602e81526000602082017f45524337323155524953746f726167653a2055524920736574206f66206e6f6e81526d32bc34b9ba32b73a103a37b5b2b760911b602082015291506112c3565b60208082527f4552433732313a206d696e7420746f20746865207a65726f20616464726573739101908152600061137e565b603181526000602082017f45524337323155524953746f726167653a2055524920717565727920666f72208152703737b732bc34b9ba32b73a103a37b5b2b760791b602082015291506112c3565b602c81526000602082017f4552433732313a20617070726f76656420717565727920666f72206e6f6e657881526b34b9ba32b73a103a37b5b2b760a11b602082015291506112c3565b60208082527f4f776e61626c653a2063616c6c6572206973206e6f7420746865206f776e65729101908152600061137e565b602f81526000602082017f4552433732314d657461646174613a2055524920717565727920666f72206e6f81526e3732bc34b9ba32b73a103a37b5b2b760891b602082015291506112c3565b602181526000602082017f4552433732313a20617070726f76616c20746f2063757272656e74206f776e658152603960f91b602082015291506112c3565b603181526000602082017f4552433732313a207472616e736665722063616c6c6572206973206e6f74206f8152701ddb995c881b9bdc88185c1c1c9bdd9959607a1b602082015291506112c3565b80611214565b60006117518285611256565b91506107518284611256565b60208101610282828461120b565b60808101611779828761120b565b611786602083018661120b565b611793604083018561173f565b81810360608301526117a58184611222565b9695505050505050565b60208101610282828461121a565b60208082528101610caa8184611222565b6020808252810161028281611278565b60208082528101610282816112ca565b602080825281016102828161130d565b602080825281016102828161134f565b6020808252810161028281611385565b60208082528101610282816113c6565b60208082528101610282816113f6565b602080825281016102828161143f565b6020808252810161028281611494565b60208082528101610282816114db565b6020808252810161028281611521565b602080825281016102828161156c565b602080825281016102828161159e565b60208082528101610282816115ec565b6020808252810161028281611635565b6020808252810161028281611667565b60208082528101610282816116b3565b60208082528101610282816116f1565b60208101610282828461173f565b600061190760405190565b905061191382826119fc565b919050565b60006001600160401b0382111561193157611931611a9a565b61193a82611ab0565b60200192915050565b6000821982111561195657611956611a58565b500190565b60008261196a5761196a611a6e565b500490565b60008282101561198157611981611a58565b500390565b60006001600160a01b038216610282565b82818337506000910152565b60005b838110156119be5781810151838201526020016119a6565b8381111561054b5750506000910152565b6002810460018216806119e357607f821691505b602082108114156119f6576119f6611a84565b50919050565b611a0582611ab0565b81018181106001600160401b0382111715611a2257611a22611a9a565b6040525050565b6000600019821415611a3d57611a3d611a58565b5060010190565b600082611a5357611a53611a6e565b500690565b634e487b7160e01b600052601160045260246000fd5b634e487b7160e01b600052601260045260246000fd5b634e487b7160e01b600052602260045260246000fd5b634e487b7160e01b600052604160045260246000fd5b601f01601f191690565b611ac381611986565b811461064657600080fd5b801515611ac3565b6001600160e01b03198116611ac3565b80611ac356feddf252ad1be2c89b69c2b068fc378daa952ba7f163c4a11628f55a4df523b3efa2646970667358221220c888211cf1e552c6e84802d1ba53e5e6347713f8ba8d1c9b9112cb14925def6964736f6c634300080400334142434445464748494a4b4c4d4e4f505152535455565758595a6162636465666768696a6b6c6d6e6f707172737475767778797a303132333435363738392b2fa2646970667358221220694f3e3493b9379ece2ba0605db9f1262037d79688c45fb398237201e86ef78764736f6c63430008040033",
  "linkReferences": {},
  "deployedLinkReferences": {}
}