{
  "_format": "hh-sol-artifact-1",
  "contractName": "Contract",
  "sourceName": "contracts/Contract.sol",
  "abi": [
    {
      "inputs": [],
      "stateMutability": "nonpayable",
      "type": "constructor"
    },
    {
      "anonymous": false,
      "inputs": [
        {
          "indexed": true,
          "internalType": "bytes32",
          "name": "id",
          "type": "bytes32"
        },
        {
          "indexed": false,
          "internalType": "address",
          "name": "from",
          "type": "address"
        }
      ],
      "name": "FundsClaimed",
      "type": "event"
    },
    {
      "anonymous": false,
      "inputs": [
        {
          "indexed": true,
          "internalType": "bytes32",
          "name": "id",
          "type": "bytes32"
        },
        {
          "indexed": false,
          "internalType": "address",
          "name": "from",
          "type": "address"
        }
      ],
      "name": "FundsDonated",
      "type": "event"
    },
    {
      "anonymous": false,
      "inputs": [
        {
          "indexed": false,
          "internalType": "bytes32",
          "name": "id",
          "type": "bytes32"
        },
        {
          "indexed": true,
          "internalType": "address",
          "name": "from",
          "type": "address"
        }
      ],
      "name": "ProjectCreated",
      "type": "event"
    },
    {
      "inputs": [
        {
          "internalType": "bytes32",
          "name": "id",
          "type": "bytes32"
        }
      ],
      "name": "claimProjectFunds",
      "outputs": [],
      "stateMutability": "nonpayable",
      "type": "function"
    },
    {
      "inputs": [
        {
          "internalType": "string",
          "name": "title",
          "type": "string"
        },
        {
          "internalType": "string",
          "name": "description",
          "type": "string"
        },
        {
          "internalType": "uint256",
          "name": "requestedAmount",
          "type": "uint256"
        },
        {
          "internalType": "string",
          "name": "image",
          "type": "string"
        }
      ],
      "name": "createProject",
      "outputs": [],
      "stateMutability": "nonpayable",
      "type": "function"
    },
    {
      "inputs": [
        {
          "internalType": "bytes32",
          "name": "id",
          "type": "bytes32"
        },
        {
          "internalType": "uint256",
          "name": "amount",
          "type": "uint256"
        }
      ],
      "name": "donateToProject",
      "outputs": [],
      "stateMutability": "nonpayable",
      "type": "function"
    },
    {
      "inputs": [
        {
          "internalType": "bytes32",
          "name": "id",
          "type": "bytes32"
        }
      ],
      "name": "getProject",
      "outputs": [
        {
          "components": [
            {
              "internalType": "bytes32",
              "name": "id",
              "type": "bytes32"
            },
            {
              "internalType": "address",
              "name": "creator",
              "type": "address"
            },
            {
              "internalType": "string",
              "name": "title",
              "type": "string"
            },
            {
              "internalType": "uint256",
              "name": "requestedAmount",
              "type": "uint256"
            },
            {
              "internalType": "string",
              "name": "description",
              "type": "string"
            },
            {
              "internalType": "string",
              "name": "image",
              "type": "string"
            },
            {
              "internalType": "uint256",
              "name": "fundedAmount",
              "type": "uint256"
            },
            {
              "internalType": "uint256",
              "name": "claimedAmount",
              "type": "uint256"
            },
            {
              "internalType": "address[]",
              "name": "donators",
              "type": "address[]"
            },
            {
              "internalType": "uint256",
              "name": "createdAt",
              "type": "uint256"
            },
            {
              "internalType": "contract Qavah",
              "name": "qavah",
              "type": "address"
            }
          ],
          "internalType": "struct Contract.Project",
          "name": "",
          "type": "tuple"
        }
      ],
      "stateMutability": "view",
      "type": "function"
    },
    {
      "inputs": [],
      "name": "getProjects",
      "outputs": [
        {
          "components": [
            {
              "internalType": "bytes32",
              "name": "id",
              "type": "bytes32"
            },
            {
              "internalType": "address",
              "name": "creator",
              "type": "address"
            },
            {
              "internalType": "string",
              "name": "title",
              "type": "string"
            },
            {
              "internalType": "uint256",
              "name": "requestedAmount",
              "type": "uint256"
            },
            {
              "internalType": "string",
              "name": "description",
              "type": "string"
            },
            {
              "internalType": "string",
              "name": "image",
              "type": "string"
            },
            {
              "internalType": "uint256",
              "name": "fundedAmount",
              "type": "uint256"
            },
            {
              "internalType": "uint256",
              "name": "claimedAmount",
              "type": "uint256"
            },
            {
              "internalType": "address[]",
              "name": "donators",
              "type": "address[]"
            },
            {
              "internalType": "uint256",
              "name": "createdAt",
              "type": "uint256"
            },
            {
              "internalType": "contract Qavah",
              "name": "qavah",
              "type": "address"
            }
          ],
          "internalType": "struct Contract.Project[]",
          "name": "",
          "type": "tuple[]"
        }
      ],
      "stateMutability": "view",
      "type": "function"
    },
    {
      "inputs": [
        {
          "internalType": "address",
          "name": "userAddress",
          "type": "address"
        }
      ],
      "name": "getProjectsByUser",
      "outputs": [
        {
          "components": [
            {
              "internalType": "bytes32",
              "name": "id",
              "type": "bytes32"
            },
            {
              "internalType": "address",
              "name": "creator",
              "type": "address"
            },
            {
              "internalType": "string",
              "name": "title",
              "type": "string"
            },
            {
              "internalType": "uint256",
              "name": "requestedAmount",
              "type": "uint256"
            },
            {
              "internalType": "string",
              "name": "description",
              "type": "string"
            },
            {
              "internalType": "string",
              "name": "image",
              "type": "string"
            },
            {
              "internalType": "uint256",
              "name": "fundedAmount",
              "type": "uint256"
            },
            {
              "internalType": "uint256",
              "name": "claimedAmount",
              "type": "uint256"
            },
            {
              "internalType": "address[]",
              "name": "donators",
              "type": "address[]"
            },
            {
              "internalType": "uint256",
              "name": "createdAt",
              "type": "uint256"
            },
            {
              "internalType": "contract Qavah",
              "name": "qavah",
              "type": "address"
            }
          ],
          "internalType": "struct Contract.Project[]",
          "name": "",
          "type": "tuple[]"
        }
      ],
      "stateMutability": "view",
      "type": "function"
    },
    {
      "inputs": [],
      "name": "getQavahsCount",
      "outputs": [
        {
          "internalType": "uint256",
          "name": "",
          "type": "uint256"
        }
      ],
      "stateMutability": "view",
      "type": "function"
    },
    {
      "inputs": [
        {
          "internalType": "address",
          "name": "tokenAddress",
          "type": "address"
        },
        {
          "internalType": "string",
          "name": "url",
          "type": "string"
        }
      ],
      "name": "initialize",
      "outputs": [],
      "stateMutability": "nonpayable",
      "type": "function"
    },
    {
      "inputs": [],
      "name": "siteUrl",
      "outputs": [
        {
          "internalType": "string",
          "name": "",
          "type": "string"
        }
      ],
      "stateMutability": "view",
      "type": "function"
    },
    {
      "inputs": [],
      "name": "usdTokenAddress",
      "outputs": [
        {
          "internalType": "address",
          "name": "",
          "type": "address"
        }
      ],
      "stateMutability": "view",
      "type": "function"
    }
  ],
  "bytecode": "0x60806040523480156200001157600080fd5b50600054610100900460ff166200002f5760005460ff161562000039565b62000039620000de565b620000a15760405162461bcd60e51b815260206004820152602e60248201527f496e697469616c697a61626c653a20636f6e747261637420697320616c72656160448201526d191e481a5b9a5d1a585b1a5e995960921b606482015260840160405180910390fd5b600054610100900460ff16158015620000c4576000805461ffff19166101011790555b8015620000d7576000805461ff00191690555b506200010b565b6000620000f630620000fc60201b620019ca1760201c565b15905090565b6001600160a01b03163b151590565b61543d806200011b6000396000f3fe60806040523480156200001157600080fd5b5060043610620000ab5760003560e01c80637cc7e5ec116200006e5780637cc7e5ec1462000156578063b4eddc72146200016d578063dcc601281462000193578063f399e22e146200019d578063f5330bb414620001b457600080fd5b80631825f39114620000b05780633eac8dac14620000c95780634657571414620001005780634b5f748a14620001175780636993297a146200013d575b600080fd5b620000c7620000c136600462002ac0565b620001cd565b005b600054620000e3906201000090046001600160a01b031681565b6040516001600160a01b0390911681526020015b60405180910390f35b620000c76200011136600462002afb565b620003de565b6200012e6200012836600462002ac0565b620007cf565b604051620000f7919062003777565b6200014762000a84565b604051908152602001620000f7565b620000c76200016736600462002ad9565b62000b04565b620001846200017e36600462002a2a565b6200108d565b604051620000f79190620036fd565b62000184620014a7565b620000c7620001ae36600462002a47565b62001841565b620001be62001934565b604051620000f7919062003762565b600081815260026020526040902060018101546001600160a01b031633146200024f5760405162461bcd60e51b815260206004820152602960248201527f4f6e6c792070726f6a6563742063726561746f722063616e20636c61696d2074604482015268343290333ab732399760b91b60648201526084015b60405180910390fd5b600081600701548260060154620002679190620037e0565b905060008111620002bb5760405162461bcd60e51b815260206004820152601a60248201527f5468657265206973206e6f7468696e6720746f20636c61696d2e000000000000604482015260640162000246565b60005460405163a9059cbb60e01b815233600482015260248101839052620100009091046001600160a01b03169063a9059cbb90604401602060405180830381600087803b1580156200030d57600080fd5b505af115801562000322573d6000803e3d6000fd5b505050506040513d601f19601f8201168201806040525081019062000348919062002a9e565b620003895760405162461bcd60e51b815260206004820152601060248201526f2a3930b739b332b9103330b4b632b21760811b604482015260640162000246565b808260070160008282546200039f91906200378c565b909155505060405133815283907feff38a64c4ca4e4df09019118ef2dfa3e4d59b5c982b35299dac2f42f308a1f79060200160405180910390a2505050565b856200042d5760405162461bcd60e51b815260206004820181905260248201527f50726f6a656374207469746c65206d757374206e6f7420626520656d7074792e604482015260640162000246565b600a62000443670de0b6b3a764000085620037a7565b10156200049f5760405162461bcd60e51b8152602060048201526024808201527f52657175657374656420616d6f756e74206265206174206c65617374203130206044820152632aa9a21760e11b606482015260840162000246565b6003546040805142602082015290810191909152600090606001604051602081830303815290604052805190602001209050600260008281526020019081526020016000206002018054620004f49062003843565b159050620005375760405162461bcd60e51b815260206004820152600f60248201526e24b73a32b93730b61032b93937b91760891b604482015260640162000246565b62000541620027cb565b8181523360208083019190915260408051601f8b01839004830281018301909152898152908a908a908190840183828082843760009201919091525050505060408083019190915280516020601f8901819004810282018101909252878152908890889081908401838280828437600092019190915250505050608082015260608101859052604080516020601f860181900481028201810190925284815290859085908190840183828082843760009201919091525050505060a08201524261012082015260405162000615906200283a565b604051809103906000f08015801562000632573d6000803e3d6000fd5b506001600160a01b0390811661014083015260008381526002602081815260409283902085518155818601516001820180546001600160a01b03191691909616179094559184015180518594936200068f93850192019062002848565b506060820151600382015560808201518051620006b791600484019160209091019062002848565b5060a08201518051620006d591600584019160209091019062002848565b5060c0820151600682015560e08201516007820155610100820151805162000708916008840191602090910190620028d7565b50610120820151600982015561014090910151600a90910180546001600160a01b0319166001600160a01b039092169190911790556003805460018181019092557fc2575a0e9e593c00f959f8c92f12db2869c3395a3b0502d05e2516446f71f85b01839055336000818152600460209081526040808320805495860181558352918190209093018590555184815290917f72d3574e35dc5b7a620c3cbcb395fec0497a0427c47762bfe8deba4688f6ff18910160405180910390a2505050505050505050565b620007d9620027cb565b6000828152600260208181526040928390208351610160810185528154815260018201546001600160a01b03169281019290925291820180549193840191620008229062003843565b80601f0160208091040260200160405190810160405280929190818152602001828054620008509062003843565b8015620008a15780601f106200087557610100808354040283529160200191620008a1565b820191906000526020600020905b8154815290600101906020018083116200088357829003601f168201915b5050505050815260200160038201548152602001600482018054620008c69062003843565b80601f0160208091040260200160405190810160405280929190818152602001828054620008f49062003843565b8015620009455780601f10620009195761010080835404028352916020019162000945565b820191906000526020600020905b8154815290600101906020018083116200092757829003601f168201915b50505050508152602001600582018054620009609062003843565b80601f01602080910402602001604051908101604052809291908181526020018280546200098e9062003843565b8015620009df5780601f10620009b357610100808354040283529160200191620009df565b820191906000526020600020905b815481529060010190602001808311620009c157829003601f168201915b5050505050815260200160068201548152602001600782015481526020016008820180548060200260200160405190810160405280929190818152602001828054801562000a5757602002820191906000526020600020905b81546001600160a01b0316815260019091019060200180831162000a38575b505050918352505060098201546020820152600a909101546001600160a01b031660409091015292915050565b600080805b60035481101562000afe57600260006003838154811062000aba57634e487b7160e01b600052603260045260246000fd5b90600052602060002001548152602001908152602001600020600801805490508262000ae791906200378c565b91508062000af5816200387a565b91505062000a89565b50919050565b6000828152600260205260409020600381015460068201541062000b615760405162461bcd60e51b815260206004820152601360248201527221b0b6b830b4b3b71034b99031b637b9b2b21760691b604482015260640162000246565b60018101546001600160a01b031633141562000bc05760405162461bcd60e51b815260206004820152601e60248201527f596f752063616e6e6f7420646f6e61746520746f20796f757273656c662e0000604482015260640162000246565b6000546040516323b872dd60e01b815233600482015230602482015260448101849052620100009091046001600160a01b0316906323b872dd90606401602060405180830381600087803b15801562000c1857600080fd5b505af115801562000c2d573d6000803e3d6000fd5b505050506040513d601f19601f8201168201806040525081019062000c53919062002a9e565b62000c945760405162461bcd60e51b815260206004820152601060248201526f2a3930b739b332b9103330b4b632b21760811b604482015260640162000246565b600381015460009062000ca9846064620037be565b62000cb59190620037a7565b90506000811162000cfb5760405162461bcd60e51b815260206004820152600f60248201526e20b6b7bab73a103a37b7903637bb9760891b604482015260640162000246565b600082600301548360060154606462000d159190620037be565b62000d219190620037a7565b90506000606484600301548462000d399190620037be565b62000d459190620037a7565b90508084600601600082825462000d5d91906200378c565b9091555050600884018054600181810183556000928352602080842090920180546001600160a01b031916339081179091558352600482526040808420805480840182559085529383902090930189905582516101608101845287548152908701546001600160a01b031691810191909152600286018054620010509388929084019162000deb9062003843565b80601f016020809104026020016040519081016040528092919081815260200182805462000e199062003843565b801562000e6a5780601f1062000e3e5761010080835404028352916020019162000e6a565b820191906000526020600020905b81548152906001019060200180831162000e4c57829003601f168201915b505050505081526020016003820154815260200160048201805462000e8f9062003843565b80601f016020809104026020016040519081016040528092919081815260200182805462000ebd9062003843565b801562000f0e5780601f1062000ee25761010080835404028352916020019162000f0e565b820191906000526020600020905b81548152906001019060200180831162000ef057829003601f168201915b5050505050815260200160058201805462000f299062003843565b80601f016020809104026020016040519081016040528092919081815260200182805462000f579062003843565b801562000fa85780601f1062000f7c5761010080835404028352916020019162000fa8565b820191906000526020600020905b81548152906001019060200180831162000f8a57829003601f168201915b505050505081526020016006820154815260200160078201548152602001600882018054806020026020016040519081016040528092919081815260200182805480156200102057602002820191906000526020600020905b81546001600160a01b0316815260019091019060200180831162001001575b505050918352505060098201546020820152600a909101546001600160a01b0316604090910152848385620019d9565b60405133815286907f7abfb7da4a842d91a4fadb66a2ef0e5e3ad8f0b93855ec7955fce7ae928dec4f9060200160405180910390a2505050505050565b6001600160a01b0381166000908152600460209081526040808320805482518185028101850190935280835260609493830182828015620010ee57602002820191906000526020600020905b815481526020019060010190808311620010d9575b505050505090506000815167ffffffffffffffff8111156200112057634e487b7160e01b600052604160045260246000fd5b6040519080825280602002602001820160405280156200115d57816020015b62001149620027cb565b8152602001906001900390816200113f5790505b50905060005b82518110156200149f57600260008483815181106200119257634e487b7160e01b600052603260045260246000fd5b6020026020010151815260200190815260200160002060405180610160016040529081600082015481526020016001820160009054906101000a90046001600160a01b03166001600160a01b03166001600160a01b03168152602001600282018054620011ff9062003843565b80601f01602080910402602001604051908101604052809291908181526020018280546200122d9062003843565b80156200127e5780601f1062001252576101008083540402835291602001916200127e565b820191906000526020600020905b8154815290600101906020018083116200126057829003601f168201915b5050505050815260200160038201548152602001600482018054620012a39062003843565b80601f0160208091040260200160405190810160405280929190818152602001828054620012d19062003843565b8015620013225780601f10620012f65761010080835404028352916020019162001322565b820191906000526020600020905b8154815290600101906020018083116200130457829003601f168201915b505050505081526020016005820180546200133d9062003843565b80601f01602080910402602001604051908101604052809291908181526020018280546200136b9062003843565b8015620013bc5780601f106200139057610100808354040283529160200191620013bc565b820191906000526020600020905b8154815290600101906020018083116200139e57829003601f168201915b505050505081526020016006820154815260200160078201548152602001600882018054806020026020016040519081016040528092919081815260200182805480156200143457602002820191906000526020600020905b81546001600160a01b0316815260019091019060200180831162001415575b505050918352505060098201546020820152600a909101546001600160a01b031660409091015282518390839081106200147e57634e487b7160e01b600052603260045260246000fd5b6020026020010181905250808062001496906200387a565b91505062001163565b509392505050565b60035460609060009067ffffffffffffffff811115620014d757634e487b7160e01b600052604160045260246000fd5b6040519080825280602002602001820160405280156200151457816020015b62001500620027cb565b815260200190600190039081620014f65790505b50905060005b60035481101562000afe5760026000600383815481106200154b57634e487b7160e01b600052603260045260246000fd5b6000918252602080832090910154835282810193909352604091820190208151610160810183528154815260018201546001600160a01b0316938101939093526002810180549192840191620015a19062003843565b80601f0160208091040260200160405190810160405280929190818152602001828054620015cf9062003843565b8015620016205780601f10620015f45761010080835404028352916020019162001620565b820191906000526020600020905b8154815290600101906020018083116200160257829003601f168201915b5050505050815260200160038201548152602001600482018054620016459062003843565b80601f0160208091040260200160405190810160405280929190818152602001828054620016739062003843565b8015620016c45780601f106200169857610100808354040283529160200191620016c4565b820191906000526020600020905b815481529060010190602001808311620016a657829003601f168201915b50505050508152602001600582018054620016df9062003843565b80601f01602080910402602001604051908101604052809291908181526020018280546200170d9062003843565b80156200175e5780601f1062001732576101008083540402835291602001916200175e565b820191906000526020600020905b8154815290600101906020018083116200174057829003601f168201915b50505050508152602001600682015481526020016007820154815260200160088201805480602002602001604051908101604052809291908181526020018280548015620017d657602002820191906000526020600020905b81546001600160a01b03168152600190910190602001808311620017b7575b505050918352505060098201546020820152600a909101546001600160a01b031660409091015282518390839081106200182057634e487b7160e01b600052603260045260246000fd5b6020026020010181905250808062001838906200387a565b9150506200151a565b600054610100900460ff166200185e5760005460ff161562001862565b303b155b620018c75760405162461bcd60e51b815260206004820152602e60248201527f496e697469616c697a61626c653a20636f6e747261637420697320616c72656160448201526d191e481a5b9a5d1a585b1a5e995960921b606482015260840162000246565b600054610100900460ff16158015620018ea576000805461ffff19166101011790555b6000805462010000600160b01b031916620100006001600160a01b038716021790556200191a600184846200292f565b5080156200192e576000805461ff00191690555b50505050565b60018054620019439062003843565b80601f0160208091040260200160405190810160405280929190818152602001828054620019719062003843565b8015620019c25780601f106200199657610100808354040283529160200191620019c2565b820191906000526020600020905b815481529060010190602001808311620019a457829003601f168201915b505050505081565b6001600160a01b03163b151590565b6000620019e98585858562001a9c565b90506000620019fe8287600001518662001af9565b90508561014001516001600160a01b031663d204c45e3362001a208462001bc5565b60405160200162001a329190620032fd565b6040516020818303038152906040526040518363ffffffff1660e01b815260040162001a60929190620036d7565b600060405180830381600087803b15801562001a7b57600080fd5b505af115801562001a90573d6000803e3d6000fd5b50505050505050505050565b606062001aaf8560a00151858462001d37565b855162001abc9062001d7e565b62001acc8760400151866200213b565b60405160200162001ae09392919062002d1d565b6040516020818303038152906040529050949350505050565b606062001b0f62001b0962000a84565b6200219c565b600162001b1c85620022d2565b60405160200162001b2f92919062002e66565b60408051601f198184030181529190528562001b5862001b09670de0b6b3a764000087620037a7565b62001b8b6064670de0b6b3a764000062001b738983620037be565b62001b7f9190620037a7565b62001b09919062003898565b62001b96426200219c565b60405160200162001bad969594939291906200340b565b60405160208183030381529060405290509392505050565b606081516000141562001be657505060408051602081019091526000815290565b6000604051806060016040528060408152602001620053c8604091399050600060038451600262001c1891906200378c565b62001c249190620037a7565b62001c31906004620037be565b67ffffffffffffffff81111562001c5857634e487b7160e01b600052604160045260246000fd5b6040519080825280601f01601f19166020018201604052801562001c83576020820181803683370190505b509050600182016020820185865187015b8082101562001cf1576003820191508151603f8160121c168501518453600184019350603f81600c1c168501518453600184019350603f8160061c168501518453600184019350603f811685015184535060018301925062001c94565b505060038651066001811462001d10576002811462001d245762001d2c565b603d6001830353603d600283035362001d2c565b603d60018303535b509195945050505050565b606062001d4a62001b098360016200378c565b62001d5a62001b0985856200378c565b8562001d6962001b0962000a84565b60405160200162001bad949392919062002f16565b6060600062001d8c6200232d565b905062001d9a8184620024c1565b60006005825162001dac9190620037a7565b67ffffffffffffffff81111562001dd357634e487b7160e01b600052604160045260246000fd5b60405190808252806020026020018201604052801562001e0857816020015b606081526020019060019003908162001df25790505b50905060005b825181101562001f905782818151811062001e3957634e487b7160e01b600052603260045260246000fd5b60200260200101518382600162001e5191906200378c565b8151811062001e7057634e487b7160e01b600052603260045260246000fd5b60200260200101518483600262001e8891906200378c565b8151811062001ea757634e487b7160e01b600052603260045260246000fd5b60200260200101518584600362001ebf91906200378c565b8151811062001ede57634e487b7160e01b600052603260045260246000fd5b60200260200101518685600462001ef691906200378c565b8151811062001f1557634e487b7160e01b600052603260045260246000fd5b602002602001015160405160200162001f3395949392919062002d66565b60408051601f198184030181529190528262001f51600584620037a7565b8151811062001f7057634e487b7160e01b600052603260045260246000fd5b602090810291909101015262001f886005826200378c565b905062001e0e565b50606060005b6005835162001fa69190620037a7565b8110156200213257818362001fbd836005620037be565b8151811062001fdc57634e487b7160e01b600052603260045260246000fd5b60200260200101518483600562001ff49190620037be565b620020019060016200378c565b815181106200202057634e487b7160e01b600052603260045260246000fd5b602002602001015185846005620020389190620037be565b620020459060026200378c565b815181106200206457634e487b7160e01b600052603260045260246000fd5b6020026020010151868560056200207c9190620037be565b620020899060036200378c565b81518110620020a857634e487b7160e01b600052603260045260246000fd5b602002602001015187866005620020c09190620037be565b620020cd9060046200378c565b81518110620020ec57634e487b7160e01b600052603260045260246000fd5b60200260200101516040516020016200210b9695949392919062002ddb565b6040516020818303038152906040529150808062002129906200387a565b91505062001f96565b50949350505050565b6060826200215662001b09670de0b6b3a764000085620037a7565b620021716064670de0b6b3a764000062001b738783620037be565b60405160200162002185939291906200354f565b604051602081830303815290604052905092915050565b606081620021c15750506040805180820190915260018152600360fc1b602082015290565b8160005b8115620021f15780620021d8816200387a565b9150620021e99050600a83620037a7565b9150620021c5565b60008167ffffffffffffffff8111156200221b57634e487b7160e01b600052604160045260246000fd5b6040519080825280601f01601f19166020018201604052801562002246576020820181803683370190505b5090505b8415620022ca576200225e600183620037e0565b91506200226d600a8662003898565b6200227a9060306200378c565b60f81b8183815181106200229e57634e487b7160e01b600052603260045260246000fd5b60200101906001600160f81b031916908160001a905350620022c2600a86620037a7565b94506200224a565b949350505050565b606081620022fa5750506040805180820190915260048152630307830360e41b602082015290565b8160005b811562002321578062002311816200387a565b915050600882901c9150620022fe565b620022ca8482620025ce565b6060600a60006200233f8280620037be565b67ffffffffffffffff8111156200236657634e487b7160e01b600052604160045260246000fd5b6040519080825280602002602001820160405280156200239b57816020015b6060815260200190600190039081620023855790505b50905060005b82811015620024ba5760005b83811015620024a457620023d484620023c8846064620037be565b62001b099190620037a7565b62002400856001620023e78583620037e0565b620023f39190620037e0565b620023c8906064620037be565b62002413866001620023e78783620037e0565b6200242587620023c8866064620037be565b6040516020016200243a949392919062003344565b60408051601f198184030181529190528382620024588786620037be565b6200246491906200378c565b815181106200248357634e487b7160e01b600052603260045260246000fd5b602002602001018190525080806200249b906200387a565b915050620023ad565b5080620024b1816200387a565b915050620023a1565b5092915050565b600060018351620024d39190620037e0565b90505b8015620025c9576000818451620024ee9190620037e0565b620024fa908462003898565b905060008483815181106200251f57634e487b7160e01b600052603260045260246000fd5b6020026020010151905060008583815181106200254c57634e487b7160e01b600052603260045260246000fd5b60200260200101519050808685815181106200257857634e487b7160e01b600052603260045260246000fd5b602002602001018190525081868481518110620025a557634e487b7160e01b600052603260045260246000fd5b60200260200101819052505050508080620025c09062003829565b915050620024d6565b505050565b60606000620025df836002620037be565b620025ec9060026200378c565b67ffffffffffffffff8111156200261357634e487b7160e01b600052604160045260246000fd5b6040519080825280601f01601f1916602001820160405280156200263e576020820181803683370190505b509050600360fc1b816000815181106200266857634e487b7160e01b600052603260045260246000fd5b60200101906001600160f81b031916908160001a905350600f60fb1b81600181518110620026a657634e487b7160e01b600052603260045260246000fd5b60200101906001600160f81b031916908160001a9053506000620026cc846002620037be565b620026d99060016200378c565b90505b600181111562002773576f181899199a1a9b1b9c1cb0b131b232b360811b85600f16601081106200271d57634e487b7160e01b600052603260045260246000fd5b1a60f81b8282815181106200274257634e487b7160e01b600052603260045260246000fd5b60200101906001600160f81b031916908160001a90535060049490941c936200276b8162003829565b9050620026dc565b508315620027c45760405162461bcd60e51b815260206004820181905260248201527f537472696e67733a20686578206c656e67746820696e73756666696369656e74604482015260640162000246565b9392505050565b6040518061016001604052806000801916815260200160006001600160a01b03168152602001606081526020016000815260200160608152602001606081526020016000815260200160008152602001606081526020016000815260200160006001600160a01b031681525090565b611aec80620038dc83390190565b828054620028569062003843565b90600052602060002090601f0160209004810192826200287a5760008555620028c5565b82601f106200289557805160ff1916838001178555620028c5565b82800160010185558215620028c5579182015b82811115620028c5578251825591602001919060010190620028a8565b50620028d3929150620029ac565b5090565b828054828255906000526020600020908101928215620028c5579160200282015b82811115620028c557825182546001600160a01b0319166001600160a01b03909116178255602090920191600190910190620028f8565b8280546200293d9062003843565b90600052602060002090601f016020900481019282620029615760008555620028c5565b82601f106200297c5782800160ff19823516178555620028c5565b82800160010185558215620028c5579182015b82811115620028c55782358255916020019190600101906200298f565b5b80821115620028d35760008155600101620029ad565b80356001600160a01b0381168114620029db57600080fd5b919050565b60008083601f840112620029f2578182fd5b50813567ffffffffffffffff81111562002a0a578182fd5b60208301915083602082850101111562002a2357600080fd5b9250929050565b60006020828403121562002a3c578081fd5b620027c482620029c3565b60008060006040848603121562002a5c578182fd5b62002a6784620029c3565b9250602084013567ffffffffffffffff81111562002a83578283fd5b62002a9186828701620029e0565b9497909650939450505050565b60006020828403121562002ab0578081fd5b81518015158114620027c4578182fd5b60006020828403121562002ad2578081fd5b5035919050565b6000806040838503121562002aec578182fd5b50508035926020909101359150565b60008060008060008060006080888a03121562002b16578283fd5b873567ffffffffffffffff8082111562002b2e578485fd5b62002b3c8b838c01620029e0565b909950975060208a013591508082111562002b55578485fd5b62002b638b838c01620029e0565b909750955060408a0135945060608a013591508082111562002b83578384fd5b5062002b928a828b01620029e0565b989b979a50959850939692959293505050565b6000815180845260208085019450808401835b8381101562002bdf5781516001600160a01b03168752958201959082019060010162002bb8565b509495945050505050565b6000815162002bfe818560208601620037fa565b9290920192915050565b6000815180845262002c22816020860160208601620037fa565b601f01601f19169290920160200192915050565b600061016082518452602083015162002c5a60208601826001600160a01b03169052565b50604083015181604086015262002c748286018262002c08565b915050606083015160608501526080830151848203608086015262002c9a828262002c08565b91505060a083015184820360a086015262002cb6828262002c08565b91505060c083015160c085015260e083015160e0850152610100808401518583038287015262002ce7838262002ba5565b925050506101208084015181860152506101408084015162002d13828701826001600160a01b03169052565b5090949350505050565b6000845162002d31818460208901620037fa565b84519083019062002d47818360208901620037fa565b845191019062002d5c818360208801620037fa565b0195945050505050565b6000865162002d7a818460208b01620037fa565b86519083019062002d90818360208b01620037fa565b865191019062002da5818360208a01620037fa565b855191019062002dba818360208901620037fa565b845191019062002dcf818360208801620037fa565b01979650505050505050565b60008751602062002df08285838d01620037fa565b88519184019162002e058184848d01620037fa565b885192019162002e198184848c01620037fa565b875192019162002e2d8184848b01620037fa565b865192019162002e418184848a01620037fa565b855192019162002e558184848901620037fa565b919091019998505050505050505050565b600080845482600182811c91508083168062002e8357607f831692505b602080841082141562002ea457634e487b7160e01b87526022600452602487fd5b81801562002ebb576001811462002ecd5762002efb565b60ff1986168952848901965062002efb565b60008b815260209020885b8681101562002ef35781548b82015290850190830162002ed8565b505084890196505b50505050505062002f0d818562002bea565b95945050505050565b7f3c7376672076696577426f783d2730203020343030203430302720786d6c6e7381527f3d27687474703a2f2f7777772e77332e6f72672f323030302f737667273e3c6460208201527f6566733e3c7374796c653e40696d706f72742075726c282768747470733a2f2f60408201527f666f6e74732e676f6f676c65617069732e636f6d2f637373323f66616d696c7960608201527f3d53706163652b47726f7465736b3a77676874403430303b37303027293b2a7b60808201527f636f6c6f723a2532333631316636397d746578742c707b666f6e742d73697a6560a08201527f3a313470783b666f6e742d66616d696c793a2753706163652047726f7465736b60c08201527f272c73616e732d73657269663b66696c6c3a63757272656e74436f6c6f727d7560e08201527f73657b6f7061636974793a20302e327d7573653a6e74682d6f662d7479706528610100820152616e2b60f01b6101208201526000620032f3620032e0620032d96200310962003102620030c8620030c1620030a46101228a018e62002bea565b70293a6e74682d6f662d74797065282d6e2b60781b815260110190565b8b62002bea565b7f297b6f7061636974793a317d3c2f7374796c653e3c696d6167652069643d27618152672720687265663d2760c01b602082015260280190565b8862002bea565b7f2720783d2734302720793d273734272077696474683d2733323027206865696781527f68743d27313830272f3e3c2f646566733e3c7265637420783d2734302720793d60208201527f273430272077696474683d2733323027206865696768743d273334272066696c60408201527f6c3d27253233666263633563272f3e3c7265637420783d2734302720793d273260608201527f3534272077696474683d2733323027206865696768743d27313036272066696c60808201527f6c3d27253233666263633563272f3e3c7265637420783d2733392720793d273360a08201527f39272077696474683d2733323227206865696768743d27333232272072783d2760c08201527f30272066696c6c3d276e6f6e6527207374726f6b653d2763757272656e74436f60e08201527f6c6f7227207374726f6b652d77696474683d2732272f3e3c74657874207374796101008201527f6c653d27666f6e742d7765696768743a626f6c642720783d273530252720793d6101208201527f2736302720646f6d696e616e742d626173656c696e653d276d6964646c6527206101408201527f746578742d616e63686f723d276d6964646c65273e716176616820253233000061016082015261017e0190565b8562002bea565b661e17ba32bc3a1f60c91b815260070190565b9695505050505050565b7f646174613a6170706c69636174696f6e2f6a736f6e3b6261736536342c0000008152600082516200333781601d850160208701620037fa565b91909101601d0192915050565b7f3c75736520687265663d27253233612720636c69702d706174683d27696e73658152610e8560f31b60208201526000855162003389816022850160208a01620037fa565b808301905061012960f51b8060228301528651620033af816024850160208b01620037fa565b602492019182018190528551620033ce816026850160208a01620037fa565b60269201918201528351620033eb816028840160208801620037fa565b64129493979f60d91b60289290910191820152602d019695505050505050565b6f7b226e616d65223a225161766168202360801b8152865160009062003439816010850160208c01620037fa565b701116113232b9b1b934b83a34b7b7111d1160791b60109184019182015287516200346c816021840160208c01620037fa565b7f222c22696d616765223a22646174613a696d6167652f7376672b786d6c3b75746021929091019182015262198e0b60ea1b60418201528651620034b8816044840160208b01620037fa565b6a11161130b6b7bab73a111d60a91b604492909101918201528551620034e681604f840160208a01620037fa565b62003541620035346200352d620035146200350d604f86880101601760f91b815260010190565b8a62002bea565b6c16113a34b6b2b9ba30b6b8111d60991b8152600d0190565b8762002bea565b607d60f81b815260010190565b9a9950505050505050505050565b7f3c666f726569676e4f626a65637420783d2736302720793d273237302720776981527f6474683d2732383027206865696768743d273534273e3c7020786d6c6e733d2760208201527f687474703a2f2f7777772e77332e6f72672f313939392f7868746d6c2720737460408201527f796c653d276d617267696e3a303b666f6e742d7765696768743a626f6c64273e606082015260008451620035fb816080850160208901620037fa565b7f3c2f703e3c2f666f726569676e4f626a6563743e3c74657874207374796c653d6080918401918201527f27666f6e742d73697a653a313270783b666f6e742d7765696768743a206e6f7260a08201527f6d616c2720783d273334302720793d273334302720746578742d616e63686f7260c0820152673d27656e64273e2b60c01b60e08201528451620036978160e8840160208901620037fa565b601760f91b60e89290910191820152620032f3620036b960e983018662002bea565b711031aaa9a21e17ba32bc3a1f1e17b9bb339f60711b815260120190565b6001600160a01b0383168152604060208201819052600090620022ca9083018462002c08565b6000602080830181845280855180835260408601915060408160051b8701019250838701855b828110156200375557603f198886030184526200374285835162002c36565b9450928501929085019060010162003723565b5092979650505050505050565b602081526000620027c4602083018462002c08565b602081526000620027c4602083018462002c36565b60008219821115620037a257620037a2620038af565b500190565b600082620037b957620037b9620038c5565b500490565b6000816000190483118215151615620037db57620037db620038af565b500290565b600082821015620037f557620037f5620038af565b500390565b60005b8381101562003817578181015183820152602001620037fd565b838111156200192e5750506000910152565b6000816200383b576200383b620038af565b506000190190565b600181811c908216806200385857607f821691505b6020821081141562000afe57634e487b7160e01b600052602260045260246000fd5b6000600019821415620038915762003891620038af565b5060010190565b600082620038aa57620038aa620038c5565b500690565b634e487b7160e01b600052601160045260246000fd5b634e487b7160e01b600052601260045260246000fdfe60806040523480156200001157600080fd5b50604051806040016040528060058152602001640a2c2ecc2d60db1b815250604051806040016040528060058152602001640a282ac82960db1b815250816000908051906020019062000066929190620000f5565b5080516200007c906001906020840190620000f5565b50505062000099620000936200009f60201b60201c565b620000a3565b620001d8565b3390565b600780546001600160a01b038381166001600160a01b0319831681179093556040519116919082907f8be0079c531659141344cd1fd0a4f28419497f9722a3daafe3b4186f6b6457e090600090a35050565b82805462000103906200019b565b90600052602060002090601f01602090048101928262000127576000855562000172565b82601f106200014257805160ff191683800117855562000172565b8280016001018555821562000172579182015b828111156200017257825182559160200191906001019062000155565b506200018092915062000184565b5090565b5b8082111562000180576000815560010162000185565b600181811c90821680620001b057607f821691505b60208210811415620001d257634e487b7160e01b600052602260045260246000fd5b50919050565b61190480620001e86000396000f3fe608060405234801561001057600080fd5b506004361061010b5760003560e01c8063715018a6116100a2578063b88d4fde11610071578063b88d4fde1461021b578063c87b56dd1461022e578063d204c45e14610241578063e985e9c514610254578063f2fde38b1461029057600080fd5b8063715018a6146101e75780638da5cb5b146101ef57806395d89b4114610200578063a22cb4651461020857600080fd5b806323b872dd116100de57806323b872dd1461018d57806342842e0e146101a05780636352211e146101b357806370a08231146101c657600080fd5b806301ffc9a71461011057806306fdde0314610138578063081812fc1461014d578063095ea7b314610178575b600080fd5b61012361011e3660046115ca565b6102a3565b60405190151581526020015b60405180910390f35b6101406102f5565b60405161012f91906116b2565b61016061015b366004611602565b610387565b6040516001600160a01b03909116815260200161012f565b61018b6101863660046115a1565b610414565b005b61018b61019b366004611454565b61052a565b61018b6101ae366004611454565b61055b565b6101606101c1366004611602565b610576565b6101d96101d4366004611408565b6105ed565b60405190815260200161012f565b61018b610674565b6007546001600160a01b0316610160565b6101406106aa565b61018b610216366004611508565b6106b9565b61018b61022936600461148f565b6106c8565b61014061023c366004611602565b610700565b61018b61024f366004611542565b61070b565b610123610262366004611422565b6001600160a01b03918216600090815260056020908152604080832093909416825291909152205460ff1690565b61018b61029e366004611408565b610764565b60006001600160e01b031982166380ac58cd60e01b14806102d457506001600160e01b03198216635b5e139f60e01b145b806102ef57506301ffc9a760e01b6001600160e01b03198316145b92915050565b6060600080546103049061180c565b80601f01602080910402602001604051908101604052809291908181526020018280546103309061180c565b801561037d5780601f106103525761010080835404028352916020019161037d565b820191906000526020600020905b81548152906001019060200180831161036057829003601f168201915b5050505050905090565b6000610392826107ff565b6103f85760405162461bcd60e51b815260206004820152602c60248201527f4552433732313a20617070726f76656420717565727920666f72206e6f6e657860448201526b34b9ba32b73a103a37b5b2b760a11b60648201526084015b60405180910390fd5b506000908152600460205260409020546001600160a01b031690565b600061041f82610576565b9050806001600160a01b0316836001600160a01b0316141561048d5760405162461bcd60e51b815260206004820152602160248201527f4552433732313a20617070726f76616c20746f2063757272656e74206f776e656044820152603960f91b60648201526084016103ef565b336001600160a01b03821614806104a957506104a98133610262565b61051b5760405162461bcd60e51b815260206004820152603860248201527f4552433732313a20617070726f76652063616c6c6572206973206e6f74206f7760448201527f6e6572206e6f7220617070726f76656420666f7220616c6c000000000000000060648201526084016103ef565b610525838361081c565b505050565b610534338261088a565b6105505760405162461bcd60e51b81526004016103ef9061174c565b610525838383610974565b610525838383604051806020016040528060008152506106c8565b6000818152600260205260408120546001600160a01b0316806102ef5760405162461bcd60e51b815260206004820152602960248201527f4552433732313a206f776e657220717565727920666f72206e6f6e657869737460448201526832b73a103a37b5b2b760b91b60648201526084016103ef565b60006001600160a01b0382166106585760405162461bcd60e51b815260206004820152602a60248201527f4552433732313a2062616c616e636520717565727920666f7220746865207a65604482015269726f206164647265737360b01b60648201526084016103ef565b506001600160a01b031660009081526003602052604090205490565b6007546001600160a01b0316331461069e5760405162461bcd60e51b81526004016103ef90611717565b6106a86000610b10565b565b6060600180546103049061180c565b6106c4338383610b62565b5050565b6106d2338361088a565b6106ee5760405162461bcd60e51b81526004016103ef9061174c565b6106fa84848484610c31565b50505050565b60606102ef82610c64565b6007546001600160a01b031633146107355760405162461bcd60e51b81526004016103ef90611717565b600061074060085490565b9050610750600880546001019055565b61075a8382610dd3565b6105258183610ded565b6007546001600160a01b0316331461078e5760405162461bcd60e51b81526004016103ef90611717565b6001600160a01b0381166107f35760405162461bcd60e51b815260206004820152602660248201527f4f776e61626c653a206e6577206f776e657220697320746865207a65726f206160448201526564647265737360d01b60648201526084016103ef565b6107fc81610b10565b50565b6000908152600260205260409020546001600160a01b0316151590565b600081815260046020526040902080546001600160a01b0319166001600160a01b038416908117909155819061085182610576565b6001600160a01b03167f8c5be1e5ebec7d5bd14f71427d1e84f3dd0314c0f7b2291e5b200ac8c7c3b92560405160405180910390a45050565b6000610895826107ff565b6108f65760405162461bcd60e51b815260206004820152602c60248201527f4552433732313a206f70657261746f7220717565727920666f72206e6f6e657860448201526b34b9ba32b73a103a37b5b2b760a11b60648201526084016103ef565b600061090183610576565b9050806001600160a01b0316846001600160a01b0316148061093c5750836001600160a01b031661093184610387565b6001600160a01b0316145b8061096c57506001600160a01b0380821660009081526005602090815260408083209388168352929052205460ff165b949350505050565b826001600160a01b031661098782610576565b6001600160a01b0316146109eb5760405162461bcd60e51b815260206004820152602560248201527f4552433732313a207472616e736665722066726f6d20696e636f72726563742060448201526437bbb732b960d91b60648201526084016103ef565b6001600160a01b038216610a4d5760405162461bcd60e51b8152602060048201526024808201527f4552433732313a207472616e7366657220746f20746865207a65726f206164646044820152637265737360e01b60648201526084016103ef565b610a5860008261081c565b6001600160a01b0383166000908152600360205260408120805460019290610a819084906117c9565b90915550506001600160a01b0382166000908152600360205260408120805460019290610aaf90849061179d565b909155505060008181526002602052604080822080546001600160a01b0319166001600160a01b0386811691821790925591518493918716917fddf252ad1be2c89b69c2b068fc378daa952ba7f163c4a11628f55a4df523b3ef91a4505050565b600780546001600160a01b038381166001600160a01b0319831681179093556040519116919082907f8be0079c531659141344cd1fd0a4f28419497f9722a3daafe3b4186f6b6457e090600090a35050565b816001600160a01b0316836001600160a01b03161415610bc45760405162461bcd60e51b815260206004820152601960248201527f4552433732313a20617070726f766520746f2063616c6c65720000000000000060448201526064016103ef565b6001600160a01b03838116600081815260056020908152604080832094871680845294825291829020805460ff191686151590811790915591519182527f17307eab39ab6107e8899845ad3d59bd9653f200f220920489ca2b5937696c31910160405180910390a3505050565b610c3c848484610974565b610c4884848484610e78565b6106fa5760405162461bcd60e51b81526004016103ef906116c5565b6060610c6f826107ff565b610cd55760405162461bcd60e51b815260206004820152603160248201527f45524337323155524953746f726167653a2055524920717565727920666f72206044820152703737b732bc34b9ba32b73a103a37b5b2b760791b60648201526084016103ef565b60008281526006602052604081208054610cee9061180c565b80601f0160208091040260200160405190810160405280929190818152602001828054610d1a9061180c565b8015610d675780601f10610d3c57610100808354040283529160200191610d67565b820191906000526020600020905b815481529060010190602001808311610d4a57829003601f168201915b505050505090506000610d8560408051602081019091526000815290565b9050805160001415610d98575092915050565b815115610dca578082604051602001610db2929190611646565b60405160208183030381529060405292505050919050565b61096c84610f85565b6106c482826040518060200160405280600081525061105d565b610df6826107ff565b610e595760405162461bcd60e51b815260206004820152602e60248201527f45524337323155524953746f726167653a2055524920736574206f66206e6f6e60448201526d32bc34b9ba32b73a103a37b5b2b760911b60648201526084016103ef565b60008281526006602090815260409091208251610525928401906112dd565b60006001600160a01b0384163b15610f7a57604051630a85bd0160e11b81526001600160a01b0385169063150b7a0290610ebc903390899088908890600401611675565b602060405180830381600087803b158015610ed657600080fd5b505af1925050508015610f06575060408051601f3d908101601f19168201909252610f03918101906115e6565b60015b610f60573d808015610f34576040519150601f19603f3d011682016040523d82523d6000602084013e610f39565b606091505b508051610f585760405162461bcd60e51b81526004016103ef906116c5565b805181602001fd5b6001600160e01b031916630a85bd0160e11b14905061096c565b506001949350505050565b6060610f90826107ff565b610ff45760405162461bcd60e51b815260206004820152602f60248201527f4552433732314d657461646174613a2055524920717565727920666f72206e6f60448201526e3732bc34b9ba32b73a103a37b5b2b760891b60648201526084016103ef565b600061100b60408051602081019091526000815290565b9050600081511161102b5760405180602001604052806000815250611056565b8061103584611090565b604051602001611046929190611646565b6040516020818303038152906040525b9392505050565b61106783836111aa565b6110746000848484610e78565b6105255760405162461bcd60e51b81526004016103ef906116c5565b6060816110b45750506040805180820190915260018152600360fc1b602082015290565b8160005b81156110de57806110c881611847565b91506110d79050600a836117b5565b91506110b8565b60008167ffffffffffffffff81111561110757634e487b7160e01b600052604160045260246000fd5b6040519080825280601f01601f191660200182016040528015611131576020820181803683370190505b5090505b841561096c576111466001836117c9565b9150611153600a86611862565b61115e90603061179d565b60f81b81838151811061118157634e487b7160e01b600052603260045260246000fd5b60200101906001600160f81b031916908160001a9053506111a3600a866117b5565b9450611135565b6001600160a01b0382166112005760405162461bcd60e51b815260206004820181905260248201527f4552433732313a206d696e7420746f20746865207a65726f206164647265737360448201526064016103ef565b611209816107ff565b156112565760405162461bcd60e51b815260206004820152601c60248201527f4552433732313a20746f6b656e20616c7265616479206d696e7465640000000060448201526064016103ef565b6001600160a01b038216600090815260036020526040812080546001929061127f90849061179d565b909155505060008181526002602052604080822080546001600160a01b0319166001600160a01b03861690811790915590518392907fddf252ad1be2c89b69c2b068fc378daa952ba7f163c4a11628f55a4df523b3ef908290a45050565b8280546112e99061180c565b90600052602060002090601f01602090048101928261130b5760008555611351565b82601f1061132457805160ff1916838001178555611351565b82800160010185558215611351579182015b82811115611351578251825591602001919060010190611336565b5061135d929150611361565b5090565b5b8082111561135d5760008155600101611362565b600067ffffffffffffffff80841115611391576113916118a2565b604051601f8501601f19908116603f011681019082821181831017156113b9576113b96118a2565b816040528093508581528686860111156113d257600080fd5b858560208301376000602087830101525050509392505050565b80356001600160a01b038116811461140357600080fd5b919050565b600060208284031215611419578081fd5b611056826113ec565b60008060408385031215611434578081fd5b61143d836113ec565b915061144b602084016113ec565b90509250929050565b600080600060608486031215611468578081fd5b611471846113ec565b925061147f602085016113ec565b9150604084013590509250925092565b600080600080608085870312156114a4578081fd5b6114ad856113ec565b93506114bb602086016113ec565b925060408501359150606085013567ffffffffffffffff8111156114dd578182fd5b8501601f810187136114ed578182fd5b6114fc87823560208401611376565b91505092959194509250565b6000806040838503121561151a578182fd5b611523836113ec565b915060208301358015158114611537578182fd5b809150509250929050565b60008060408385031215611554578182fd5b61155d836113ec565b9150602083013567ffffffffffffffff811115611578578182fd5b8301601f81018513611588578182fd5b61159785823560208401611376565b9150509250929050565b600080604083850312156115b3578182fd5b6115bc836113ec565b946020939093013593505050565b6000602082840312156115db578081fd5b8135611056816118b8565b6000602082840312156115f7578081fd5b8151611056816118b8565b600060208284031215611613578081fd5b5035919050565b600081518084526116328160208601602086016117e0565b601f01601f19169290920160200192915050565b600083516116588184602088016117e0565b83519083019061166c8183602088016117e0565b01949350505050565b6001600160a01b03858116825284166020820152604081018390526080606082018190526000906116a89083018461161a565b9695505050505050565b602081526000611056602083018461161a565b60208082526032908201527f4552433732313a207472616e7366657220746f206e6f6e20455243373231526560408201527131b2b4bb32b91034b6b83632b6b2b73a32b960711b606082015260800190565b6020808252818101527f4f776e61626c653a2063616c6c6572206973206e6f7420746865206f776e6572604082015260600190565b60208082526031908201527f4552433732313a207472616e736665722063616c6c6572206973206e6f74206f6040820152701ddb995c881b9bdc88185c1c1c9bdd9959607a1b606082015260800190565b600082198211156117b0576117b0611876565b500190565b6000826117c4576117c461188c565b500490565b6000828210156117db576117db611876565b500390565b60005b838110156117fb5781810151838201526020016117e3565b838111156106fa5750506000910152565b600181811c9082168061182057607f821691505b6020821081141561184157634e487b7160e01b600052602260045260246000fd5b50919050565b600060001982141561185b5761185b611876565b5060010190565b6000826118715761187161188c565b500690565b634e487b7160e01b600052601160045260246000fd5b634e487b7160e01b600052601260045260246000fd5b634e487b7160e01b600052604160045260246000fd5b6001600160e01b0319811681146107fc57600080fdfea2646970667358221220aa708dc38720f2bd669e73bcebbd2fb4e55a6c37b4102f3231efdf586a85bf5164736f6c634300080400334142434445464748494a4b4c4d4e4f505152535455565758595a6162636465666768696a6b6c6d6e6f707172737475767778797a303132333435363738392b2fa264697066735822122040d0137d426343bef278315c75444a02eada876b367bf2440b33294c29e07f1964736f6c63430008040033",
  "linkReferences": {},
  "deployedLinkReferences": {}
}