{
  "_format": "hh-sol-artifact-1",
  "contractName": "Qavah",
  "sourceName": "contracts/Qavah.sol",
  "abi": [
    {
      "inputs": [],
      "stateMutability": "nonpayable",
      "type": "constructor"
    },
    {
      "anonymous": false,
      "inputs": [
        {
          "indexed": true,
          "internalType": "address",
          "name": "owner",
          "type": "address"
        },
        {
          "indexed": true,
          "internalType": "address",
          "name": "approved",
          "type": "address"
        },
        {
          "indexed": true,
          "internalType": "uint256",
          "name": "tokenId",
          "type": "uint256"
        }
      ],
      "name": "Approval",
      "type": "event"
    },
    {
      "anonymous": false,
      "inputs": [
        {
          "indexed": true,
          "internalType": "address",
          "name": "owner",
          "type": "address"
        },
        {
          "indexed": true,
          "internalType": "address",
          "name": "operator",
          "type": "address"
        },
        {
          "indexed": false,
          "internalType": "bool",
          "name": "approved",
          "type": "bool"
        }
      ],
      "name": "ApprovalForAll",
      "type": "event"
    },
    {
      "anonymous": false,
      "inputs": [
        {
          "indexed": true,
          "internalType": "address",
          "name": "previousOwner",
          "type": "address"
        },
        {
          "indexed": true,
          "internalType": "address",
          "name": "newOwner",
          "type": "address"
        }
      ],
      "name": "OwnershipTransferred",
      "type": "event"
    },
    {
      "anonymous": false,
      "inputs": [
        {
          "indexed": true,
          "internalType": "address",
          "name": "from",
          "type": "address"
        },
        {
          "indexed": true,
          "internalType": "address",
          "name": "to",
          "type": "address"
        },
        {
          "indexed": true,
          "internalType": "uint256",
          "name": "tokenId",
          "type": "uint256"
        }
      ],
      "name": "Transfer",
      "type": "event"
    },
    {
      "inputs": [
        {
          "internalType": "address",
          "name": "to",
          "type": "address"
        },
        {
          "internalType": "uint256",
          "name": "tokenId",
          "type": "uint256"
        }
      ],
      "name": "approve",
      "outputs": [],
      "stateMutability": "nonpayable",
      "type": "function"
    },
    {
      "inputs": [
        {
          "internalType": "address",
          "name": "owner",
          "type": "address"
        }
      ],
      "name": "balanceOf",
      "outputs": [
        {
          "internalType": "uint256",
          "name": "",
          "type": "uint256"
        }
      ],
      "stateMutability": "view",
      "type": "function"
    },
    {
      "inputs": [
        {
          "internalType": "uint256",
          "name": "tokenId",
          "type": "uint256"
        }
      ],
      "name": "getApproved",
      "outputs": [
        {
          "internalType": "address",
          "name": "",
          "type": "address"
        }
      ],
      "stateMutability": "view",
      "type": "function"
    },
    {
      "inputs": [
        {
          "internalType": "address",
          "name": "owner",
          "type": "address"
        },
        {
          "internalType": "address",
          "name": "operator",
          "type": "address"
        }
      ],
      "name": "isApprovedForAll",
      "outputs": [
        {
          "internalType": "bool",
          "name": "",
          "type": "bool"
        }
      ],
      "stateMutability": "view",
      "type": "function"
    },
    {
      "inputs": [],
      "name": "name",
      "outputs": [
        {
          "internalType": "string",
          "name": "",
          "type": "string"
        }
      ],
      "stateMutability": "view",
      "type": "function"
    },
    {
      "inputs": [],
      "name": "owner",
      "outputs": [
        {
          "internalType": "address",
          "name": "",
          "type": "address"
        }
      ],
      "stateMutability": "view",
      "type": "function"
    },
    {
      "inputs": [
        {
          "internalType": "uint256",
          "name": "tokenId",
          "type": "uint256"
        }
      ],
      "name": "ownerOf",
      "outputs": [
        {
          "internalType": "address",
          "name": "",
          "type": "address"
        }
      ],
      "stateMutability": "view",
      "type": "function"
    },
    {
      "inputs": [],
      "name": "renounceOwnership",
      "outputs": [],
      "stateMutability": "nonpayable",
      "type": "function"
    },
    {
      "inputs": [
        {
          "internalType": "address",
          "name": "to",
          "type": "address"
        },
        {
          "internalType": "string",
          "name": "uri",
          "type": "string"
        }
      ],
      "name": "safeMint",
      "outputs": [],
      "stateMutability": "nonpayable",
      "type": "function"
    },
    {
      "inputs": [
        {
          "internalType": "address",
          "name": "from",
          "type": "address"
        },
        {
          "internalType": "address",
          "name": "to",
          "type": "address"
        },
        {
          "internalType": "uint256",
          "name": "tokenId",
          "type": "uint256"
        }
      ],
      "name": "safeTransferFrom",
      "outputs": [],
      "stateMutability": "nonpayable",
      "type": "function"
    },
    {
      "inputs": [
        {
          "internalType": "address",
          "name": "from",
          "type": "address"
        },
        {
          "internalType": "address",
          "name": "to",
          "type": "address"
        },
        {
          "internalType": "uint256",
          "name": "tokenId",
          "type": "uint256"
        },
        {
          "internalType": "bytes",
          "name": "_data",
          "type": "bytes"
        }
      ],
      "name": "safeTransferFrom",
      "outputs": [],
      "stateMutability": "nonpayable",
      "type": "function"
    },
    {
      "inputs": [
        {
          "internalType": "address",
          "name": "operator",
          "type": "address"
        },
        {
          "internalType": "bool",
          "name": "approved",
          "type": "bool"
        }
      ],
      "name": "setApprovalForAll",
      "outputs": [],
      "stateMutability": "nonpayable",
      "type": "function"
    },
    {
      "inputs": [
        {
          "internalType": "bytes4",
          "name": "interfaceId",
          "type": "bytes4"
        }
      ],
      "name": "supportsInterface",
      "outputs": [
        {
          "internalType": "bool",
          "name": "",
          "type": "bool"
        }
      ],
      "stateMutability": "view",
      "type": "function"
    },
    {
      "inputs": [],
      "name": "symbol",
      "outputs": [
        {
          "internalType": "string",
          "name": "",
          "type": "string"
        }
      ],
      "stateMutability": "view",
      "type": "function"
    },
    {
      "inputs": [
        {
          "internalType": "uint256",
          "name": "tokenId",
          "type": "uint256"
        }
      ],
      "name": "tokenURI",
      "outputs": [
        {
          "internalType": "string",
          "name": "",
          "type": "string"
        }
      ],
      "stateMutability": "view",
      "type": "function"
    },
    {
      "inputs": [
        {
          "internalType": "address",
          "name": "from",
          "type": "address"
        },
        {
          "internalType": "address",
          "name": "to",
          "type": "address"
        },
        {
          "internalType": "uint256",
          "name": "tokenId",
          "type": "uint256"
        }
      ],
      "name": "transferFrom",
      "outputs": [],
      "stateMutability": "nonpayable",
      "type": "function"
    },
    {
      "inputs": [
        {
          "internalType": "address",
          "name": "newOwner",
          "type": "address"
        }
      ],
      "name": "transferOwnership",
      "outputs": [],
      "stateMutability": "nonpayable",
      "type": "function"
    }
  ],
  "bytecode": "0x60806040523480156200001157600080fd5b5060408051808201825260058152640a2c2ecc2d60db1b60208083019182528351808501909452600384526228a0ab60e91b9084015281519192916200005a91600091620000e9565b50805162000070906001906020840190620000e9565b5050506200008d620000876200009360201b60201c565b62000097565b620001d6565b3390565b600780546001600160a01b038381166001600160a01b0319831681179093556040519116919082907f8be0079c531659141344cd1fd0a4f28419497f9722a3daafe3b4186f6b6457e090600090a35050565b828054620000f7906200018f565b90600052602060002090601f0160209004810192826200011b576000855562000166565b82601f106200013657805160ff191683800117855562000166565b8280016001018555821562000166579182015b828111156200016657825182559160200191906001019062000149565b506200017492915062000178565b5090565b5b8082111562000174576000815560010162000179565b600281046001821680620001a457607f821691505b60208210811415620001ba57620001ba620001c0565b50919050565b634e487b7160e01b600052602260045260246000fd5b611b4280620001e66000396000f3fe608060405234801561001057600080fd5b50600436106100db5760003560e01c806301ffc9a7146100e057806306fdde0314610109578063081812fc1461011e578063095ea7b31461013e57806323b872dd1461015357806342842e0e146101665780636352211e1461017957806370a082311461018c578063715018a6146101ac5780638da5cb5b146101b457806395d89b41146101bc578063a22cb465146101c4578063b88d4fde146101d7578063c87b56dd146101ea578063d204c45e146101fd578063e985e9c514610210578063f2fde38b14610223575b600080fd5b6100f36100ee3660046111b1565b610236565b60405161010091906117af565b60405180910390f35b610111610288565b60405161010091906117bd565b61013161012c3660046111ed565b61031a565b604051610100919061175d565b61015161014c366004611181565b610366565b005b610151610161366004611045565b6103ec565b610151610174366004611045565b61041d565b6101316101873660046111ed565b610438565b61019f61019a366004610fed565b61046d565b60405161010091906118ee565b6101516104b1565b6101316104ec565b6101116104fb565b6101516101d236600461110a565b61050a565b6101516101e5366004611092565b610519565b6101116101f83660046111ed565b610551565b61015161020b36600461113a565b61055c565b6100f361021e36600461100b565b6105ba565b610151610231366004610fed565b6105e8565b60006001600160e01b031982166380ac58cd60e01b148061026757506001600160e01b03198216635b5e139f60e01b145b8061028257506301ffc9a760e01b6001600160e01b03198316145b92915050565b606060008054610297906119cf565b80601f01602080910402602001604051908101604052809291908181526020018280546102c3906119cf565b80156103105780601f106102e557610100808354040283529160200191610310565b820191906000526020600020905b8154815290600101906020018083116102f357829003601f168201915b5050505050905090565b600061032582610649565b61034a5760405162461bcd60e51b81526004016103419061189e565b60405180910390fd5b506000908152600460205260409020546001600160a01b031690565b600061037182610438565b9050806001600160a01b0316836001600160a01b031614156103a55760405162461bcd60e51b8152600401610341906118ce565b336001600160a01b03821614806103c157506103c181336105ba565b6103dd5760405162461bcd60e51b81526004016103419061183e565b6103e78383610666565b505050565b6103f633826106d4565b6104125760405162461bcd60e51b8152600401610341906118de565b6103e7838383610759565b6103e783838360405180602001604052806000815250610519565b6000818152600260205260408120546001600160a01b0316806102825760405162461bcd60e51b81526004016103419061185e565b60006001600160a01b0382166104955760405162461bcd60e51b81526004016103419061184e565b506001600160a01b031660009081526003602052604090205490565b336104ba6104ec565b6001600160a01b0316146104e05760405162461bcd60e51b8152600401610341906118ae565b6104ea6000610869565b565b6007546001600160a01b031690565b606060018054610297906119cf565b6105153383836108bb565b5050565b61052333836106d4565b61053f5760405162461bcd60e51b8152600401610341906118de565b61054b8484848461095e565b50505050565b606061028282610991565b336105656104ec565b6001600160a01b03161461058b5760405162461bcd60e51b8152600401610341906118ae565b600061059660085490565b90506105a6600880546001019055565b6105b08382610ab6565b6103e78183610ad0565b6001600160a01b03918216600090815260056020908152604080832093909416825291909152205460ff1690565b336105f16104ec565b6001600160a01b0316146106175760405162461bcd60e51b8152600401610341906118ae565b6001600160a01b03811661063d5760405162461bcd60e51b8152600401610341906117de565b61064681610869565b50565b6000908152600260205260409020546001600160a01b0316151590565b600081815260046020526040902080546001600160a01b0319166001600160a01b038416908117909155819061069b82610438565b6001600160a01b03167f8c5be1e5ebec7d5bd14f71427d1e84f3dd0314c0f7b2291e5b200ac8c7c3b92560405160405180910390a45050565b60006106df82610649565b6106fb5760405162461bcd60e51b81526004016103419061182e565b600061070683610438565b9050806001600160a01b0316846001600160a01b031614806107415750836001600160a01b03166107368461031a565b6001600160a01b0316145b80610751575061075181856105ba565b949350505050565b826001600160a01b031661076c82610438565b6001600160a01b0316146107925760405162461bcd60e51b8152600401610341906117ee565b6001600160a01b0382166107b85760405162461bcd60e51b81526004016103419061180e565b6107c3600082610666565b6001600160a01b03831660009081526003602052604081208054600192906107ec90849061196f565b90915550506001600160a01b038216600090815260036020526040812080546001929061081a908490611943565b909155505060008181526002602052604080822080546001600160a01b0319166001600160a01b038681169182179092559151849391871691600080516020611aed83398151915291a4505050565b600780546001600160a01b038381166001600160a01b0319831681179093556040519116919082907f8be0079c531659141344cd1fd0a4f28419497f9722a3daafe3b4186f6b6457e090600090a35050565b816001600160a01b0316836001600160a01b031614156108ed5760405162461bcd60e51b81526004016103419061181e565b6001600160a01b0383811660008181526005602090815260408083209487168084529490915290819020805460ff1916851515179055517f17307eab39ab6107e8899845ad3d59bd9653f200f220920489ca2b5937696c31906109519085906117af565b60405180910390a3505050565b610969848484610759565b61097584848484610b14565b61054b5760405162461bcd60e51b8152600401610341906117ce565b606061099c82610649565b6109b85760405162461bcd60e51b81526004016103419061188e565b600082815260066020526040812080546109d1906119cf565b80601f01602080910402602001604051908101604052809291908181526020018280546109fd906119cf565b8015610a4a5780601f10610a1f57610100808354040283529160200191610a4a565b820191906000526020600020905b815481529060010190602001808311610a2d57829003601f168201915b505050505090506000610a6860408051602081019091526000815290565b9050805160001415610a7b575092915050565b815115610aad578082604051602001610a95929190611745565b60405160208183030381529060405292505050919050565b61075184610c21565b610515828260405180602001604052806000815250610cb1565b610ad982610649565b610af55760405162461bcd60e51b81526004016103419061186e565b600082815260066020908152604090912082516103e792840190610ebe565b60006001600160a01b0384163b15610c1657604051630a85bd0160e11b81526001600160a01b0385169063150b7a0290610b5890339089908890889060040161176b565b602060405180830381600087803b158015610b7257600080fd5b505af1925050508015610ba2575060408051601f3d908101601f19168201909252610b9f918101906111cf565b60015b610bfc573d808015610bd0576040519150601f19603f3d011682016040523d82523d6000602084013e610bd5565b606091505b508051610bf45760405162461bcd60e51b8152600401610341906117ce565b805181602001fd5b6001600160e01b031916630a85bd0160e11b149050610751565b506001949350505050565b6060610c2c82610649565b610c485760405162461bcd60e51b8152600401610341906118be565b6000610c5f60408051602081019091526000815290565b90506000815111610c7f5760405180602001604052806000815250610caa565b80610c8984610ce4565b604051602001610c9a929190611745565b6040516020818303038152906040525b9392505050565b610cbb8383610dfd565b610cc86000848484610b14565b6103e75760405162461bcd60e51b8152600401610341906117ce565b606081610d085750506040805180820190915260018152600360fc1b602082015290565b8160005b8115610d325780610d1c81611a29565b9150610d2b9050600a8361195b565b9150610d0c565b6000816001600160401b03811115610d5a57634e487b7160e01b600052604160045260246000fd5b6040519080825280601f01601f191660200182016040528015610d84576020820181803683370190505b5090505b841561075157610d9960018361196f565b9150610da6600a86611a44565b610db1906030611943565b60f81b818381518110610dd457634e487b7160e01b600052603260045260246000fd5b60200101906001600160f81b031916908160001a905350610df6600a8661195b565b9450610d88565b6001600160a01b038216610e235760405162461bcd60e51b81526004016103419061187e565b610e2c81610649565b15610e495760405162461bcd60e51b8152600401610341906117fe565b6001600160a01b0382166000908152600360205260408120805460019290610e72908490611943565b909155505060008181526002602052604080822080546001600160a01b0319166001600160a01b0386169081179091559051839290600080516020611aed833981519152908290a45050565b828054610eca906119cf565b90600052602060002090601f016020900481019282610eec5760008555610f32565b82601f10610f0557805160ff1916838001178555610f32565b82800160010185558215610f32579182015b82811115610f32578251825591602001919060010190610f17565b50610f3e929150610f42565b5090565b5b80821115610f3e5760008155600101610f43565b6000610f6a610f6584611918565b6118fc565b905082815260208101848484011115610f8257600080fd5b610f8d848285611997565b509392505050565b803561028281611aba565b803561028281611ace565b803561028281611ad6565b805161028281611ad6565b600082601f830112610fd257600080fd5b8135610751848260208601610f57565b803561028281611ae6565b600060208284031215610fff57600080fd5b60006107518484610f95565b6000806040838503121561101e57600080fd5b600061102a8585610f95565b925050602061103b85828601610f95565b9150509250929050565b60008060006060848603121561105a57600080fd5b60006110668686610f95565b935050602061107786828701610f95565b925050604061108886828701610fe2565b9150509250925092565b600080600080608085870312156110a857600080fd5b60006110b48787610f95565b94505060206110c587828801610f95565b93505060406110d687828801610fe2565b92505060608501356001600160401b038111156110f257600080fd5b6110fe87828801610fc1565b91505092959194509250565b6000806040838503121561111d57600080fd5b60006111298585610f95565b925050602061103b85828601610fa0565b6000806040838503121561114d57600080fd5b60006111598585610f95565b92505060208301356001600160401b0381111561117557600080fd5b61103b85828601610fc1565b6000806040838503121561119457600080fd5b60006111a08585610f95565b925050602061103b85828601610fe2565b6000602082840312156111c357600080fd5b60006107518484610fab565b6000602082840312156111e157600080fd5b60006107518484610fb6565b6000602082840312156111ff57600080fd5b60006107518484610fe2565b61121481611986565b82525050565b801515611214565b600061122c825190565b8084526020840193506112438185602086016119a3565b61124c81611ab0565b9093019392505050565b6000611260825190565b61126e8185602086016119a3565b9290920192915050565b603281526000602082017f4552433732313a207472616e7366657220746f206e6f6e20455243373231526581527131b2b4bb32b91034b6b83632b6b2b73a32b960711b602082015291505b5060400190565b602681526000602082017f4f776e61626c653a206e6577206f776e657220697320746865207a65726f206181526564647265737360d01b602082015291506112c3565b602581526000602082017f4552433732313a207472616e736665722066726f6d20696e636f72726563742081526437bbb732b960d91b602082015291506112c3565b601c81526000602082017b115490cdcc8c4e881d1bdad95b88185b1c9958591e481b5a5b9d195960221b815291505b5060200190565b602481526000602082017f4552433732313a207472616e7366657220746f20746865207a65726f206164648152637265737360e01b602082015291506112c3565b601981526000602082017822a9219b99189d1030b8383937bb32903a379031b0b63632b960391b8152915061137e565b602c81526000602082017f4552433732313a206f70657261746f7220717565727920666f72206e6f6e657881526b34b9ba32b73a103a37b5b2b760a11b602082015291506112c3565b603881526000602082017f4552433732313a20617070726f76652063616c6c6572206973206e6f74206f778152771b995c881b9bdc88185c1c1c9bdd995908199bdc88185b1b60421b602082015291506112c3565b602a81526000602082017f4552433732313a2062616c616e636520717565727920666f7220746865207a65815269726f206164647265737360b01b602082015291506112c3565b602981526000602082017f4552433732313a206f776e657220717565727920666f72206e6f6e657869737481526832b73a103a37b5b2b760b91b602082015291506112c3565b602e81526000602082017f45524337323155524953746f726167653a2055524920736574206f66206e6f6e81526d32bc34b9ba32b73a103a37b5b2b760911b602082015291506112c3565b60208082527f4552433732313a206d696e7420746f20746865207a65726f20616464726573739101908152600061137e565b603181526000602082017f45524337323155524953746f726167653a2055524920717565727920666f72208152703737b732bc34b9ba32b73a103a37b5b2b760791b602082015291506112c3565b602c81526000602082017f4552433732313a20617070726f76656420717565727920666f72206e6f6e657881526b34b9ba32b73a103a37b5b2b760a11b602082015291506112c3565b60208082527f4f776e61626c653a2063616c6c6572206973206e6f7420746865206f776e65729101908152600061137e565b602f81526000602082017f4552433732314d657461646174613a2055524920717565727920666f72206e6f81526e3732bc34b9ba32b73a103a37b5b2b760891b602082015291506112c3565b602181526000602082017f4552433732313a20617070726f76616c20746f2063757272656e74206f776e658152603960f91b602082015291506112c3565b603181526000602082017f4552433732313a207472616e736665722063616c6c6572206973206e6f74206f8152701ddb995c881b9bdc88185c1c1c9bdd9959607a1b602082015291506112c3565b80611214565b60006117518285611256565b91506107518284611256565b60208101610282828461120b565b60808101611779828761120b565b611786602083018661120b565b611793604083018561173f565b81810360608301526117a58184611222565b9695505050505050565b60208101610282828461121a565b60208082528101610caa8184611222565b6020808252810161028281611278565b60208082528101610282816112ca565b602080825281016102828161130d565b602080825281016102828161134f565b6020808252810161028281611385565b60208082528101610282816113c6565b60208082528101610282816113f6565b602080825281016102828161143f565b6020808252810161028281611494565b60208082528101610282816114db565b6020808252810161028281611521565b602080825281016102828161156c565b602080825281016102828161159e565b60208082528101610282816115ec565b6020808252810161028281611635565b6020808252810161028281611667565b60208082528101610282816116b3565b60208082528101610282816116f1565b60208101610282828461173f565b600061190760405190565b905061191382826119fc565b919050565b60006001600160401b0382111561193157611931611a9a565b61193a82611ab0565b60200192915050565b6000821982111561195657611956611a58565b500190565b60008261196a5761196a611a6e565b500490565b60008282101561198157611981611a58565b500390565b60006001600160a01b038216610282565b82818337506000910152565b60005b838110156119be5781810151838201526020016119a6565b8381111561054b5750506000910152565b6002810460018216806119e357607f821691505b602082108114156119f6576119f6611a84565b50919050565b611a0582611ab0565b81018181106001600160401b0382111715611a2257611a22611a9a565b6040525050565b6000600019821415611a3d57611a3d611a58565b5060010190565b600082611a5357611a53611a6e565b500690565b634e487b7160e01b600052601160045260246000fd5b634e487b7160e01b600052601260045260246000fd5b634e487b7160e01b600052602260045260246000fd5b634e487b7160e01b600052604160045260246000fd5b601f01601f191690565b611ac381611986565b811461064657600080fd5b801515611ac3565b6001600160e01b03198116611ac3565b80611ac356feddf252ad1be2c89b69c2b068fc378daa952ba7f163c4a11628f55a4df523b3efa2646970667358221220c888211cf1e552c6e84802d1ba53e5e6347713f8ba8d1c9b9112cb14925def6964736f6c63430008040033",
  "linkReferences": {},
  "deployedLinkReferences": {}
}